:100000000C9447000C9476000C9476000C947600C7
:100010000C9476000C9476000C9476000C94760088
:100020000C9476000C9476000C9476000C94760078
:100030000C9476000C9476000C9476000C94760068
:100040000C94B5000C9476000C9428030C94A70A29
:100050000C9476000C9476000C9476000C94760048
:100060000C9476000C9476000C9476000C94760038
:100070000C9476000C9476000C942C020C94A40240
:100080000C9476000C9476000C947600370B1124B7
:100090001FBECFEFD0E1DEBFCDBF11E0A0E0B1E0E9
:1000A000EEE1F7E100E00BBF02C007900D92AC3922
:1000B000B107D9F714E0ACE9B1E001C01D92AA3351
:1000C000B107E1F710E0CEE8D0E000E006C02297EB
:1000D0000109FE010BBF0E94890BCC38D10780E0DB
:1000E0000807A9F70E94DF0A0C948D0B0C940000FE
:1000F0000F931F938B019C0137FF07C0309520950C
:10010000109501951F4F2F4F3F4FB801C9011F9107
:100110000F910895AB01BC014250504060407040C7
:1001200000000000000000000000000080E090E0FF
:10013000DC0184179507A607B70748F40000000004
:100140000000000000000196A11DB11DF2CF08952E
:1001500083B1837F886083B96AE070E080E090E0DB
:100160000E948A0080E98AB908951F920F920FB603
:100170000F9211248F939F93AF93BF938091470366
:1001800090914803A0914903B0914A0380589F4F32
:10019000AF4FBF4F8093470390934803A093490309
:1001A000B0934A03BF91AF919F918F910F900FBE73
:1001B0000F901F901895CF92DF92EF92FF920F93BE
:1001C0001F93FC018091470390914803A09149033C
:1001D000B0914A0322B730E035952795A9016627EB
:1001E00057FD6095762F840F951FA61FB71FC080FF
:1001F000D180E280F38040914703509148036091A1
:10020000490370914A0322B730E035952795F901EB
:100210008F01222717FD2095322F040F151F261F4F
:10022000371F081B190B2A0B3B0B0C151D052E0540
:100230003F0508F31F910F91FF90EF90DF90CF9053
:100240000895AC01FC01EE59FF4FA081B181A80FC8
:10025000B91F6C9320813181DC01A05ABF4F8D9171
:100260009C91119701972817390751F0808191814E
:100270008F35910589F48D919C911197009761F4C8
:100280004C595F4FDA018C91882321F005C011820F
:1002900010820AC080E00895808191810196918347
:1002A00080838036910599F381E008951F93CF9361
:1002B000DF93162FEC01CB59DF4FCE01612F0E9447
:1002C00021018823D1F380919A00806280939A0063
:1002D000DF91CF911F9108952F923F924F925F929D
:1002E0006F927F928F929F92AF92BF92CF92DF9246
:1002F000EF92FF920F931F93CF93DF93CDB7DEB7AB
:1003000060970FB6F894DEBF0FBECDBF1C016A0127
:100310007B01122F411551056105710531F00DC0AA
:1003200060E20E9456010F5F01C001E0C1010117A8
:10033000B8F360E30E94560168C077FF0DC08DE2FC
:100340008983F094E094D094C094C11CD11CE11C2A
:10035000F11C115001E001C000E08AE090E09E87AE
:100360008D87812C2AEC922E2AE9A22E2BE3B22E25
:100370003AE0432E512C612C712CC814D904EA04A4
:10038000FB04DCF0E1E0F0E0EC0FFD1FE00FF11DFD
:10039000F88BEF87C701B601A50194010E944C0BB1
:1003A000CA01B901A30192010E944C0B605DEF8567
:1003B000F88960830F5F11111150C501B401A301C9
:1003C00092010E944C0B49015A018D859E8501972F
:1003D0009E878D87009789F6CC2405C0C10160E215
:1003E0000E945601C394C116C9F74E010894811C9E
:1003F000911C640106C0F60161916F01C1010E9468
:1004000056018C2D88198017B0F360960FB6F894BA
:10041000DEBF0FBECDBFDF91CF911F910F91FF9037
:10042000EF90DF90CF90BF90AF909F908F907F9094
:100430006F905F904F903F902F900895CF93DF93F0
:10044000EC0104C08BE493E00E945601699166239D
:10045000C9F7DF91CF9108951F920F920FB60F92B7
:100460000BB60F9211242F933F934F935F936F938B
:100470007F938F939F93AF93BF93CF93EF93FF930C
:10048000C0919C0080919B0084FD23C08BE493E08D
:100490006C2F0E94210180913904E82FF0E0E8568A
:1004A000FE4F9081C91799F48F5F8093390484308F
:1004B00081F410929B0010929A0010929D0010926D
:1004C000990010929800F0EFE0E0099402C01092B9
:1004D0003904FF91EF91CF91BF91AF919F918F918F
:1004E0007F916F915F914F913F912F910F900BBE34
:1004F0000F900FBE0F901F901895AC01FC01EE59A4
:10050000FF4F20813181FC01E05AFF4F80819181B2
:100510002817390751F40190F081E02DE40FF51F01
:1005200080810895118210820895A081B181A40F65
:10053000B51F8C91208131812F5F3F4F3183208304
:100540002036310589F7EECF1F920F920FB60F922A
:100550000BB60F9211242F933F934F935F936F939A
:100560007F938F939F93AF93BF93EF93FF932091CC
:1005700012043091130480911004909111042817F3
:10058000390731F480919A008F7D80939A0006C0DC
:1005900080EB93E00E947D0280939C00FF91EF919D
:1005A000BF91AF919F918F917F916F915F914F918B
:1005B0003F912F910F900BBE0F900FBE0F901F9089
:1005C0001895AC01FC01EE59FF4FA081B181A80F35
:1005D000B91F6C9320813181DC01A05ABF4F8D91EE
:1005E0009C91119701972817390751F080819181CB
:1005F0008F35910589F48D919C911197009761F445
:100600004C595F4FDA018C91882321F005C011828B
:1006100010820AC080E008958081918101969183C3
:1006200080838036910599F381E008951F93CF93DD
:10063000DF93162FEC01CB59DF4FCE01612F0E94C3
:10064000E1028823D1F3559ADF91CF911F9108954C
:100650001F920F920FB60F920BB60F9211242F9389
:100660003F934F935F936F937F938F939F93AF933A
:10067000BF93CF93EF93FF93CCB15C9907C08DE705
:1006800092E06C2F0E94E1028823C9F3FF91EF9161
:10069000CF91BF91AF919F918F917F916F915F911A
:1006A0004F913F912F910F900BBE0F900FBE0F9067
:1006B0001F901895AC01FC01EE59FF4F208131814C
:1006C000FC01E05AFF4F808191812817390751F4CE
:1006D0000190F081E02DE40FF51F808108951182D3
:1006E00010820895A081B181A40FB51F8C91208143
:1006F00031812F5F3F4F318320832036310589F7C9
:10070000EECFCF93DF93EB01FC01EE59FF4F408119
:100710005181FC01E05AFF4F20813181421753077C
:1007200021F480E0DF91CF9108950E945A038883DD
:1007300081E0F8CF4F925F926F927F928F929F925B
:10074000AF92BF92CF92DF92EF92FF920F931F93DF
:10075000CF93DF9300D0CDB7DEB76C01762E2901A1
:100760006E2CE02E262F2E5F240F200F30E006C0C7
:10077000840D951DFC018081280F3F5F832F90E041
:1007800080179107A8F3F22EF094198283B1837F2A
:10079000846083B988E08AB9C6016FEF4A830E94FA
:1007A0001603C6016FEF0E941603C601672D0E9453
:1007B00016036E2D6E5FC6010E941603C6014A81A4
:1007C000642F0E941603A42C820106C0F8016191D7
:1007D0008F01C6010E941603802F8A198E15B0F36F
:1007E000C6016F2D0E941603F601E953FF4FD60193
:1007F000AB53BF4F808191812D913C91119782170E
:10080000930709F07CC07DC0C601BE016F5F7F4FBA
:100810000E9481038823C1F389818F3FA9F7C60114
:10082000BE016F5F7F4F0E9481038823C1F38981DE
:100830008F3FA9F7C601BE016F5F7F4F0E94810302
:100840008823C1F389818715A9F7C601BE016F5FAF
:100850007F4F0E9481038823C1F30981102F11501B
:10086000520114C00894E11CF11CE814F90421F4AD
:10087000115008C0EE24FF24C601B5010E94810377
:10088000882381F30894A11CB11C0150013091F719
:100890001615E9F48981780E40E090E0019706C0D2
:1008A000240D351DF9012081720E4F5F242F30E099
:1008B00028173907A9F77094C601BE016F5F7F4FF3
:1008C0000E9481038823C1F38981781619F08FEF84
:1008D0009FEF02C080E090E00F900F90DF91CF91EA
:1008E0001F910F91FF90EF90DF90CF90BF90AF904E
:1008F0009F908F907F906F905F904F9008955E9B38
:1009000079CF5E9A0E94A8007FCF6F927F928F92DC
:100910009F92AF92BF92CF92DF92EF920F931F936D
:10092000CF93DF9300D00F92CDB7DEB73C01089490
:10093000611C711CFC0160819E012F5F3F4F83E0B1
:10094000F90111928A95E9F782E08A8384E289832A
:100950008DE792E042E002E010E053E0E52E74EF14
:10096000A72E71E0B72EC12CD12CE4EF8E2EE1E042
:100970009E2E0E949A036981009709F0606869833E
:100980009B8180E00A8110E0082B192BC3010E9493
:10099000E102C8010F900F900F90DF91CF911F914E
:1009A0000F91EF90DF90CF90BF90AF909F908F907E
:1009B0007F906F900895CF93DF93C5E0D0E005C09E
:1009C000C830D10511F4C9E0D0E080E091E00E9488
:1009D0001E02AE01662757FD6095762F8BE493E0EB
:1009E000209115040E946C018DE091E00E941E028E
:1009F000C093170287E192E00E948504AC0160E099
:100A000070E08BE493E0209115040E946C0181E179
:100A100091E00E941E022196CC30D1058CF2DF912C
:100A2000CF9108956F927F928F929F92AF92BF92D3
:100A3000CF92DF92EF920F931F93CF93DF9300D06B
:100A4000CDB7DEB7390121E02A83498342E09E0118
:100A50002F5F3F4F02E010E0F2E0EF2EA4EFAA2E4E
:100A6000A1E0BA2EC12CD12CB4EF8B2EB1E09B2E7D
:100A70000E949A032981009711F4822F02C0822FCD
:100A800080689A81F301908390E00F900F90DF913E
:100A9000CF911F910F91EF90DF90CF90BF90AF90CB
:100AA0009F908F907F906F9008950F931F93CF9397
:100AB000DF930F92CDB7DEB7382F292F8DE792E065
:100AC000032F122FF80161918F014BE19E012F5FDF
:100AD0003F4F0E941205682FC8010E94E1028981E0
:100AE0000F90DF91CF911F910F9108950F931F9356
:100AF000CF93DF930F92CDB7DEB7382F292F8DE735
:100B000092E0032F122FF80161918F014CE19E01B9
:100B10002F5F3F4F0E941205682FC8010E94E1021B
:100B200089810F90DF91CF911F910F91089584E1FA
:100B300091E00E941E0285E68093B10181EB91E075
:100B40000E947605482F50E060E070E08BE493E06F
:100B5000209115040E946C0181E191E00E941E0227
:100B600008950F931F93CF93DF930F92CDB7DEB706
:100B7000382F292F8DE792E0032F122FF801619172
:100B80008F014AE19E012F5F3F4F0E941205682F9F
:100B9000C8010E94E10289810F90DF91CF911F91DE
:100BA0000F9108951F93CF93DF93C1EBD1E014E62B
:100BB0001093B101CE010E9455058093AC011092B3
:100BC000AD011093B101CE010E9476058093AA0178
:100BD0001092AB0115E61093B101CE010E945505AC
:100BE0008093A8011092A9011093B101CE010E9437
:100BF00076058093A6011092A7011093B101CE0152
:100C00000E94B1058093A4011092A50116E61093ED
:100C1000B101CE010E9455058093A2011092A3015B
:100C20001093B101CE010E9476058093A00110922D
:100C3000A10117E61093B101CE010E9455058093E2
:100C40009E0110929F011093B101CE010E94B10547
:100C500080939C0110929D01DF91CF911F91089587
:100C60001F93CF93DF930F92CDB7DEB78FEF9CE446
:100C7000A8E081509040A040E1F700C0000015E0DE
:100C800001C019E08FEF9CE4A8E081509040A040A3
:100C9000E1F700C00000109317028DE792E0612F8A
:100CA00046E29E012F5F3F4F0E941205682F88E1A8
:100CB00092E00E94E1028981882319F4173009F338
:100CC0001F5F1C30F9F60F90DF91CF911F910895AF
:100CD0008F929F92AF92BF92CF92DF92EF920F933B
:100CE0001F93CF93DF9300D00F92CDB7DEB7498328
:100CF0002A833B8343E09E012F5F3F4F03E010E0D8
:100D0000EE24E39454EFA52E51E0B52EC12CD12C46
:100D100074EF872E71E0972E0E949A032981009725
:100D200011F4822F02C0822F806890E00F900F9004
:100D30000F90DF91CF911F910F91EF90DF90CF90A7
:100D4000BF90AF909F908F900895CF93DF93C5E0B1
:100D5000D0E0C830D10511F4C9E0D0E0C09317024B
:100D60008DE792E06C2F42E22FEF33E00E9468069D
:100D7000682F88E192E00E94E1022196CC30D105F3
:100D800044F3DF91CF910895CF93DF93C5E0D0E096
:100D9000C830D10511F4C9E0D0E0C09317028DE747
:100DA00092E06C2F42E220E030E00E946806682F5B
:100DB00088E192E00E94E1022196CC30D10544F313
:100DC000DF91CF910895CF93DF939C01C7E1D2E0EB
:100DD0008DE792E06091170240E20E946806682F5A
:100DE000CE0101960E94E102CE01DF91CF910895DC
:100DF00081E0809317028FEF93E00E94E30682E088
:100E0000809317028FEF93E00E94E30683E08093C4
:100E100017028FEF97E00E94E30684E080931702A9
:100E20008FEF97E00E94E306089581E08093170218
:100E30008FEF97E00E94E30682E0809317028FEF26
:100E400097E00E94E30683E0809317028FEF93E020
:100E50000E94E30684E0809317028FEF93E00E94E4
:100E6000E306089581E0809317028FEF93E00E94DC
:100E7000E30682E0809317028FEF93E00E94E3067F
:100E800083E0809317028FEF93E00E94E30684E0F3
:100E9000809317028FEF93E00E94E306089581E0AC
:100EA000809317028FEF97E00E94E30682E0809321
:100EB00017028FEF97E00E94E30683E0809317020A
:100EC0008FEF97E00E94E30684E0809317028FEF94
:100ED00097E00E94E3060895CF93C1E0C093170204
:100EE00080E090E00E94E306CF5FC530B9F7CF9174
:100EF0000895CF93DF939C01C7E1D2E08DE792E0A4
:100F0000609117024EE10E946806682FCE0101969B
:100F10000E94E102CE01DF91CF910895CF92DF923E
:100F2000EF92FF920F931F93CF93DF93C5E0D0E032
:100F3000E5E0CE2EF6E0DF2EA7E0EA2EB9E0FB2EAC
:100F40000AE01BE0C830D10511F4C9E0D0E0C0933D
:100F5000170284E690E00E94E306C092170281E443
:100F600092E00E947907D092170284E493E00E94F5
:100F70007907E092170286E392E00E947907F092E7
:100F8000170281E492E00E9479070093170284E43B
:100F900093E00E9479071093170286E392E00E9483
:100FA00079072196CC30D1056CF2DF91CF911F915A
:100FB0000F91FF90EF90DF90CF90089585E08093A0
:100FC00017028DEA93E00E94790786E0809317026A
:100FD0008DE491E00E94790787E0809317028DE904
:100FE00091E00E94790789E08093170281E492E002
:100FF0000E9479078AE08093170284E493E00E94BC
:1010000079078BE08093170286E392E00E947907CC
:10101000089585E0809317028DEA93E00E94790796
:1010200086E0809317028DE491E00E94790787E0C3
:10103000809317028DE991E00E94790789E08093FF
:10104000170286EB93E00E9479078AE080931702EB
:101050008CE291E00E9479078BE08093170280E395
:1010600092E00E947907089585E08093170281E459
:1010700092E00E94790786E08093170284E493E06F
:101080000E94790787E08093170286E392E00E942E
:10109000790789E08093170286EB93E00E94790735
:1010A0008AE0809317028CE291E00E9479078BE03E
:1010B0008093170280E392E00E947907089585E00B
:1010C0008093170281E492E00E94790786E0809382
:1010D000170284E493E00E94790787E08093170267
:1010E00086E392E00E94790789E08093170281E409
:1010F00092E00E9479078AE08093170284E493E0EB
:101100000E9479078BE08093170286E392E00E94A9
:1011100079070895BF92CF92DF92EF92FF920F93DB
:101120001F93CF93DF93CDB7DEB760970FB6F894D8
:10113000DEBF0FBECDBF85E68093B10181EB91E0AC
:101140000E947605082F10E00E946C070E94DE07BF
:101150000E9430060E94F80680E492E4AFE0B0E01E
:101160008D879E87AF87B88BCE010D960E94DB00DE
:101170000E946C070E9409080E9434080E943006F1
:101180000E94F80680E291EAA7E0B0E089879A879A
:10119000AB87BC87CE0109960E94DB000E946C07DA
:1011A0000E945F080E94300625E6B22E30E2C32E70
:1011B00031EAD32E37E0E32EF12C0AC0B092B10110
:1011C00081EB91E00E947605082F10E00E94F8065E
:1011D0000C3F11059CF7C801875990408536910551
:1011E00010F50E94F80680E894E8AEE1B0E08D8347
:1011F0009E83AF83B887CE0105960E94DB000E94D4
:101200006C070E946C0760960FB6F894DEBF0FBEA5
:10121000CDBFDF91CF911F910F91FF90EF90DF90A5
:10122000CF90BF9008950E941507C982DA82EB82A1
:10123000FC82CE0101960E94DB000E946C07C8CFA1
:1012400015E6CFEFD0E01093B10181EB91E00E9461
:1012500055058093A8011092A9018DE191E00E94AB
:101260001E021093B10181EB91E00E945505482FB9
:1012700050E060E070E08BE493E0209115040E9460
:101280006C0181E191E00E941E022DC00E94F806CF
:101290001093B10181EB91E00E9455058093A80164
:1012A0001092A90184E191E00E941E021093B10105
:1012B00081EB91E00E945505482F50E060E070E01E
:1012C0008BE493E0209115040E946C0181E191E090
:1012D0000E941E028FE799EAA3E081509040A0404F
:1012E000E1F700C000008091A8019091A9018F3F13
:1012F000910564F2D093A901C093A8010E948A08C5
:10130000A2CFCF93DF930F92CDB7DEB70E948E07A7
:1013100015E046E0E42E57E0F52E09E02091AD03FC
:101320003091AE038091AB039091AC03281739073D
:1013300009F0C1C0F3CF0E94F806F0CF0E94150754
:10134000EDCF0E944F07EACF0E943207E7CF0E94FD
:101350006C07E4CF0E9420090E94D205DFCF0E94D3
:10136000C406DCCF0E94A506D9CF81E191E00E949E
:101370001E0285E291E00E941E021093170287E18F
:1013800092E00E948504AC0160E070E08BE493E0A1
:10139000209115040E946C0181E191E00E941E02DF
:1013A00086E391E00E941E02E092170287E192E03C
:1013B0000E948504AC0160E070E08BE493E0209132
:1013C00015040E946C0181E191E00E941E0287E4F5
:1013D00091E00E941E02F092170287E192E00E94C3
:1013E0008504AC0160E070E08BE493E0209115048B
:1013F0000E946C0181E191E00E941E0288E591E06B
:101400000E941E020093170287E192E00E94850469
:10141000AC0160E070E08BE493E0209115040E9441
:101420006C0181E191E00E941E0289E691E00E9438
:101430001E028AE08093170287E192E00E948504F1
:10144000AC0160E070E08BE493E0209115040E9411
:101450006C0181E191E00E941E028BE791E00E9405
:101460001E028BE08093170287E192E00E948504C0
:10147000AC0160E070E08BE493E0209115040E94E1
:101480006C0181E191E00E941E0248CF0E948E070C
:1014900045CF0E94970542CF0E948A083FCF0E9405
:1014A000DE073CCF0E94090839CF0E94340836CFAE
:1014B0000E945F0833CF8BE493E00E947D02282FC7
:1014C0008BE493E0622F29830E94560129812736FD
:1014D00009F442CF2836E0F4243351F3253340F4A5
:1014E000223301F3233308F7213309F017CFD7CF85
:1014F000223609F43ACF233620F4213609F00ECFF4
:1015000020CF243609F420CF263609F007CF22CF8A
:10151000213709F41CCF223750F42B3609F4BCCF05
:101520002F3609F4B6CF2A3609F0F8CEAFCF2637DA
:1015300009F415CF273720F4233709F0EFCEFECE7C
:10154000273709F4F8CE293709F0E8CE0BCF1F92E0
:101550000F920FB60F920BB60F9211242F933F9359
:101560004F935F936F937F938F939F93AF93BF93AB
:10157000EF93FF9320914403309145038091420300
:10158000909143032817390711F4559805C082EE4E
:1015900092E00E945A038CB9FF91EF91BF91AF91F5
:1015A0009F918F917F916F915F914F913F912F917B
:1015B0000F900BBE0F900FBE0F901F9018958FE7E6
:1015C00084BB8EE785BB8CE082B981EF83B980E272
:1015D00081BB81E282BB109214041092AF03D2E06F
:1015E000D0939B0098E990939A0086E080939D00A9
:1015F0001092980022E220939900C1E0C093150454
:10160000C0931604C0933804109246031092E1026E
:10161000DBB99AB98093950010929000C9B982B154
:101620008C6082B90E94A800C7BFD3BF789468EECF
:1016300073E080E090E00E948A008DE891E00E94D3
:101640001E02209112043091130480911004909195
:1016500011042817390721F080919B0086FFF1CFF4
:1016600080919B00806480939B000E94810980E0B0
:1016700006C0E82FF0E0E95EFB4F10828F5F8032FA
:10168000C1F71092370481E080937C0280931602A8
:1016900084E68093B101089597FB092E05260ED0AC
:1016A00057FD04D014D00AD0001C38F45095409552
:1016B000309521953F4F4F4F5F4F0895F6F7909526
:1016C0008095709561957F4F8F4F9F4F0895A1E250
:1016D0001A2EAA1BBB1BFD010DC0AA1FBB1FEE1FAC
:1016E000FF1FA217B307E407F50720F0A21BB30BF7
:1016F000E40BF50B661F771F881F991F1A9469F773
:1017000060957095809590959B01AC01BD01CF01CE
:0E17100008950790F691E02D0994F894FFCF0C
:10171E004D6F746F72206369736C6F20002E2020E2
:10172E00000A0D0073656E736F72203A0073656E5A
:10173E00736F7220004D6F746F72206369736C6FDC
:10174E0020352E2020004D6F746F72206369736CEC
:10175E006F20362E2020004D6F746F7220636973D8
:10176E006C6F20372E2020004D6F746F72206369CE
:10177E00736C6F20392E2020004D6F746F722063B2
:10178E0069736C6F2031302E2020004D6F746F7294
:10179E00206369736C6F2031312E2020000A0A0DF0
:0C17AE0020206F6B200A0D002323232352
:00000001FF
