:100000000C949E000C94CD000C94CD000C94CD006B
:100010000C94CD000C94CD000C94CD000C94CD002C
:100020000C94CD000C94CD000C94CD000C94CD001C
:100030000C94CD000C94CD000C94CD000C94CD000C
:100040000C940C010C94CD000C9406060C94980AA8
:100050000C94CD000C94CD000C94CD000C94CD00EC
:100060000C94CD000C94CD000C94CD000C94CD00DC
:100070000C94CD000C94CD000C94C9020C94820514
:100080000C94CD000C94CD000C94CD0096009600FD
:100090009600960096009600960000025D022700EA
:1000A000D103B002E6012402000232000E004B022E
:1000B0002A02FE01D401AC01F603CC03A7037C03A2
:1000C0005A0333030C03E702BC02930272024D028F
:1000D0002402FE01D601B201880160013C011B012E
:1000E000EF00CA00A8007E0058005D02CC01CC01E0
:1000F0005D0262021C0200020002000200022700F0
:10010000E801C001270012026D0200020002000295
:100110000002D10374014001D103B102AF02000219
:10012000000200020002B002AA00F800B0021803A8
:10013000CB020002000200020002A20B11241FBE2B
:10014000CFEFD0E1DEBFCDBF11E0A0E0B1E0ECE049
:10015000F8E100E00BBF02C007900D92A238B10792
:10016000D9F714E0A2E8B1E001C01D92A531B107B2
:10017000E1F711E0CCE3D1E000E006C022970109ED
:10018000FE010BBF0E94000CCA33D10780E00807B4
:10019000A9F70E944A0B0C94040C0C9400000F93D6
:1001A0001F938B019C0137FF07C030952095109558
:1001B00001951F4F2F4F3F4FB801C9011F910F915C
:1001C0000895AB01BC0142505040604070400000B7
:1001D0000000000000000000000080E090E0DC0172
:1001E00084179507A607B70748F400000000000031
:1001F000000000000196A11DB11DF2CF089583B14A
:10020000837F886083B96AE070E080E090E00E94BC
:10021000E10080E98AB908951F920F920FB60F92FC
:1002200011248F939F93AF93BF938091220390915A
:100230002303A0912403B091250380589F4FAF4F13
:10024000BF4F8093220390932303A0932403B09382
:100250002503BF91AF919F918F910F900FBE0F908B
:100260001F901895CF92DF92EF92FF920F931F93FA
:10027000FC018091220390912303A0912403B0916B
:10028000250322B730E035952795A901662757FD4C
:100290006095762F840F951FA61FB71FC080D18051
:1002A000E280F38040912203509123036091240364
:1002B0007091250322B730E035952795F9018F011C
:1002C000222717FD2095322F040F151F261F371FD9
:1002D000081B190B2A0B3B0B0C151D052E053F05A2
:1002E00008F31F910F91FF90EF90DF90CF9008954A
:1002F00083B7816083BF0895CF92DF92EF92FF9220
:10030000C0908301D0908401E0908501F090860137
:1003100091E080E021E030E0A901092E02C0440F05
:10032000551F0A94E2F7662757FD6095762F4C21FA
:100330005D216E217F21411551056105710511F087
:100340009FE181E09F5F903239F790938801FF90A1
:10035000EF90DF90CF9008959091820121E030E0FE
:1003600002C0220F331F8A95E2F7662311F0292B72
:1003700002C020952923209382010895AC01FC013D
:10038000EE59FF4FA081B181A80FB91F6C93208156
:100390003181DC01A05ABF4F8D919C91119701973B
:1003A0002817390751F0808191818F35910589F4A3
:1003B0008D919C911197009761F44C595F4FDA0130
:1003C0008C91882321F005C0118210820AC080E040
:1003D0000895808191810196918380838036910573
:1003E00099F381E008951F93CF93DF93162FEC01CB
:1003F000CB59DF4FCE01612F0E94BE018823D1F37C
:1004000080919A00806280939A00DF91CF911F9132
:1004100008952F923F924F925F926F927F928F92A8
:100420009F92AF92BF92CF92DF92EF92FF920F9383
:100430001F93CF93DF93CDB7DEB760970FB6F894D5
:10044000DEBF0FBECDBF1C016A017B01122F41151B
:1004500051056105710531F00DC060E20E94F301A4
:100460000F5F01C001E0C1010117B8F360E30E9412
:10047000F30168C077FF0DC08DE28983F094E094AA
:10048000D094C094C11CD11CE11CF11C115001E09E
:1004900001C000E08AE090E09E878D87812C2AECE5
:1004A000922E2AE9A22E2BE3B22E3AE0432E512CB3
:1004B000612C712CC814D904EA04FB04DCF0E1E0DF
:1004C000F0E0EC0FFD1FE00FF11DF88BEF87C70187
:1004D000B601A50194010E94C30BCA01B901A30191
:1004E00092010E94C30B605DEF85F88960830F5F06
:1004F00011111150C501B401A30192010E94C30B57
:1005000049015A018D859E8501979E878D870097A9
:1005100089F6CC2405C0C10160E20E94F301C394B6
:10052000C116C9F74E010894811C911C640106C0D4
:10053000F60161916F01C1010E94F3018C2D8819B0
:100540008017B0F360960FB6F894DEBF0FBECDBF34
:10055000DF91CF911F910F91FF90EF90DF90CF909F
:10056000BF90AF909F908F907F906F905F904F90D3
:100570003F902F900895CF93DF93EC0104C086E263
:1005800093E00E94F30169916623C9F7DF91CF914F
:1005900008951F920F920FB60F920BB60F9211246F
:1005A0002F933F934F935F936F937F938F939F937B
:1005B000AF93BF93CF93EF93FF93C0919C00809133
:1005C0009B0084FD23C086E293E06C2F0E94BE0155
:1005D00080911404E82FF0E0E258FE4F9081C91793
:1005E00099F48F5F80931404843081F410929B00FF
:1005F00010929A0010929D0010929900109298000B
:10060000F0EFE0E0099402C010921404FF91EF9122
:10061000CF91BF91AF919F918F917F916F915F919A
:100620004F913F912F910F900BBE0F900FBE0F90E7
:100630001F901895AC01FC01EE59FF4F20813181CC
:10064000FC01E05AFF4F808191812817390751F44E
:100650000190F081E02DE40FF51F80810895118253
:1006600010820895A081B181A40FB51F8C912081C3
:1006700031812F5F3F4F318320832036310589F749
:10068000EECFAC01FC01EE59FF4FDC01A05ABF4F89
:10069000808191812D913C91119782179307C1F32D
:1006A000CA010E941A0308953F924F925F926F927F
:1006B0007F928F929F92AF92BF92CF92DF92EF92F2
:1006C000FF920F931F93CF93DF9310928801C1E0A5
:1006D000D0E0A6C086E293E00E944103082F482F95
:1006E00050E060E070E086E293E02091F0030E9429
:1006F00009028BE091E00E94BB021092870110E09A
:1007000073C0282F30E0A80102C0559547958A95FF
:10071000E2F7FA01E170F07040FF29C040918801D2
:1007200050E0A3E0440F551FAA95E1F7420F531F75
:10073000CE0102C0880F991F4A95E2F7AC016627E7
:1007400057FD6095762F8091830190918401A0914F
:100750008501B0918601842B952BA62BB72B809316
:10076000830190938401A0938501B0938601309713
:1007700071F54091880150E0F3E0440F551FFA9560
:10078000E1F7420F531F9E0102C0220F331F4A950B
:10079000E2F7A90140955095662757FD6095762FA1
:1007A0008091830190918401A0918501B09186018F
:1007B00084239523A623B7238093830190938401F8
:1007C000A0938501B093860185E091E002C080E0AE
:1007D00091E00E94BB028EE091E00E94BB028091FA
:1007E00087018F5F8093870180918701883009F0AE
:1007F00088CF40918301509184016091850170916F
:10080000860186E293E02091F0030E9409028BE0CA
:1008100091E00E94BB02809188018F5F80938801E4
:1008200080918801843009F055CF1092880158C01A
:1008300086E293E00E944103C82F482F50E060E019
:1008400070E086E293E02091F0030E9409028BE0C1
:1008500091E00E94BB0210928701D0E025C0BE014A
:10086000082E02C0759567950A94E2F76170707062
:100870000E94AC01CE010090870102C0959587953A
:100880000A94E2F780FF03C080E091E002C085E0B7
:1008900091E00E94BB028EE091E00E94BB02809139
:1008A00087018F5F80938701809187018830B9F637
:1008B0004091820150E060E070E086E293E0209198
:1008C000F0030E9409028BE091E00E94BB028BE0E2
:1008D00091E00E94BB02809188018F5F8093880124
:1008E00080918801813009F0A3CF10928801C1E086
:1008F000D0E01FC0AE0102C0440F551F8A95E2F739
:10090000CA01AA2797FDA095BA2F88219921AA216B
:10091000BB210097A105B10519F080E091E002C06C
:1009200085E091E00E94BB02809188018F5F8093F7
:100930008801809188018090830190908401A0902B
:100940008501B09086018032A9F6CC24DD247601A1
:100950002091820130E040E050E060E070E080E013
:1009600090E000E20E94D00A280DE1E0281508F08E
:10097000E0E0390DA1E0391508F0A0E03E2E330E7D
:10098000E1E0331608F0E0E0AE2B4A0DB1E04A1585
:1009900008F0B0E0A40F31E0A41708F030E0B32B6A
:1009A0005B0DC1E05B1508F0C0E0B50F31E0B51795
:1009B00008F030E0C32B31E06C1508F030E0C60FD2
:1009C00041E0C61708F040E0342B41E07D1508F007
:1009D00040E0632F670F31E0671708F030E0432BEA
:1009E00051E08E1508F050E0E42EE80E31E0E816F4
:1009F00008F030E0352B390FBB2440E050E070E0C8
:100A0000D0E010E000E08824FF24E1E0CE2ED12CDD
:100A100017C0EB2DF0E0E658FE4FC601008002C083
:100A2000880F991F0A94E2F7E92FEE0FEE0B482B7F
:100A3000592B7E2BDE2B1E2B0E2B8E2AFE2AB394D7
:100A400084E0B81631F780E0B22EE1E0F0E0082E45
:100A500002C0EE0FFF1F0A94E2F79E2FDF2EFF0F5A
:100A6000FF0BE92FEB214D2C43205F2E5A226F2ED6
:100A70006B227F2E7C229F2E9622AF2EAE20CF2E71
:100A8000C32221E0E429E529E629E729E929EA2921
:100A9000EC2909F420E09423D5226F2E67227F2EC3
:100AA0007D229F2E9122AF2EA022CF2EC820FF2183
:100AB000E1E09D299629972999299A299C299F2B1C
:100AC00009F0E0E02E1739F0883219F4809388019C
:100AD00006C08F5FBACF80938801883209F480E026
:100AE000DF91CF911F910F91FF90EF90DF90CF900A
:100AF000BF90AF909F908F907F906F905F904F903E
:100B00003F9008951F920F920FB60F920BB60F925F
:100B100011242F933F934F935F936F937F938F9302
:100B20009F93AF93BF93EF93FF932091ED03309189
:100B3000EE038091EB039091EC032817390731F411
:100B400080919A008F7D80939A0006C08BE893E095
:100B50000E941A0380939C00FF91EF91BF91AF9187
:100B60009F918F917F916F915F914F913F912F91C5
:100B70000F900BBE0F900FBE0F901F901895AC01F9
:100B8000FC01EE59FF4FA081B181A80FB91F6C93F2
:100B900020813181DC01A05ABF4F8D919C9111972A
:100BA00001972817390751F0808191818F35910580
:100BB00089F48D919C911197009761F44C595F4F86
:100BC000DA018C91882321F005C0118210820AC0BD
:100BD00080E00895808191810196918380838036A1
:100BE000910599F381E008951F93CF93DF93162F1A
:100BF000EC01CB59DF4FCE01612F0E94BF05882346
:100C0000D1F3559ADF91CF911F9108951F920F92C2
:100C10000FB60F920BB60F9211242F933F934F9361
:100C20005F936F937F938F939F93AF93BF93CF9374
:100C3000EF93FF93CCB15C9907C088E592E06C2FED
:100C40000E94BF058823C9F3FF91EF91CF91BF9117
:100C5000AF919F918F917F916F915F914F913F9154
:100C60002F910F900BBE0F900FBE0F901F901895F5
:100C7000AC01FC01EE59FF4F20813181FC01E05AAB
:100C8000FF4F808191812817390751F40190F0813D
:100C9000E02DE40FF51F80810895118210820895E0
:100CA000A081B181A40FB51F8C91208131812F5F6C
:100CB0003F4F318320832036310589F7EECFCF9324
:100CC000DF93EB01FC01EE59FF4F40815181FC01A4
:100CD000E05AFF4F208131814217530721F480E011
:100CE000DF91CF9108950E943806888381E0F8CF84
:100CF0004F925F926F927F928F929F92AF92BF922C
:100D0000CF92DF92EF92FF920F931F93CF93DF93D7
:100D100000D0CDB7DEB76C01762E29016E2CE02E07
:100D2000262F2E5F240F200F30E006C0840D951D66
:100D3000FC018081280F3F5F832F90E0801791078F
:100D4000A8F3F22EF094198283B1837F846083B973
:100D500088E08AB9C6016FEF4A830E94F405C60194
:100D60006FEF0E94F405C601672D0E94F4056E2DF9
:100D70006E5FC6010E94F405C6014A81642F0E947D
:100D8000F405A42C820106C0F80161918F01C6010F
:100D90000E94F405802F8A198E15B0F3C6016F2DBD
:100DA0000E94F405F601E953FF4FD601AB53BF4F44
:100DB000808191812D913C9111978217930709F0C1
:100DC0007CC07DC0C601BE016F5F7F4F0E945F0681
:100DD0008823C1F389818F3FA9F7C601BE016F5FE8
:100DE0007F4F0E945F068823C1F389818F3FA9F757
:100DF000C601BE016F5F7F4F0E945F068823C1F36B
:100E000089818715A9F7C601BE016F5F7F4F0E94D8
:100E10005F068823C1F30981102F1150520114C0BD
:100E20000894E11CF11CE814F90421F4115008C0E5
:100E3000EE24FF24C601B5010E945F06882381F3DA
:100E40000894A11CB11C0150013091F71615E9F46A
:100E50008981780E40E090E0019706C0240D351D91
:100E6000F9012081720E4F5F242F30E028173907D7
:100E7000A9F77094C601BE016F5F7F4F0E945F06A5
:100E80008823C1F38981781619F08FEF9FEF02C094
:100E900080E090E00F900F90DF91CF911F910F9124
:100EA000FF90EF90DF90CF90BF90AF909F908F908A
:100EB0007F906F905F904F9008955E9B79CF5E9A80
:100EC0000E94FF007FCF8F929F92AF92BF92CF92EE
:100ED000DF92EF920F931F93CF93DF9300D00F9287
:100EE000CDB7DEB749832A833B8343E09E012F5F62
:100EF0003F4F03E010E0EE24E394B4EFAB2EB1E0FB
:100F0000BB2EC12CD12C54EF852E51E0952E0E9482
:100F100078062981009711F4822F02C0822F806801
:100F200090E00F900F900F90DF91CF911F910F9154
:100F3000EF90DF90CF90BF90AF909F908F900895EB
:100F4000109288011AC06E2F6F5F6093F201F0E07B
:100F5000EE0FFF1FE457FF4F2591349188E592E093
:100F600040E20E946307682F83EF91E00E94BF0573
:100F7000809188018F5F80938801E0918801E7303C
:100F800011F70895CF93DF939C01C2EFD1E088E57C
:100F900092E06091F2014EE10E946307682FCE015A
:100FA00001960E94BF05CE01DF91CF910895CF93A6
:100FB000DF939C01C2EFD1E088E592E06091F201FD
:100FC0004EE10E946307682FCE0101960E94BF0583
:100FD000CE01DF91CF9108958F929F92AF92BF92F1
:100FE000CF92DF92EF920F931F93CF93DF9300D0B6
:100FF000CDB7DEB749832A8343E09E012F5F3F4F81
:1010000002E010E0EE24E394E4EFAE2EE1E0BE2E29
:10101000C12CD12CF4EF8F2EF1E09F2E0E94780688
:101020002981009711F4822F02C0822F806890E0FE
:101030000F900F90DF91CF911F910F91EF90DF9064
:10104000CF90BF90AF909F908F900895109288019D
:1010500013C06F5F6093F20188E592E048E120E001
:101060000E94EC07682F83EF91E00E94BF058091FA
:1010700088018F5F8093880160918801673049F70C
:1010800008956F927F928F929F92AF92BF92CF926C
:10109000DF92EF92FF920F931F93CF93DF9300D0D5
:1010A000CDB7DEB78FEF9CE4A8E081509040A04020
:1010B000E1F700C00000FF24F3947724739466E204
:1010C000662EF092F2017A82698288E592E06F2DB5
:1010D00042E09E012F5F3F4F02E010E0A2E0EA2EC7
:1010E000B4EFAB2EB1E0BB2EC12CD12C54EF852E2A
:1010F00051E0952E0E9478066981009709F060689A
:1011000069831A8183EF91E00E94BF05112309F4DE
:10111000F39497E0F916A9F60F900F90DF91CF9115
:101120001F910F91FF90EF90DF90CF90BF90AF9005
:101130009F908F907F906F90089586E08093F2014A
:1011400088E092E00E94C20787E08093F20188EF76
:1011500091E00E94C2070E944108089586E08093B2
:10116000F20186EE91E00E94C20787E08093F201CF
:1011700084E292E00E94C2070E944108089591E033
:101180009093F20190E0880F991F88559F4FFC01C2
:10119000859194910E94D7070E94410808950E946A
:1011A000AE088091820180FF04C088E080937A01BC
:1011B00003C088E080937B010E949D0888E00E9424
:1011C000BF080E94AE080895CF93DF93D82FC62F93
:1011D0000E94BF08D350D53008F065C080E191E08F
:1011E0000E94BB028BE091E00E94BB0284E08093EE
:1011F0008701D2E02DC0D09388011FC08093F201F7
:101200002091870190E00297FC01EE0FFF1F43E061
:10121000880F991F4A95E1F7E80FF91FE20FF11DBA
:10122000EE0FFF1FE651FF4F859194910E94D70763
:10123000809188018F5F8093880180918801883038
:10124000E9F60E944108809187018F5F80938701B2
:1012500080918701863079F60E94AE08CC2311F088
:101260000E949D0882E080938801C4E1D0E016C00E
:101270008093F20190E002978C9FF0018D9FF00D1A
:101280009C9FF00D1124EE50FF4F859194910E9488
:10129000D707809188018F5F8093880180918801B2
:1012A000883031F75CC081E080938701D2E02DC0A7
:1012B000D09388011FC08093F2012091870190E0B4
:1012C0000297FC01EE0FFF1FB3E0880F991FBA953C
:1012D000E1F7E80FF91FE20FF11DEE0FFF1FE651D6
:1012E000FF4F859194910E94D707809188018F5F6D
:1012F00080938801809188018830E9F60E94410836
:10130000809187018F5F809387018091870183306F
:1013100079F60E94AE08CC2311F00E949D0882E06D
:1013200080938801C4E1D0E016C08093F20190E080
:1013300002978C9FF0018D9FF00D9C9FF00D112462
:10134000E451FF4F859194910E94D70780918801C5
:101350008F5F8093880180918801883031F70E94E7
:101360004108DF91CF91089560E00E94E40808955C
:1013700061E00E94E40808951092880114C06F5F34
:101380006093F20188E592E042E228EE33E00E94A9
:101390006307682F83EF91E00E94BF058091880169
:1013A0008F5F8093880160918801673041F71092C8
:1013B000880113C06F5F6093F20188E592E048E115
:1013C00021E00E94EC07682F83EF91E00E94BF05A7
:1013D000809188018F5F80938801609188016730D8
:1013E00049F70E94410808951092880112C08E2F7B
:1013F0008F5F8093F201F0E0EE0FFF1FE656FF4F84
:10140000859194910E94D707809188018F5F809386
:101410008801E0918801E73051F70E944108089562
:101420000E9426088099FECF0E94BC098CE191E0C1
:101430000E94BB028BE091E00E94BB020E947801F7
:1014400081E291E00E94BB028BE091E00E94BB022E
:101450000E94A00782E391E00E94BB028BE091E032
:101460000E94BB020E94F40985E491E00E94BB0245
:101470008BE091E00E94BB020E94410885E591E06B
:101480000E94BB028BE091E00E94BB020E945403C9
:10149000482F50E060E070E086E293E02091F00396
:1014A0000E9409028BE091E00E94BB028FE591E06F
:1014B0000E94BB028BE091E00E94BB02C6E082B7B3
:1014C0006C2F0E94B70BD92F492F4F5F50E04C5F14
:1014D0005F4F662757FD6095762F86E293E0209157
:1014E000F0030E9409028BE091E00E94BB028D2F65
:1014F0008B5F0E94B80982B76C2F0E94B70BD92F5F
:10150000492F4F5F50E04C5F5F4F662757FD609556
:10151000762F86E293E02091F0030E9409028BE08F
:1015200091E00E94BB028D2F8B5F0E94B409C7CF50
:101530001F920F920FB60F920BB60F9211242F939A
:101540003F934F935F936F937F938F939F93AF934B
:10155000BF93EF93FF9320911F033091200380915D
:101560001D0390911E032817390711F4559805C0E3
:101570008DEB92E00E9438068CB9FF91EF91BF91FC
:10158000AF919F918F917F916F915F914F913F911B
:101590002F910F900BBE0F900FBE0F901F901895BC
:1015A000CF92DF92EF92FF920F93CF93DF93CDB75D
:1015B000DEB760970FB6F894DEBF0FBECDBF002335
:1015C00009F45AC029873A874B875C876D877E87E5
:1015D0008F87988B80E2801B49855A856B857C8537
:1015E0001816B4F019821A821B821C82992787FD73
:1015F0009095909581959F4F04C0440F551F661F8D
:10160000771F8A95D2F74D835E836F8378872CC0CE
:101610006A017B01002E04C0CC0CDD1CEE1CFF1CFB
:101620000A94D2F7C982DA82EB82FC826A017B01DA
:1016300004C0F694E794D794C7948A95D2F7D7015B
:10164000C6014D855E856F85788904C0440F551F9E
:10165000661F771F0A95D2F7842B952BA62BB72BE5
:101660008D839E83AF83B88729813A814B815C81CA
:101670006D817E818F81988560960FB6F894DEBF6C
:101680000FBECDBFDF91CF910F91FF90EF90DF9014
:10169000CF9008958FE784BB8EE785BB8CE082B93D
:1016A00081EF83B980E281BB81E282BB1092EF03BC
:1016B00010928A03D2E0D0939B0098E990939A000D
:1016C00086E080939D001092980022E2209399007A
:1016D000C1E0C093F003C093F103C09313041092D0
:1016E00021031092BC02DBB99AB980939500109245
:1016F0009000C9B982B18C6082B90E94FF00C7BF57
:10170000D3BF789468EE73E080E090E00E94E1003F
:101710008FE691E00E94BB022091ED033091EE0331
:101720008091EB039091EC032817390721F0809109
:101730009B0086FFF1CF80919B00806480939B008B
:101740000E94100A80E006C0E82FF0E0EE50FC4F47
:1017500010828F5F8032C1F71092120481E0809373
:1017600057028093F10184E680938C010895991BC0
:1017700079E004C0991F961708F0961B881F7A9588
:10178000C9F78095089597FB092E05260ED057FDC1
:1017900004D014D00AD0001C38F4509540953095F0
:1017A00021953F4F4F4F5F4F0895F6F790958095E5
:1017B000709561957F4F8F4F9F4F0895A1E21A2E2C
:1017C000AA1BBB1BFD010DC0AA1FBB1FEE1FFF1FE5
:1017D000A217B307E407F50720F0A21BB30BE40B35
:1017E000F50B661F771F881F991F1A9469F760957C
:1017F0007095809590959B01AC01BD01CF01089536
:0C1800000790F691E02D0994F894FFCFBA
:10180C00747275650066616C7365000A0D005F008B
:10181C006E657A617361686E757465006A6564756E
:10182C00006B6F73746B61206E6173746176656E9F
:10183C006100727963686C6F7374206E617374618C
:10184C0076656E61007A616B6C61646E6920706F95
:10185C007A6963650063656B656A202E2E2E0061C4
:10186C006B7475616C697A756A20706F6C65000AAF
:10187C000A0D20206F6B200A0D000001080923239C
:02188C00232314
:00000001FF
