:100000000C9447000C9476000C9476000C947600C7
:100010000C9476000C9476000C9476000C94760088
:100020000C9476000C9476000C9476000C94760078
:100030000C9476000C9476000C9476000C94760068
:100040000C9408010C9476000C9460020C94190531
:100050000C9476000C9476000C9476000C94760048
:100060000C9476000C9476000C9476000C94760038
:100070000C9476000C9476000C94C8010C948A00C1
:100080000C9476000C9476000C947600AB05112449
:100090001FBECFEFD0E1DEBFCDBF12E0A0E0B1E0E8
:1000A000ECE8FBE000E00BBF02C007900D92AA3F16
:1000B000B107D9F715E0AAEFB2E001C01D92A73849
:1000C000B107E1F710E0CEE8D0E000E006C02297EB
:1000D0000109FE010BBF0E94C005CC38D10780E0AA
:1000E0000807A9F70E9451050C94C4050C94000060
:1000F0000F931F938B019C0137FF07C0309520950C
:10010000109501951F4F2F4F3F4FB801C9011F9107
:100110000F9108951F920F920FB60F920BB60F9288
:1001200011242F933F938F939F93EF93FF932091ED
:100130005F053091600580915D0590915E052817FF
:10014000390771F407C0208129C010925E05109212
:100150005D0524C080919A008F7D80939A0020C015
:1001600020915F053091600580915D0590915E055D
:10017000E0915D05F0915E05E350FB4F28173907CC
:1001800011F3208180915D0590915E050196909319
:100190005E0580935D0580369105B9F220939C0041
:1001A000FF91EF919F918F913F912F910F900BBEF7
:1001B0000F900FBE0F901F901895AB01BC014250DD
:1001C000504060407040000000000000000000004F
:1001D000000080E090E0DC0184179507A607B707D0
:1001E00048F4000000000000000000000196A11D7E
:1001F000B11DF2CF089583B1837F886083B96AE02F
:1002000070E080E090E00E94DD0080E98AB9089506
:100210001F920F920FB60F9211248F939F93AF935B
:10022000BF938091940490919504A0919604B0910D
:10023000970480589F4FAF4FBF4F80939404909383
:100240009504A0939604B0939704BF91AF919F91AA
:100250008F910F900FBE0F901F901895CF92DF9245
:10026000EF92FF920F931F93FC0180919404909161
:100270009504A0919604B091970422B730E035958B
:100280002795A901662757FD6095762F840F951F46
:10029000A61FB71FC080D180E280F38040919404F4
:1002A00050919504609196047091970422B730E0C4
:1002B00035952795F9018F01222717FD2095322FBB
:1002C000040F151F261F371F081B190B2A0B3B0B8A
:1002D0000C151D052E053F0508F31F910F91FF908A
:1002E000EF90DF90CF9008950895AC01FC01EE5996
:1002F000FF4FA081B181A80FB91F6C93208131817C
:10030000DC01A05ABF4F8D919C911197019728173E
:10031000390751F0808191818F35910589F48D9154
:100320009C911197009761F44C595F4FDA018C91C1
:10033000882321F005C0118210820AC080E0089550
:10034000808191810196918380838036910599F314
:1003500081E00895FF920F931F93CF93DF93EB01FA
:100360008C010B591F4F0BC0C8016F2D0E947501E6
:100370008823D1F380919A00806280939A00F9904B
:10038000FF2091F7DF91CF911F910F91FF9008957A
:100390001F920F920FB60F920BB60F9211242F934C
:1003A0003F934F935F936F937F938F939F93AF93FD
:1003B000BF93CF93EF93FF93C0919C0080919B00DC
:1003C00084FD23C088E994E06C2F0E947501809120
:1003D0008605E82FF0E0EA50FD4F9081C91799F4A7
:1003E0008F5F80938605843081F410929B00109279
:1003F0009A0010929D001092990010929800F0EFD0
:10040000E0E0099402C010928605FF91EF91CF9130
:10041000BF91AF919F918F917F916F915F914F911C
:100420003F912F910F900BBE0F900FBE0F901F901A
:100430001895AC01FC01EE59FF4FA081B181A80FC6
:10044000B91F6C9320813181DC01A05ABF4F8D917F
:100450009C91119701972817390751F0808191815C
:100460008F35910589F48D919C911197009761F4D6
:100470004C595F4FDA018C91882321F005C011821D
:1004800010820AC080E00895808191810196918355
:1004900080838036910599F381E008951F93CF936F
:1004A000DF93162FEC01CB59DF4FCE01612F0E9455
:1004B00019028823D1F3559ADF91CF911F910895A6
:1004C0001F920F920FB60F920BB60F9211242F931B
:1004D0003F934F935F936F937F938F939F93AF93CC
:1004E000BF93CF93EF93FF93CCB15C9907C08AEC95
:1004F00093E06C2F0E9419028823C9F3FF91EF91BA
:10050000CF91BF91AF919F918F917F916F915F91AB
:100510004F913F912F910F900BBE0F900FBE0F90F8
:100520001F901895AC01FC01EE59FF4F20813181DD
:10053000FC01E05AFF4F808191812817390751F45F
:100540000190F081E02DE40FF51F80810895118264
:1005500010820895A081B181A40FB51F8C912081D4
:1005600031812F5F3F4F318320832036310589F75A
:10057000EECFCF93DF93EB01FC01EE59FF4F4081AB
:100580005181FC01E05AFF4F20813181421753070E
:1005900021F480E0DF91CF9108950E949202888338
:1005A00081E0F8CF4F925F926F927F928F929F92ED
:1005B000AF92BF92CF92DF92EF92FF920F931F9371
:1005C000CF93DF9300D0CDB7DEB76C01762E290133
:1005D0006E2CE02E262F2E5F240F200F30E006C059
:1005E000840D951DFC018081280F3F5F832F90E0D3
:1005F00080179107A8F3F22EF094198283B1837FBC
:10060000846083B988E08AB9C6016FEF4A830E948B
:100610004E02C6016FEF0E944E02C601672D0E9476
:100620004E026E2D6E5FC6010E944E02C6014A81C7
:10063000642F0E944E02A42C820106C0F801619131
:100640008F01C6010E944E02802F8A198E15B0F3C9
:10065000C6016F2D0E944E02F601E953FF4FD601ED
:10066000AB53BF4F808191812D913C91119782179F
:10067000930709F07CC07DC0C601BE016F5F7F4F4C
:100680000E94B9028823C1F389818F3FA9F7C6016F
:10069000BE016F5F7F4F0E94B9028823C1F3898139
:1006A0008F3FA9F7C601BE016F5F7F4F0E94B9025D
:1006B0008823C1F389818715A9F7C601BE016F5F41
:1006C0007F4F0E94B9028823C1F30981102F115076
:1006D000520114C00894E11CF11CE814F90421F43F
:1006E000115008C0EE24FF24C601B5010E94B902D2
:1006F000882381F30894A11CB11C0150013091F7AB
:100700001615E9F48981780E40E090E0019706C063
:10071000240D351DF9012081720E4F5F242F30E02A
:1007200028173907A9F77094C601BE016F5F7F4F84
:100730000E94B9028823C1F38981781619F08FEFDE
:100740009FEF02C080E090E00F900F90DF91CF917B
:100750001F910F91FF90EF90DF90CF90BF90AF90DF
:100760009F908F907F906F905F904F9008955E9BC9
:1007700079CF5E9A0E94FB007FCF8F929F92AF92BB
:10078000BF92CF92DF92EF920F931F93CF93DF939D
:1007900000D00F92CDB7DEB749832A833B8343E075
:1007A0009E012F5F3F4F03E010E0EE24E39454EFEF
:1007B000A52E51E0B52EC12CD12C74EF872E71E0FF
:1007C000972E0E94D2022981009711F4822F02C035
:1007D000822F806890E00F900F900F90DF91CF9163
:1007E0001F910F91EF90DF90CF90BF90AF909F90AF
:1007F0008F900895EF92FF920F931F93CF93DF9303
:1008000000E010E0EE24FF24C82FD0E0CC0FDD1F65
:10081000C85DDE4F18C000936403FE01EE0DFF1D9E
:10082000208131818AEC93E0602F4EE10E94BD036C
:10083000682F85E693E00E9419020F5F1F4F82E444
:1008400090E0E80EF91E0630110529F7DF91CF91EF
:100850001F910F91FF90EF900895CF93DF9310C0F9
:10086000C09364038AEC93E06C2F40E224EF31E004
:100870000E94BD03682F85E693E00E94190221962D
:10088000C630D10569F7DF91CF9108953F924F921D
:100890005F926F927F928F929F92AF92BF92CF9210
:1008A000DF92EF92FF920F931F93CF93DF9300D0CD
:1008B00000D00F92CDB7DEB781E08093FA028FEFC0
:1008C00091EEA4E081509040A040E1F700C000000C
:1008D00013E0F12E3E010894611C711C02E0502EC1
:1008E00086E2482E332433946091FA0260936403C5
:1008F000D301EF2D1D92EA95E9F75A8249828AECDD
:1009000093E042E0930102E010E0F3E0EF2EA4EF69
:10091000AA2EA1E0BA2EC12CD12CB4EF8B2EB1E0BF
:100920009B2E0E94D2026981009709F0606869835A
:10093000FB81FD831C820A8110E08C819D81082B44
:10094000192B85E693E00E9419020B30110518F06F
:100950003092FA0205C08091FA028F5F8093FA020A
:100960008091FA02863009F0BFCF0F900F900F9060
:100970000F900F90DF91CF911F910F91FF90EF900B
:10098000DF90CF90BF90AF909F908F907F906F90AF
:100990005F904F903F9008951F93CF93DF93CAE6E7
:1009A000D1E011E010936403288139818AEC93E04F
:1009B000612F4EE10E94BD03682F85E693E00E94FF
:1009C00019021F5FCE5BDF4F163061F70E944604AD
:1009D00088E994E060E071E00E94AA0188E994E06F
:1009E00067E071E00E94AA01DF91CF911F91089505
:1009F000C4E00E94CC04C09364038AEC93E064E0FA
:100A00004EE120E332E00E94BD03682F85E693E0CB
:100A10000E9419020E94460488E994E06AE071E0AD
:100A20000E94AA0188E994E067E071E00E94AA01AF
:100A3000E0CF1F920F920FB60F920BB60F921124B8
:100A40002F933F934F935F936F937F938F939F93D6
:100A5000AF93BF93EF93FF93209191043091920451
:100A600080918F04909190042817390711F45598BC
:100A700005C08FE294E00E9492028CB9FF91EF9141
:100A8000BF91AF919F918F917F916F915F914F91A6
:100A90003F912F910F900BBE0F900FBE0F901F90A4
:100AA00018958FE784BB8EE785BB8CE082B981EF18
:100AB00083B980E281BB81E282BB10926105109212
:100AC000FC04D2E0D0939B0098E990939A0086E0D2
:100AD00080939D001092980022E220939900C1E03B
:100AE000C0936205C0936305C0938505109293047B
:100AF00010922E04DBB99AB9809395001092900061
:100B0000C9B982B18C6082B90E94FB00C7BFD3BF54
:100B1000789468EE73E080E090E00E94DD0088E960
:100B200094E06FE071E00E94AA0120915F0530918E
:100B3000600580915D0590915E052817390721F0C9
:100B400080919B0086FFF1CF80919B008064809311
:100B50009B000E94F80480E006C0E82FF0E0EC590A
:100B6000FA4F10828F5F8032C1F71092840581E0C6
:100B70008093C9038093630384E68093FE02089503
:0C0B80000790F691E02D0994F894FFCF47
:100B8C007A696A752035000A0D0061686F6A000A7F
:100B9C000A0D20206F6B200A0D00640064006400B5
:100BAC006400640064006400000232000E004B021A
:100BBC002A02FE01D401AC01F603CC03A7037C038B
:100BCC005A0333030C03E702BC02930272024D0278
:100BDC002402FE01D601B201880160013C011B0117
:100BEC00EF00CA00A8007E005800000200020002BC
:100BFC0000020002000200020002000200020002D9
:100C0C0000020002000200020002000200020002C8
:100C1C0000020002000200020002000200020002B8
:100C2C0000020002000200020002000200020002A8
:100C3C000002000200020002000200020002000298
:100C4C000002000200020002000200020002000288
:100C5C000002000200020002000200020002000278
:100C6C000002000200020002000200020002000268
:100C7C000002000200020002000200020002000258
:100C8C000002000200020002000200020002000248
:100C9C000002000200020002000200020002000238
:100CAC000002000200020002000200020002000228
:100CBC000002000200020002000200020002000218
:100CCC000002000200020002000200020002000208
:100CDC0000020002000200020002000200020002F8
:100CEC0000020002000200020002000200020002E8
:100CFC0000020002000200020002000200020002D8
:100D0C0000020002000200020002000200020002C7
:100D1C0000020002000200020002000200020002B7
:100D2C0000020002000200020002000200020002A7
:100D3C000002000200020002000200020002000297
:100D4C000002000200020002000200020002000287
:100D5C000002000200020002000200020002000277
:100D6C000002000200020002000200020002000267
:0A0D7C0000020002000223232323DB
:00000001FF
