:100000000C9435010C9464010C9464010C9464010B
:100010000C9464010C9464010C9464010C946401CC
:100020000C9464010C9464010C9464010C946401BC
:100030000C9464010C9464010C9464010C946401AC
:100040000C94F6010C9464010C942E040C94C206DA
:100050000C9464010C9464010C9464010C9464018C
:100060000C9464010C9464010C9464010C9464017C
:100070000C9464010C9464010C9496030C94780124
:100080000C9464010C9464010C946401FF03FA0065
:10009000FA00FF03FA00FA00FA00000232000E0034
:1000A0004B022A02FE01D401AC01F603CC03A703E4
:1000B0007C035A0333030C03E702BC02930272026F
:1000C0004D022402FE01D601B201880160013C010B
:1000D0001B01EF00CA00A8007E00580000020002C9
:1000E0000002000200020002000200020002000200
:1000F00000020002000200020002000200020002F0
:1001000000020002000200020002000200020002DF
:1001100000020002000200020002000200020002CF
:1001200000020002000200020002000200020002BF
:1001300000020002000200020002000200020002AF
:10014000000200020002000200020002000200029F
:10015000000200020002000200020002000200028F
:10016000BC022003BC022003BC022003BC0220030B
:10017000BC022003BC022003BC022003BC022003FB
:10018000BC022003BC022003BC022003BC022003EB
:10019000BC022003BC022003BC022003BC022003DB
:1001A000BC02000200020002000200020002000283
:1001B000000200020002000200020002000200022F
:1001C000000200020002000200020002000200021F
:1001D000000200020002000200020002000200020F
:1001E00000020002000200020002000200020002FF
:1001F00000020002000200020002000200020002EF
:1002000000020002000200020002000200020002DE
:1002100000020002000200020002000200020002CE
:1002200000020002000200020002000200020002BE
:1002300000020002000200020002000200020002AE
:10024000000200020002000200020002000200029E
:10025000000200020002000200020002000200028E
:100260000002000200020002540711241FBECFEF5B
:10027000D0E1DEBFCDBF11E0A0E0B1E0E0E7FFE0FC
:1002800000E00BBF02C007900D92A231B107D9F771
:1002900013E0A2E1B1E001C01D92A83CB107E1F773
:1002A00012E0CAE6D2E000E006C022970109FE0192
:1002B0000BBF0E94B207C836D10780E00807A9F734
:1002C0000E94FA060C94B6070C9400000F931F933B
:1002D0008B019C0137FF07C0309520951095019543
:1002E0001F4F2F4F3F4FB801C9011F910F91089524
:1002F0001F920F920FB60F920BB60F9211242F93ED
:100300003F938F939F93EF93FF932091A00330919E
:10031000A10380919E0390919F032817390771F4E0
:1003200007C0208129C010929F0310929E0324C011
:1003300080919A008F7D80939A0020C02091A00325
:100340003091A10380919E0390919F03E0919E03C1
:10035000F0919F03E25CFC4F2817390711F32081CD
:1003600080919E0390919F03019690939F038093A9
:100370009E0380369105B9F220939C00FF91EF9186
:100380009F918F913F912F910F900BBE0F900FBEB9
:100390000F901F901895AB01BC0142505040604037
:1003A000704000000000000000000000000080E03D
:1003B00090E0DC0184179507A607B70748F4000012
:1003C00000000000000000000196A11DB11DF2CF49
:1003D000089583B1837F886083B96AE070E080E02C
:1003E00090E00E94CB0180E98AB908951F920F9294
:1003F0000FB60F9211248F939F93AF93BF93809169
:10040000D5029091D602A091D702B091D80280581F
:100410009F4FAF4FBF4F8093D5029093D602A093CA
:10042000D702B093D802BF91AF919F918F910F9057
:100430000FBE0F901F901895CF92DF92EF92FF9210
:100440000F931F93FC018091D5029091D602A09149
:10045000D702B091D80222B730E035952795A9018F
:10046000662757FD6095762F840F951FA61FB71F2F
:10047000C080D180E280F3804091D5025091D602B5
:100480006091D7027091D80222B730E03595279558
:10049000F9018F01222717FD2095322F040F151F18
:1004A000261F371F081B190B2A0B3B0B0C151D05AC
:1004B0002E053F0508F31F910F91FF90EF90DF90FD
:1004C000CF90089583B7816083BF0895089581E038
:1004D0000895AC01FC01EE59FF4FA081B181A80F36
:1004E000B91F6C9320813181DC01A05ABF4F8D91DF
:1004F0009C91119701972817390751F080819181BC
:100500008F35910589F48D919C911197009761F435
:100510004C595F4FDA018C91882321F005C011827C
:1005200010820AC080E008958081918101969183B4
:1005300080838036910599F381E008951F93CF93CE
:10054000DF93162FEC01CB59DF4FCE01612F0E94B4
:1005500069028823D1F380919A00806280939A0087
:10056000DF91CF911F9108952F923F924F925F920A
:100570006F927F928F929F92AF92BF92CF92DF92B3
:10058000EF92FF920F931F93CF93DF93CDB7DEB718
:1005900060970FB6F894DEBF0FBECDBF1C016A0195
:1005A0007B01122F411551056105710531F00DC018
:1005B00060E20E949E020F5F01C001E0C1010117CD
:1005C000B8F360E30E949E0268C077FF0DC08DE221
:1005D0008983F094E094D094C094C11CD11CE11C98
:1005E000F11C115001E001C000E08AE090E09E871C
:1005F0008D87812C2AEC922E2AE9A22E2BE3B22E93
:100600003AE0432E512C612C712CC814D904EA0411
:10061000FB04DCF0E1E0F0E0EC0FFD1FE00FF11D6A
:10062000F88BEF87C701B601A50194010E947507F9
:10063000CA01B901A30192010E947507605DEF85AF
:10064000F88960830F5F11111150C501B401A30136
:1006500092010E94750749015A018D859E85019777
:100660009E878D87009789F6CC2405C0C10160E282
:100670000E949E02C394C116C9F74E010894811CC2
:10068000911C640106C0F60161916F01C1010E94D5
:100690009E028C2D88198017B0F360960FB6F894DF
:1006A000DEBF0FBECDBFDF91CF911F910F91FF90A5
:1006B000EF90DF90CF90BF90AF909F908F907F9002
:1006C0006F905F904F903F902F9008950F931F93DE
:1006D000CF93DF938C01EB0103C0C8010E949E02FF
:1006E00069916623D1F7DF91CF911F910F91089502
:1006F0000E946202C6E08099FECF82B76C2F0E94F2
:100700006907492F50E04F5F5F4F662757FD60959F
:10071000762F89ED92E02091A3030E94B40289ED27
:1007200092E060E071E00E946603E5CF1F920F92B5
:100730000FB60F920BB60F9211242F933F934F9346
:100740005F936F937F938F939F93AF93BF93CF9359
:10075000EF93FF93C0919C0080919B0084FD23C088
:1007600089ED92E06C2F0E9469028091C703E82F07
:10077000F0E0E25FFE4F9081C91799F48F5F80939C
:10078000C703843081F410929B0010929A0010925B
:100790009D001092990010929800F0EFE0E009940B
:1007A00002C01092C703FF91EF91CF91BF91AF911B
:1007B0009F918F917F916F915F914F913F912F9179
:1007C0000F900BBE0F900FBE0F901F901895AC01AD
:1007D000FC01EE59FF4FA081B181A80FB91F6C93A6
:1007E00020813181DC01A05ABF4F8D919C911197DE
:1007F00001972817390751F0808191818F35910534
:1008000089F48D919C911197009761F44C595F4F39
:10081000DA018C91882321F005C0118210820AC070
:1008200080E0089580819181019691838083803654
:10083000910599F381E008951F93CF93DF93162FCD
:10084000EC01CB59DF4FCE01612F0E94E7038823D3
:10085000D1F3559ADF91CF911F9108951F920F9276
:100860000FB60F920BB60F9211242F933F934F9315
:100870005F936F937F938F939F93AF93BF93CF9328
:10088000EF93FF93CCB15C9907C08BE092E06C2FA3
:100890000E94E7038823C9F3FF91EF91CF91BF91A5
:1008A000AF919F918F917F916F915F914F913F9108
:1008B0002F910F900BBE0F900FBE0F901F901895A9
:1008C000AC01FC01EE59FF4F20813181FC01E05A5F
:1008D000FF4F808191812817390751F40190F081F1
:1008E000E02DE40FF51F8081089511821082089594
:1008F000A081B181A40FB51F8C91208131812F5F20
:100900003F4F318320832036310589F7EECFCF93D7
:10091000DF93EB01FC01EE59FF4F40815181FC0157
:10092000E05AFF4F208131814217530721F480E0C4
:10093000DF91CF9108950E946004888381E0F8CF11
:100940004F925F926F927F928F929F92AF92BF92DF
:10095000CF92DF92EF92FF920F931F93CF93DF938B
:1009600000D0CDB7DEB76C01762E29016E2CE02EBB
:10097000262F2E5F240F200F30E006C0840D951D1A
:10098000FC018081280F3F5F832F90E08017910743
:10099000A8F3F22EF094198283B1837F846083B927
:1009A00088E08AB9C6016FEF4A830E941C04C60121
:1009B0006FEF0E941C04C601672D0E941C046E2D5F
:1009C0006E5FC6010E941C04C6014A81642F0E940A
:1009D0001C04A42C820106C0F80161918F01C6019C
:1009E0000E941C04802F8A198E15B0F3C6016F2D4A
:1009F0000E941C04F601E953FF4FD601AB53BF4FD1
:100A0000808191812D913C9111978217930709F074
:100A10007CC07DC0C601BE016F5F7F4F0E9487040E
:100A20008823C1F389818F3FA9F7C601BE016F5F9B
:100A30007F4F0E9487048823C1F389818F3FA9F7E4
:100A4000C601BE016F5F7F4F0E9487048823C1F3F8
:100A500089818715A9F7C601BE016F5F7F4F0E948C
:100A600087048823C1F30981102F1150520114C04B
:100A70000894E11CF11CE814F90421F4115008C099
:100A8000EE24FF24C601B5010E948704882381F368
:100A90000894A11CB11C0150013091F71615E9F41E
:100AA0008981780E40E090E0019706C0240D351D45
:100AB000F9012081720E4F5F242F30E0281739078B
:100AC000A9F77094C601BE016F5F7F4F0E94870433
:100AD0008823C1F38981781619F08FEF9FEF02C048
:100AE00080E090E00F900F90DF91CF911F910F91D8
:100AF000FF90EF90DF90CF90BF90AF909F908F903E
:100B00007F906F905F904F9008955E9B79CF5E9A33
:100B10000E94E9017FCF8F929F92AF92BF92CF92B6
:100B2000DF92EF920F931F93CF93DF9300D00F923A
:100B3000CDB7DEB749832A833B8343E09E012F5F15
:100B40003F4F03E010E0EE24E39454EFA52E51E074
:100B5000B52EC12CD12C74EF872E71E0972E0E94F8
:100B6000A0042981009711F4822F02C0822F80688F
:100B700090E00F900F900F90DF91CF911F910F9108
:100B8000EF90DF90CF90BF90AF909F908F9008959F
:100B9000CF93DF9391E090933B01C82FD0E024C026
:100BA0006093A501862F90E00197FC01A5E0EE0F70
:100BB000FF1FAA95E1F7E80FF91FEC0FFD1FEE0FDD
:100BC000FF1FE656FF4F259134918BE092E04EE1F6
:100BD0000E948B05682F86EA91E00E94E7038091CE
:100BE0003B018F5F80933B0160913B016630C1F612
:100BF000DF91CF91089581E017C06093A501E62FA2
:100C0000F0E0EE0FFF1FE657FF4F259134918BE088
:100C100092E040E20E948B05682F86EA91E00E94F4
:100C2000E70380913B018F5F80933B0160913B0123
:100C3000663019F708952F923F924F925F926F920C
:100C40007F928F929F92AF92BF92CF92DF92EF925C
:100C5000FF920F931F93CF93DF9300D00F92CDB7E6
:100C6000DEB781E080933B018FEF92E5A7E08150F2
:100C70009040A040E1F700C00000F3E0FF2E3E01ED
:100C80000894611C711CA2E05A2EB6E24B2E6091B2
:100C90003B016093A501D301EF2D1D92EA95E9F781
:100CA0005A8249828BE092E042E0930102E010E038
:100CB00053E0E52E74EFA72E71E0B72EC12CD12C96
:100CC000E4EF8E2EE1E09E2E0E94A0046981009741
:100CD00009F0606869833B8022240A8110E00229C0
:100CE000132986EA91E00E94E7030115110529F412
:100CF00080913B018F5F80933B0180913B01863067
:100D000031F60F900F900F90DF91CF911F910F91BF
:100D1000FF90EF90DF90CF90BF90AF909F908F901B
:100D20007F906F905F904F903F902F90089581E05B
:100D300020C06093A501862F90E00197FC01EE0F83
:100D4000FF1F36E0880F991F3A95E1F7E80FF91F6A
:100D5000E656FF4F259134918BE092E04EE10E94E0
:100D60008B05682F86EA91E00E94E70380913B01A2
:100D70008F5F80933B0160913B016630D1F60E940A
:100D80001B0608951F920F920FB60F920BB60F928B
:100D900011242F933F934F935F936F937F938F9380
:100DA0009F93AF93BF93EF93FF932091D202309123
:100DB000D3028091D0029091D1022817390711F403
:100DC000559805C080E792E00E9460048CB9FF91BD
:100DD000EF91BF91AF919F918F917F916F915F91B3
:100DE0004F913F912F910F900BBE0F900FBE0F9020
:100DF0001F9018958FE784BB8EE785BB8CE082B986
:100E000081EF83B980E281BB81E282BB1092A203B1
:100E100010923D03D2E0D0939B0098E990939A0002
:100E200086E080939D001092980022E22093990022
:100E3000C1E0C093A303C093A403C093C603109260
:100E4000D40210926F02DBB99AB980939500109288
:100E50009000C9B982B18C6082B90E94E901C7BF14
:100E6000D3BF789468EE73E080E090E00E94CB01FD
:100E700089ED92E063E071E00E9466032091A00397
:100E80003091A10380919E0390919F032817390709
:100E900021F080919B0086FFF1CF80919B008064C0
:100EA00080939B000E94780380E006C0E82FF0E06A
:100EB000EB55FC4F10828F5F8032C1F71092C50353
:100EC00081E080930A028093A40184E680933F012D
:100ED0000895991B79E004C0991F961708F0961B96
:100EE000881F7A95C9F78095089597FB092E0526E6
:100EF0000ED057FD04D014D00AD0001C38F4509501
:100F00004095309521953F4F4F4F5F4F0895F6F72D
:100F100090958095709561957F4F8F4F9F4F089565
:100F2000A1E21A2EAA1BBB1BFD010DC0AA1FBB1FED
:100F3000EE1FFF1FA217B307E407F50720F0A21B5F
:100F4000B30BE40BF50B661F771F881F991F1A94CC
:100F500069F760957095809590959B01AC01BD01F6
:100F6000CF0108950790F691E02D0994F894FFCFF2
:100F70000A0D000A0A0D20206F6B200A0D002323A2
:020F8000232329
:00000001FF
