:100000000C9435010C9464010C9464010C9464010B
:100010000C9464010C9464010C9464010C946401CC
:100020000C9464010C9464010C9464010C946401BC
:100030000C9464010C9464010C9464010C946401AC
:100040000C94A3010C9464010C94C9040C945D07F6
:100050000C9464010C9464010C9464010C9464018C
:100060000C9464010C9464010C9464010C9464017C
:100070000C9464010C9464010C9425030C949D036E
:100080000C9464010C9464010C946401FF03FA0065
:10009000FA00FF03FA00FA00FA00000232000E0034
:1000A0004B022A02FE01D401AC01F603CC03A703E4
:1000B0007C035A0333030C03E702BC02930272026F
:1000C0004D022402FE01D601B201880160013C010B
:1000D0001B01EF00CA00A8007E00580000020002C9
:1000E0000002000200020002000200020002000200
:1000F00000020002000200020002000200020002F0
:1001000000020002000200020002000200020002DF
:1001100000020002000200020002000200020002CF
:1001200000020002000200020002000200020002BF
:1001300000020002000200020002000200020002AF
:10014000000200020002000200020002000200029F
:10015000000200020002000200020002000200028F
:10016000BC022003BC022003BC022003BC0220030B
:10017000BC022003BC022003BC022003BC022003FB
:10018000BC022003BC022003BC022003BC022003EB
:10019000BC022003BC022003BC022003BC022003DB
:1001A000BC02000200020002000200020002000283
:1001B000000200020002000200020002000200022F
:1001C000000200020002000200020002000200021F
:1001D000000200020002000200020002000200020F
:1001E00000020002000200020002000200020002FF
:1001F00000020002000200020002000200020002EF
:1002000000020002000200020002000200020002DE
:1002100000020002000200020002000200020002CE
:1002200000020002000200020002000200020002BE
:1002300000020002000200020002000200020002AE
:10024000000200020002000200020002000200029E
:10025000000200020002000200020002000200028E
:100260000002000200020002EF0711241FBECFEFC0
:10027000D0E1DEBFCDBF11E0A0E0B1E0EEE8F0E1FB
:1002800000E00BBF02C007900D92A832B107D9F76A
:1002900013E0A8E2B1E001C01D92AE3DB107E1F765
:1002A00012E0CAE6D2E000E006C022970109FE0192
:1002B0000BBF0E944108C836D10780E00807A9F7A4
:1002C0000E9495070C9445080C9400000F931F930F
:1002D0008B019C0137FF07C0309520951095019543
:1002E0001F4F2F4F3F4FB801C9011F910F91089524
:1002F000AB01BC0142505040604070400000000023
:10030000000000000000000080E090E0DC018417A5
:100310009507A607B70748F400000000000000009A
:1003200000000196A11DB11DF2CF089583B1837F16
:10033000886083B96AE070E080E090E00E94780114
:1003400080E98AB908951F920F920FB60F92112477
:100350008F939F93AF93BF938091EB029091EC02A8
:10036000A091ED02B091EE0280589F4FAF4FBF4F6A
:100370008093EB029093EC02A093ED02B093EE0217
:10038000BF91AF919F918F910F900FBE0F901F90D3
:100390001895CF92DF92EF92FF920F931F93FC017B
:1003A0008091EB029091EC02A091ED02B091EE02EF
:1003B00022B730E035952795A901662757FD60954E
:1003C000762F840F951FA61FB71FC080D180E280B3
:1003D000F3804091EB025091EC026091ED0270913C
:1003E000EE0222B730E035952795F9018F012227DB
:1003F00017FD2095322F040F151F261F371F081BCE
:10040000190B2A0B3B0B0C151D052E053F0508F398
:100410001F910F91FF90EF90DF90CF90089583B7D9
:10042000816083BF0895089581E00895AC01FC01C7
:10043000EE59FF4FA081B181A80FB91F6C932081A5
:100440003181DC01A05ABF4F8D919C91119701978A
:100450002817390751F0808191818F35910589F4F2
:100460008D919C911197009761F44C595F4FDA017F
:100470008C91882321F005C0118210820AC080E08F
:1004800008958081918101969183808380369105C2
:1004900099F381E008951F93CF93DF93162FEC011A
:1004A000CB59DF4FCE01612F0E9416028823D1F372
:1004B00080919A00806280939A00DF91CF911F9182
:1004C00008952F923F924F925F926F927F928F92F8
:1004D0009F92AF92BF92CF92DF92EF92FF920F93D3
:1004E0001F93CF93DF93CDB7DEB760970FB6F89425
:1004F000DEBF0FBECDBF1C016A017B01122F41156B
:1005000051056105710531F00DC060E20E944B029A
:100510000F5F01C001E0C1010117B8F360E30E9461
:100520004B0268C077FF0DC08DE28983F094E094A0
:10053000D094C094C11CD11CE11CF11C115001E0ED
:1005400001C000E08AE090E09E878D87812C2AEC34
:10055000922E2AE9A22E2BE3B22E3AE0432E512C02
:10056000612C712CC814D904EA04FB04DCF0E1E02E
:10057000F0E0EC0FFD1FE00FF11DF88BEF87C701D6
:10058000B601A50194010E940408CA01B901A301A2
:1005900092010E940408605DEF85F88960830F5F17
:1005A00011111150C501B401A30192010E94040868
:1005B00049015A018D859E8501979E878D870097F9
:1005C00089F6CC2405C0C10160E20E944B02C394AD
:1005D000C116C9F74E010894811C911C640106C024
:1005E000F60161916F01C1010E944B028C2D8819A7
:1005F0008017B0F360960FB6F894DEBF0FBECDBF84
:10060000DF91CF911F910F91FF90EF90DF90CF90EE
:10061000BF90AF909F908F907F906F905F904F9022
:100620003F902F9008950F931F93CF93DF938C01EA
:10063000EB0103C0C8010E944B0269916623D1F708
:10064000DF91CF911F910F9108951F920F920FB6D6
:100650000F920BB60F9211242F933F934F935F93FA
:100660006F937F938F939F93AF93BF93CF93EF93AA
:10067000FF93C0919C0080919B0084FD23C08FEE6E
:1006800092E06C2F0E9416028091DD03E82FF0E0CB
:10069000EC5DFE4F9081C91799F48F5F8093DD0365
:1006A000843081F410929B0010929A0010929D0069
:1006B0001092990010929800F0EFE0E0099402C0C7
:1006C0001092DD03FF91EF91CF91BF91AF919F9178
:1006D0008F917F916F915F914F913F912F910F90EB
:1006E0000BBE0F900FBE0F901F901895AC01FC0130
:1006F000EE59FF4F20813181FC01E05AFF4F80818C
:1007000091812817390751F40190F081E02DE40F11
:10071000F51F80810895118210820895A081B18112
:10072000A40FB51F8C91208131812F5F3F4F318302
:1007300020832036310589F7EECF1F920F920FB636
:100740000F920BB60F9211242F933F934F935F9309
:100750006F937F938F939F93AF93BF93EF93FF9389
:100760002091B6033091B7038091B4039091B50303
:100770002817390731F480919A008F7D80939A0071
:1007800006C084E593E00E94760380939C00FF916D
:10079000EF91BF91AF919F918F917F916F915F91F9
:1007A0004F913F912F910F900BBE0F900FBE0F9066
:1007B0001F901895CF93DF93109251014EC0209156
:1007C00051033091520380914F03909150032817A9
:1007D000390709F076C0F3CFCE01022E02C09595FD
:1007E00087950A94E2F781709070E0915101F0E0F2
:1007F00053E0EE0FFF1F5A95E1F7E20FF11DE85DA0
:10080000FE4F8083009719F060E071E002C065E060
:1008100071E08FEE92E00E9413038FEE92E06BE0A6
:1008200071E00E941303809150018F5F809350010B
:1008300020915001283081F68FEE92E06DE071E05A
:100840000E9413038FEE92E066E171E00E941303B1
:10085000809151018F5F80935101809151018530CA
:1008600009F0ADCF1092510127C0109250011BC06A
:10087000F0E043E0EE0FFF1F4A95E1F7E80FF11DAE
:10088000E85DFE4F8081882319F060E071E002C0CE
:1008900065E071E08FEE92E00E94130380915001B9
:1008A0008F5F8093500180915001E0915101883019
:1008B000F9F6EF5FE0935101809151018530A9F67F
:1008C00019C08FEE92E00E947603C82F482F50E0A7
:1008D00060E070E08FEE92E02091B9030E94610227
:1008E0008FEE92E066E171E00E94130310925001D6
:1008F000D0E09ECFDF91CF9108950E940F020E9419
:10090000DA03FDCFAC01FC01EE59FF4FA081B181AC
:10091000A80FB91F6C9320813181DC01A05ABF4F11
:100920008D919C91119701972817390751F080817B
:1009300091818F35910589F48D919C911197009744
:1009400061F44C595F4FDA018C91882321F005C086
:10095000118210820AC080E0089580819181019601
:10096000918380838036910599F381E008951F93E8
:10097000CF93DF93162FEC01CB59DF4FCE01612FC0
:100980000E9482048823D1F3559ADF91CF911F9161
:1009900008951F920F920FB60F920BB60F9211246B
:1009A0002F933F934F935F936F937F938F939F9377
:1009B000AF93BF93CF93EF93FF93CCB15C9907C0F4
:1009C00081E292E06C2F0E9482048823C9F3FF9198
:1009D000EF91CF91BF91AF919F918F917F916F9147
:1009E0005F914F913F912F910F900BBE0F900FBED3
:1009F0000F901F901895AC01FC01EE59FF4F20811C
:100A00003181FC01E05AFF4F80819181281739071D
:100A100051F40190F081E02DE40FF51F80810895DD
:100A2000118210820895A081B181A40FB51F8C910D
:100A3000208131812F5F3F4F318320832036310564
:100A400089F7EECFCF93DF93EB01FC01EE59FF4F17
:100A500040815181FC01E05AFF4F208131814217D2
:100A6000530721F480E0DF91CF9108950E94FB04A9
:100A7000888381E0F8CF4F925F926F927F928F923E
:100A80009F92AF92BF92CF92DF92EF92FF920F931D
:100A90001F93CF93DF9300D0CDB7DEB76C01762ED6
:100AA00029016E2CE02E262F2E5F240F200F30E020
:100AB00006C0840D951DFC018081280F3F5F832FA8
:100AC00090E080179107A8F3F22EF094198283B179
:100AD000837F846083B988E08AB9C6016FEF4A8357
:100AE0000E94B704C6016FEF0E94B704C601672DCC
:100AF0000E94B7046E2D6E5FC6010E94B704C60146
:100B00004A81642F0E94B704A42C820106C0F80118
:100B100061918F01C6010E94B704802F8A198E153A
:100B2000B0F3C6016F2D0E94B704F601E953FF4FE1
:100B3000D601AB53BF4F808191812D913C9111978C
:100B40008217930709F07CC07DC0C601BE016F5FAC
:100B50007F4F0E9422058823C1F389818F3FA9F727
:100B6000C601BE016F5F7F4F0E9422058823C1F33B
:100B700089818F3FA9F7C601BE016F5F7F4F0E9439
:100B800022058823C1F389818715A9F7C601BE0113
:100B90006F5F7F4F0E9422058823C1F30981102FC8
:100BA0001150520114C00894E11CF11CE814F9041E
:100BB00021F4115008C0EE24FF24C601B5010E94A3
:100BC0002205882381F30894A11CB11C0150013037
:100BD00091F71615E9F48981780E40E090E00197CD
:100BE00006C0240D351DF9012081720E4F5F242FA0
:100BF00030E028173907A9F77094C601BE016F5F6E
:100C00007F4F0E9422058823C1F38981781619F04D
:100C10008FEF9FEF02C080E090E00F900F90DF9188
:100C2000CF911F910F91FF90EF90DF90CF90BF90E9
:100C3000AF909F908F907F906F905F904F900895AE
:100C40005E9B79CF5E9A0E9496017FCF8F929F9292
:100C5000AF92BF92CF92DF92EF920F931F93CF93F9
:100C6000DF9300D00F92CDB7DEB749832A833B8351
:100C700043E09E012F5F3F4F03E010E0EE24E3943A
:100C800074EFA72E71E0B72EC12CD12CE4EF8E2E7D
:100C9000E1E09E2E0E943B052981009711F4822FEE
:100CA00002C0822F806890E00F900F900F90DF912C
:100CB000CF911F910F91EF90DF90CF90BF90AF90A9
:100CC0009F908F900895CF93DF9391E0909351017F
:100CD000C82FD0E024C06093BB01862F90E001971D
:100CE000FC01A5E0EE0FFF1FAA95E1F7E80FF91F41
:100CF000EC0FFD1FEE0FFF1FE656FF4F25913491BD
:100D000081E292E04EE10E942606682F8CEB91E092
:100D10000E948204809151018F5F80935101609104
:100D200051016630C1F6DF91CF91089581E017C07F
:100D30006093BB01E62FF0E0EE0FFF1FE657FF4F79
:100D40002591349181E292E040E20E942606682FCC
:100D50008CEB91E00E948204809151018F5F80931F
:100D6000510160915101663019F708952F923F9219
:100D70004F925F926F927F928F929F92AF92BF92AB
:100D8000CF92DF92EF92FF920F931F93CF93DF9357
:100D900000D00F92CDB7DEB781E0809351018FEF85
:100DA00092E5A7E081509040A040E1F700C000002C
:100DB000F3E0FF2E3E010894611C711CA2E05A2E44
:100DC000B6E24B2E609151016093BB01D301EF2D30
:100DD0001D92EA95E9F75A82498281E292E042E067
:100DE000930102E010E053E0E52E74EFA72E71E0CE
:100DF000B72EC12CD12CE4EF8E2EE1E09E2E0E9466
:100E00003B056981009709F0606869833B80222473
:100E10000A8110E0022913298CEB91E00E948204E0
:100E20000115110529F4809151018F5F80935101C3
:100E300080915101863031F60F900F900F90DF9125
:100E4000CF911F910F91FF90EF90DF90CF90BF90C7
:100E5000AF909F908F907F906F905F904F903F905A
:100E60002F90089581E020C06093BB01862F90E011
:100E70000197FC01EE0FFF1F36E0880F991F3A958E
:100E8000E1F7E80FF91FE656FF4F2591349181E213
:100E900092E04EE10E942606682F8CEB91E00E94C2
:100EA0008204809151018F5F8093510160915101C3
:100EB0006630D1F60E94B60608951F920F920FB6C3
:100EC0000F920BB60F9211242F933F934F935F9382
:100ED0006F937F938F939F93AF93BF93EF93FF9302
:100EE0002091E8023091E9028091E6029091E702B8
:100EF0002817390711F4559805C086E892E00E943A
:100F0000FB048CB9FF91EF91BF91AF919F918F91AD
:100F10007F916F915F914F913F912F910F900BBEF9
:100F20000F900FBE0F901F9018958FE784BB8EE730
:100F300085BB8CE082B981EF83B980E281BB81E21D
:100F400082BB1092B80310925303D2E0D0939B005F
:100F500098E990939A0086E080939D001092980003
:100F600022E220939900C1E0C093B903C093BA0371
:100F7000C093DC031092EA0210928502DBB99AB9A1
:100F80008093950010929000C9B982B18C6082B9AB
:100F90000E949601C7BFD3BF789468EE73E080E0EB
:100FA00090E00E9478018FEE92E069E171E00E948A
:100FB00013032091B6033091B7038091B40390914D
:100FC000B5032817390721F080919B0086FFF1CFE8
:100FD00080919B00806480939B000E947D0480E050
:100FE00006C0E82FF0E0E554FC4F10828F5F80329E
:100FF000C1F71092DB0381E0809320028093BA0155
:1010000084E680935501089597FB092E05260ED09E
:1010100057FD04D014D00AD0001C38F450954095E8
:10102000309521953F4F4F4F5F4F0895F6F79095BC
:101030008095709561957F4F8F4F9F4F0895A1E2E6
:101040001A2EAA1BBB1BFD010DC0AA1FBB1FEE1F42
:10105000FF1FA217B307E407F50720F0A21BB30B8D
:10106000E40BF50B661F771F881F991F1A9469F709
:1010700060957095809590959B01AC01BD01CF0165
:0E10800008950790F691E02D0994F894FFCFA3
:10108E00747275650066616C7365005F00746162F1
:10109E00756C6B613A000A0D000A0A0D20206F6B09
:0810AE00200A0D002323232377
:00000001FF
