:100000000C9447000C9476000C9476000C947600C7
:100010000C9476000C9476000C9476000C94760088
:100020000C9476000C9476000C9476000C94760078
:100030000C9476000C9476000C9476000C94760068
:100040000C9408010C9476000C9441020C94ED037E
:100050000C9476000C9476000C9476000C94760048
:100060000C9476000C9476000C9476000C94760038
:100070000C9476000C9476000C94A9010C948A00E0
:100080000C9476000C9476000C9476008B0411246A
:100090001FBECFEFD0E1DEBFCDBF12E0A0E0B1E0E8
:1000A000ECE4F9E000E00BBF02C007900D92AE3D1A
:1000B000B107D9F715E0AEEDB2E001C01D92AB3645
:1000C000B107E1F710E0CEE8D0E000E006C02297EB
:1000D0000109FE010BBF0E94A004CC38D10780E0CB
:1000E0000807A9F70E9425040C94A4040C940000AE
:1000F0000F931F938B019C0137FF07C0309520950C
:10010000109501951F4F2F4F3F4FB801C9011F9107
:100110000F9108951F920F920FB60F920BB60F9288
:1001200011242F933F938F939F93EF93FF932091ED
:10013000430530914405809141059091420528176F
:10014000390771F407C0208129C01092420510922E
:10015000410524C080919A008F7D80939A0020C031
:1001600020914305309144058091410590914205CD
:10017000E0914105F0914205EF51FB4F28173907F7
:1001800011F3208180914105909142050196909351
:1001900042058093410580369105B9F220939C0079
:1001A000FF91EF919F918F913F912F910F900BBEF7
:1001B0000F900FBE0F901F901895AB01BC014250DD
:1001C000504060407040000000000000000000004F
:1001D000000080E090E0DC0184179507A607B707D0
:1001E00048F4000000000000000000000196A11D7E
:1001F000B11DF2CF089583B1837F886083B96AE02F
:1002000070E080E090E00E94DD0080E98AB9089506
:100210001F920F920FB60F9211248F939F93AF935B
:10022000BF938091780490917904A0917A04B09161
:100230007B0480589F4FAF4FBF4F809378049093BB
:100240007904A0937A04B0937B04BF91AF919F91FE
:100250008F910F900FBE0F901F901895CF92DF9245
:10026000EF92FF920F931F93FC018091780490917D
:100270007904A0917A04B0917B0422B730E03595DF
:100280002795A901662757FD6095762F840F951F46
:10029000A61FB71FC080D180E280F3804091780410
:1002A0005091790460917A0470917B0422B730E018
:1002B00035952795F9018F01222717FD2095322FBB
:1002C000040F151F261F371F081B190B2A0B3B0B8A
:1002D0000C151D052E053F0508F31F910F91FF908A
:1002E000EF90DF90CF900895AC01FC01EE59FF4FE5
:1002F000A081B181A80FB91F6C9320813181DC01ED
:10030000A05ABF4F8D919C911197019728173907DB
:1003100051F0808191818F35910589F48D919C9167
:100320001197009761F44C595F4FDA018C91882343
:1003300021F005C0118210820AC080E008958081FA
:1003400091810196918380838036910599F381E0B4
:1003500008951F920F920FB60F920BB60F921124B1
:100360002F933F934F935F936F937F938F939F93BD
:10037000AF93BF93CF93EF93FF93C0919C00809175
:100380009B0084FD23C08CE794E06C2F0E947401D5
:1003900080916A05E82FF0E0E752FD4F9081C91780
:1003A00099F48F5F80936A05843081F410929B00EA
:1003B00010929A0010929D0010929900109298004D
:1003C000F0EFE0E0099402C010926A05FF91EF910E
:1003D000CF91BF91AF919F918F917F916F915F91DD
:1003E0004F913F912F910F900BBE0F900FBE0F902A
:1003F0001F901895AC01FC01EE59FF4FA081B1810F
:10040000A80FB91F6C9320813181DC01A05ABF4F26
:100410008D919C91119701972817390751F0808190
:1004200091818F35910589F48D919C911197009759
:1004300061F44C595F4FDA018C91882321F005C09B
:10044000118210820AC080E0089580819181019616
:10045000918380838036910599F381E008951F93FD
:10046000CF93DF93162FEC01CB59DF4FCE01612FD5
:100470000E94FA018823D1F3559ADF91CF911F9101
:1004800008951F920F920FB60F920BB60F92112480
:100490002F933F934F935F936F937F938F939F938C
:1004A000AF93BF93CF93EF93FF93CCB15C9907C009
:1004B0008EEA93E06C2F0E94FA018823C9F3FF9122
:1004C000EF91CF91BF91AF919F918F917F916F915C
:1004D0005F914F913F912F910F900BBE0F900FBEE8
:1004E0000F901F901895AC01FC01EE59FF4F208131
:1004F0003181FC01E05AFF4F808191812817390733
:1005000051F40190F081E02DE40FF51F80810895F2
:10051000118210820895A081B181A40FB51F8C9122
:10052000208131812F5F3F4F318320832036310579
:1005300089F7EECFCF93DF93EB01FC01EE59FF4F2C
:1005400040815181FC01E05AFF4F208131814217E7
:10055000530721F480E0DF91CF9108950E94730248
:10056000888381E0F8CF4F925F926F927F928F9253
:100570009F92AF92BF92CF92DF92EF92FF920F9332
:100580001F93CF93DF9300D0CDB7DEB76C01762EEB
:1005900029016E2CE02E262F2E5F240F200F30E035
:1005A00006C0840D951DFC018081280F3F5F832FBD
:1005B00090E080179107A8F3F22EF094198283B18E
:1005C000837F846083B988E08AB9C6016FEF4A836C
:1005D0000E942F02C6016FEF0E942F02C601672DF5
:1005E0000E942F026E2D6E5FC6010E942F02C6016F
:1005F0004A81642F0E942F02A42C820106C0F801B8
:1006000061918F01C6010E942F02802F8A198E15D9
:10061000B0F3C6016F2D0E942F02F601E953FF4F80
:10062000D601AB53BF4F808191812D913C911197A1
:100630008217930709F07CC07DC0C601BE016F5FC1
:100640007F4F0E949A028823C1F389818F3FA9F7C7
:10065000C601BE016F5F7F4F0E949A028823C1F3DB
:1006600089818F3FA9F7C601BE016F5F7F4F0E944E
:100670009A028823C1F389818715A9F7C601BE01B3
:100680006F5F7F4F0E949A028823C1F30981102F68
:100690001150520114C00894E11CF11CE814F90433
:1006A00021F4115008C0EE24FF24C601B5010E94B8
:1006B0009A02882381F30894A11CB11C01500130D7
:1006C00091F71615E9F48981780E40E090E00197E2
:1006D00006C0240D351DF9012081720E4F5F242FB5
:1006E00030E028173907A9F77094C601BE016F5F83
:1006F0007F4F0E949A028823C1F38981781619F0EE
:100700008FEF9FEF02C080E090E00F900F90DF919D
:10071000CF911F910F91FF90EF90DF90CF90BF90FE
:10072000AF909F908F907F906F905F904F900895C3
:100730005E9B79CF5E9A0E94FB007FCF8F929F9243
:10074000AF92BF92CF92DF92EF920F931F93CF930E
:10075000DF9300D00F92CDB7DEB749832A833B8366
:1007600043E09E012F5F3F4F03E010E0EE24E3944F
:1007700054EFA52E51E0B52EC12CD12C74EF872E4D
:1007800071E0972E0E94B3022981009711F4822F05
:1007900002C0822F806890E00F900F900F90DF9141
:1007A000CF911F910F91EF90DF90CF90BF90AF90BE
:1007B0009F908F900895C1E0C09348038EEA93E024
:1007C00061E04EE12BE730E00E949E03682F89E450
:1007D00093E00E94FA01F0CF08951F920F920FB696
:1007E0000F920BB60F9211242F933F934F935F9369
:1007F0006F937F938F939F93AF93BF93EF93FF93E9
:100800002091750430917604809173049091740462
:100810002817390711F4559805C083E194E00E9428
:1008200073028CB9FF91EF91BF91AF919F918F911E
:100830007F916F915F914F913F912F910F900BBEE0
:100840000F900FBE0F901F9018958FE784BB8EE717
:1008500085BB8CE082B981EF83B980E281BB81E204
:1008600082BB109245051092E00412E010939B00A9
:1008700098E990939A0086E080939D0010929800EA
:1008800022E220939900C1E0C0934605C09347053A
:10089000C093690510927704109212041BB99AB99B
:1008A0008093950010929000C9B982B18C6082B992
:1008B0000E94FB00C7BF13BF789468EE73E080E02E
:1008C00090E00E94DD00C0E0D1E00CC081EE94E039
:1008D000612F0E9474018823C9F380919A0080627D
:1008E00080939A001991112389F720914305309143
:1008F000440580914105909142052817390721F060
:1009000080919B0086FFF1CF80919B008064809353
:100910009B000E94DB0380E006C0E82FF0E0E85B6C
:10092000FA4F10828F5F8032C1F71092680581E024
:100930008093AD038093470384E68093E202089599
:0C0940000790F691E02D0994F894FFCF89
:10094C000A0A0D20206F6B200A0D00000232000EE7
:10095C00004B022A02FE01D401AC01F603CC03A722
:10096C00037C035A0333030C03E702BC02930272A9
:10097C00024D022402FE01D601B201880160013C45
:10098C00011B01EF00CA00A8007E00580000020005
:10099C00020002000200020002000200020002003B
:1009AC00020002000200020002000200020002002B
:1009BC00020002000200020002000200020002001B
:1009CC00020002000200020002000200020002000B
:1009DC0002000200020002000200020002000200FB
:1009EC0002000200020002000200020002000200EB
:1009FC0002000200020002000200020002000200DB
:100A0C0002000200020002000200020002000200CA
:100A1C0002000200020002000200020002000200BA
:100A2C0002000200020002000200020002000200AA
:100A3C00020002000200020002000200020002009A
:100A4C00020002000200020002000200020002008A
:100A5C00020002000200020002000200020002007A
:100A6C00020002000200020002000200020002006A
:100A7C00020002000200020002000200020002005A
:100A8C00020002000200020002000200020002004A
:100A9C00020002000200020002000200020002003A
:100AAC00020002000200020002000200020002002A
:100ABC00020002000200020002000200020002001A
:100ACC00020002000200020002000200020002000A
:100ADC0002000200020002000200020002000200FA
:100AEC0002000200020002000200020002000200EA
:100AFC0002000200020002000200020002000200DA
:100B0C0002000200020002000200020002000200C9
:0E0B1C00020002000200020002232323230035
:00000001FF
