:100000000C94F1000C9420010C9420010C9420011C
:100010000C9420010C9420010C9420010C942001DC
:100020000C9420010C9420010C9420010C942001CC
:100030000C9420010C9420010C9420010C942001BC
:100040000C945F010C9420010C9459060C946310DD
:100050000C9420010C9420010C9420010C9420019C
:100060000C9420010C9420010C9420010C9420018C
:100070000C9420010C9420010C941C030C94D505C5
:100080000C9420010C9420010C942001084AD73BC9
:100090003BCE016E84BCBFFDC12F3D6C74319ABD57
:1000A00056833DDA3D00C77F11BED9E4BB4C3E917B
:1000B0006BAAAABE000000803F072C7AA5BA6CC5C7
:1000C00090DA3B9365FC8BBC53F810FD3C56928351
:1000D0004DBD879D3AB63DCBC9BF5BBE73DA0FC934
:1000E0003F05A84CCDB2D44EB93836A9020C50B950
:1000F000918688083CA6AAAA2ABE000000803FC8B4
:1001000000C800C800C800C800C800C80000022C11
:1001100002A700CF038B02E6012402000232000E88
:10012000004B022A02FE01D401AC01F603CC03A766
:10013000037C035A0333030C03E702BC02930272ED
:10014000024D022402FE01D601B201880160013C89
:10015000011B01EF00CA00A8007E005800C600463F
:1001600003A800A80014035F014E0122016202628D
:1001700002EB02F100F100F1002F022F028C025D70
:100180000250029F012C0328032B0312021202A12A
:1001900000F402F402F402D301D301F40027002E8C
:1001A00001BF01C9000E010E01B102B102F80289BE
:1001B0000189012701CA00CA005A01D1039B01DD50
:1001C00001B600B600B700180318035303B500B515
:1001D00000FE00F500F500BE00B002D600AA000047
:1001E0006D1111241FBECFEFD0E1DEBFCDBF11E0F6
:1001F000A0E0B1E0E8E5FAE200E00BBF02C0079042
:100200000D92AE3DB107D9F714E0AEEDB1E001C0FB
:100210001D92A137B107E1F711E0C2EED1E000E095
:1002200006C022970109FE010BBF0E942615C03EA1
:10023000D10780E00807A9F70E9415110C942A1530
:100240000C9400000F931F938B019C0137FF07C094
:1002500030952095109501951F4F2F4F3F4FB801B6
:10026000C9011F910F910895AB01BC01425050404C
:10027000604070400000000000000000000000002E
:1002800080E090E0DC0184179507A607B70748F4E3
:10029000000000000000000000000196A11DB11D3B
:1002A000F2CF089583B1837F886083B96AE070E0FC
:1002B00080E090E00E94340180E98AB908951F929D
:1002C0000F920FB60F9211248F939F93AF93BF930A
:1002D00080917E0390917F03A0918003B091810370
:1002E00080589F4FAF4FBF4F80937E0390937F0303
:1002F000A0938003B0938103BF91AF919F918F91A1
:100300000F900FBE0F901F901895CF92DF92EF9233
:10031000FF920F931F93FC0180917E0390917F03C6
:10032000A0918003B091810322B730E035952795E5
:10033000A901662757FD6095762F840F951FA61F8C
:10034000B71FC080D180E280F38040917E0350913E
:100350007F03609180037091810322B730E035956F
:100360002795F9018F01222717FD2095322F040FC1
:10037000151F261F371F081B190B2A0B3B0B0C15CB
:100380001D052E053F0508F31F910F91FF90EF907B
:10039000DF90CF90089583B7816083BF0895CF9297
:1003A000DF92EF92FF92C090DF01D090E001E090E9
:1003B000E101F090E20191E080E021E030E0A9016C
:1003C000092E02C0440F551F0A94E2F7662757FD15
:1003D0006095762F4C215D216E217F2141155105BD
:1003E0006105710511F09FE181E09F5F903239F75F
:1003F0009093E401FF90EF90DF90CF90089590915B
:10040000DE0121E030E002C0220F331F8A95E2F7BF
:10041000662311F0292B02C0209529232093DE01A9
:100420000895AC01FC01EE59FF4FA081B181A80FE6
:10043000B91F6C9320813181DC01A05ABF4F8D918F
:100440009C91119701972817390751F0808191816C
:100450008F35910589F48D919C911197009761F4E6
:100460004C595F4FDA018C91882321F005C011822D
:1004700010820AC080E00895808191810196918365
:1004800080838036910599F381E008951F93CF937F
:10049000DF93162FEC01CB59DF4FCE01612F0E9465
:1004A00011028823D1F380919A00806280939A0090
:1004B000DF91CF911F9108952F923F924F925F92BB
:1004C0006F927F928F929F92AF92BF92CF92DF9264
:1004D000EF92FF920F931F93CF93DF93CDB7DEB7C9
:1004E00060970FB6F894DEBF0FBECDBF1C016A0146
:1004F0007B01122F411551056105710531F00DC0C9
:1005000060E20E9446020F5F01C001E0C1010117D5
:10051000B8F360E30E94460268C077FF0DC08DE229
:100520008983F094E094D094C094C11CD11CE11C48
:10053000F11C115001E001C000E08AE090E09E87CC
:100540008D87812C2AEC922E2AE9A22E2BE3B22E43
:100550003AE0432E512C612C712CC814D904EA04C2
:10056000FB04DCF0E1E0F0E0EC0FFD1FE00FF11D1B
:10057000F88BEF87C701B601A50194010E94E91429
:10058000CA01B901A30192010E94E914605DEF85DF
:10059000F88960830F5F11111150C501B401A301E7
:1005A00092010E94E91449015A018D859E850197A7
:1005B0009E878D87009789F6CC2405C0C10160E233
:1005C0000E944602C394C116C9F74E010894811CCB
:1005D000911C640106C0F60161916F01C1010E9486
:1005E00046028C2D88198017B0F360960FB6F894E8
:1005F000DEBF0FBECDBFDF91CF911F910F91FF9056
:10060000EF90DF90CF90BF90AF909F908F907F90B2
:100610006F905F904F903F902F900895CF93DF930E
:10062000EC0104C082E893E00E94460269916623CF
:10063000C9F7DF91CF9108951F920F920FB60F92D5
:100640000BB60F9211242F933F934F935F936F93A9
:100650007F938F939F93AF93BF93CF93EF93FF932A
:10066000C0919C0080919B0084FD23C082E893E0B0
:100670006C2F0E94110280917004E82FF0E0E65286
:10068000FE4F9081C91799F48F5F80937004843076
:1006900081F410929B0010929A0010929D0010928B
:1006A000990010929800F0EFE0E0099402C01092D7
:1006B0007004FF91EF91CF91BF91AF919F918F9176
:1006C0007F916F915F914F913F912F910F900BBE52
:1006D0000F900FBE0F901F901895AC01FC01EE59C2
:1006E000FF4F20813181FC01E05AFF4F80819181D1
:1006F0002817390751F40190F081E02DE40FF51F20
:1007000080810895118210820895A081B181A40F83
:10071000B51F8C91208131812F5F3F4F3183208322
:100720002036310589F7EECFAC01FC01EE59FF4FC1
:10073000DC01A05ABF4F808191812D913C9111978E
:1007400082179307C1F3CA010E946D0308953F9277
:100750004F925F926F927F928F929F92AF92BF92D1
:10076000CF92DF92EF92FF920F931F93CF93DF937D
:100770001092E401C1E0D0E0A6C082E893E00E94BC
:100780009403082F482F50E060E070E082E893E087
:1007900020914C040E945C028BE091E00E940E03C9
:1007A0001092E30110E073C0282F30E0A80102C0CE
:1007B000559547958A95E2F7FA01E170F07040FF90
:1007C00029C04091E40150E0A3E0440F551FAA95D1
:1007D000E1F7420F531FCE0102C0880F991F4A95BF
:1007E000E2F7AC01662757FD6095762F8091DF0117
:1007F0009091E001A091E101B091E201842B952B51
:10080000A62BB72B8093DF019093E001A093E10129
:10081000B093E201309771F54091E40150E0F3E0CC
:10082000440F551FFA95E1F7420F531F9E0102C076
:10083000220F331F4A95E2F7A9014095509566278C
:1008400057FD6095762F8091DF019091E001A09196
:10085000E101B091E20184239523A623B72380937D
:10086000DF019093E001A093E101B093E20185E004
:1008700091E002C080E091E00E940E038EE091E0E2
:100880000E940E038091E3018F5F8093E3018091CA
:10089000E301883009F088CF4091DF015091E001F9
:1008A0006091E1017091E20182E893E020914C04B3
:1008B0000E945C028BE091E00E940E038091E401B3
:1008C0008F5F8093E4018091E401843009F055CF7B
:1008D0001092E40158C082E893E00E949403C82F6C
:1008E000482F50E060E070E082E893E020914C04F3
:1008F0000E945C028BE091E00E940E031092E301E3
:10090000D0E025C0BE01082E02C0759567950A94F7
:10091000E2F7617070700E94FF01CE010090E30168
:1009200002C0959587950A94E2F780FF03C080E0A6
:1009300091E002C085E091E00E940E038EE091E01C
:100940000E940E038091E3018F5F8093E301809109
:10095000E3018830B9F64091DE0150E060E070E0DC
:1009600082E893E020914C040E945C028BE091E0CD
:100970000E940E038BE091E00E940E038091E4013F
:100980008F5F8093E4018091E401813009F0A3CF6F
:100990001092E401C1E0D0E01FC0AE0102C0440FDC
:1009A000551F8A95E2F7CA01AA2797FDA095BA2F8D
:1009B00088219921AA21BB210097A105B10519F031
:1009C00080E091E002C085E091E00E940E038091FA
:1009D000E4018F5F8093E4018091E4018090DF0166
:1009E0009090E001A090E101B090E2018032A9F680
:1009F000CC24DD2476012091DE0130E040E050E09F
:100A000060E070E080E090E000E20E949B10280D22
:100A1000E1E0281508F0E0E0390DA1E0391508F013
:100A2000A0E03E2E330EE1E0331608F0E0E0AE2BFE
:100A30004A0DB1E04A1508F0B0E0A40F31E0A41768
:100A400008F030E0B32B5B0DC1E05B1508F0C0E0AF
:100A5000B50F31E0B51708F030E0C32B31E06C156D
:100A600008F030E0C60F41E0C61708F040E0342B34
:100A700041E07D1508F040E0632F670F31E0671714
:100A800008F030E0432B51E08E1508F050E0E42EE2
:100A9000E80E31E0E81608F030E0352B390FBB24C2
:100AA00040E050E070E0D0E010E000E08824FF2457
:100AB000E1E0CE2ED12C17C0EB2DF0E0EA52FE4F34
:100AC000C601008002C0880F991F0A94E2F7E92F3F
:100AD000EE0FEE0B482B592B7E2BDE2B1E2B0E2BF5
:100AE0008E2AFE2AB39484E0B81631F780E0B22E45
:100AF000E1E0F0E0082E02C0EE0FFF1F0A94E2F7DB
:100B00009E2FDF2EFF0FFF0BE92FEB214D2C4320F3
:100B10005F2E5A226F2E6B227F2E7C229F2E9622D2
:100B2000AF2EAE20CF2EC32221E0E429E529E6290D
:100B3000E729E929EA29EC2909F420E09423D522C0
:100B40006F2E67227F2E7D229F2E9122AF2EA02214
:100B5000CF2EC820FF21E1E09D29962997299929C8
:100B60009A299C299F2B09F0E0E02E1739F0883252
:100B700019F48093E40106C08F5FBACF8093E4013B
:100B8000883209F480E0DF91CF911F910F91FF909F
:100B9000EF90DF90CF90BF90AF909F908F907F901D
:100BA0006F905F904F903F9008951F920F920FB6F5
:100BB0000F920BB60F9211242F933F934F935F9395
:100BC0006F937F938F939F93AF93BF93EF93FF9315
:100BD0002091490430914A0480914704909148043F
:100BE0002817390731F480919A008F7D80939A00FD
:100BF00006C087EE93E00E946D0380939C00FF91F6
:100C0000EF91BF91AF919F918F917F916F915F9184
:100C10004F913F912F910F900BBE0F900FBE0F90F1
:100C20001F901895AC01FC01EE59FF4FA081B181D6
:100C3000A80FB91F6C9320813181DC01A05ABF4FEE
:100C40008D919C91119701972817390751F0808158
:100C500091818F35910589F48D919C911197009721
:100C600061F44C595F4FDA018C91882321F005C063
:100C7000118210820AC080E00895808191810196DE
:100C8000918380838036910599F381E008951F93C5
:100C9000CF93DF93162FEC01CB59DF4FCE01612F9D
:100CA0000E9412068823D1F3559ADF91CF911F91AC
:100CB00008951F920F920FB60F920BB60F92112448
:100CC0002F933F934F935F936F937F938F939F9354
:100CD000AF93BF93CF93EF93FF93CCB15C9907C0D1
:100CE00084EB92E06C2F0E9412068823C9F3FF91D7
:100CF000EF91CF91BF91AF919F918F917F916F9124
:100D00005F914F913F912F910F900BBE0F900FBEAF
:100D10000F901F901895AC01FC01EE59FF4F2081F8
:100D20003181FC01E05AFF4F8081918128173907FA
:100D300051F40190F081E02DE40FF51F80810895BA
:100D4000118210820895A081B181A40FB51F8C91EA
:100D5000208131812F5F3F4F318320832036310541
:100D600089F7EECFCF93DF93EB01FC01EE59FF4FF4
:100D700040815181FC01E05AFF4F208131814217AF
:100D8000530721F480E0DF91CF9108950E948B06F4
:100D9000888381E0F8CF4F925F926F927F928F921B
:100DA0009F92AF92BF92CF92DF92EF92FF920F93FA
:100DB0001F93CF93DF9300D0CDB7DEB76C01762EB3
:100DC00029016E2CE02E262F2E5F240F200F30E0FD
:100DD00006C0840D951DFC018081280F3F5F832F85
:100DE00090E080179107A8F3F22EF094198283B156
:100DF000837F846083B988E08AB9C6016FEF4A8334
:100E00000E944706C6016FEF0E944706C601672D84
:100E10000E9447066E2D6E5FC6010E944706C601FE
:100E20004A81642F0E944706A42C820106C0F80163
:100E300061918F01C6010E944706802F8A198E1585
:100E4000B0F3C6016F2D0E944706F601E953FF4F2C
:100E5000D601AB53BF4F808191812D913C91119769
:100E60008217930709F07CC07DC0C601BE016F5F89
:100E70007F4F0E94B2068823C1F389818F3FA9F773
:100E8000C601BE016F5F7F4F0E94B2068823C1F387
:100E900089818F3FA9F7C601BE016F5F7F4F0E9416
:100EA000B2068823C1F389818715A9F7C601BE015F
:100EB0006F5F7F4F0E94B2068823C1F30981102F14
:100EC0001150520114C00894E11CF11CE814F904FB
:100ED00021F4115008C0EE24FF24C601B5010E9480
:100EE000B206882381F30894A11CB11C0150013083
:100EF00091F71615E9F48981780E40E090E00197AA
:100F000006C0240D351DF9012081720E4F5F242F7C
:100F100030E028173907A9F77094C601BE016F5F4A
:100F20007F4F0E94B2068823C1F38981781619F099
:100F30008FEF9FEF02C080E090E00F900F90DF9165
:100F4000CF911F910F91FF90EF90DF90CF90BF90C6
:100F5000AF909F908F907F906F905F904F9008958B
:100F60005E9B79CF5E9A0E9452017FCF8F929F92B3
:100F7000AF92BF92CF92DF92EF920F931F93CF93D6
:100F8000DF9300D00F92CDB7DEB749832A833B832E
:100F900043E09E012F5F3F4F03E010E0EE24E39417
:100FA000B4EFAB2EB1E0BB2EC12CD12C54EF852E6B
:100FB00051E0952E0E94CB062981009711F4822FD3
:100FC00002C0822F806890E00F900F900F90DF9109
:100FD000CF911F910F91EF90DF90CF90BF90AF9086
:100FE0009F908F900895CF93DF931092E401C82FC4
:100FF000D0E020C03E2F3F5F30934E02F0E0EE0F76
:10100000FF1FE150FF4F85919491BE010E94D514BE
:10101000FB0184EB92E0632F40E29F010E94B60740
:10102000682F8FE492E00E9412068091E4018F5FA6
:101030008093E401E091E401E730E1F6DF91CF91A4
:101040000895CF93DF939C01CEE4D2E084EB92E04D
:1010500060914E024EE10E94B607682FCE010196C4
:101060000E941206CE01DF91CF910895CF93DF93B6
:101070009C01CEE4D2E084EB92E060914E024EE11E
:101080000E94B607682FCE0101960E941206CE017B
:10109000DF91CF9108952F923F924F925F926F927E
:1010A0007F928F929F92AF92BF92CF92DF92EF92F8
:1010B000FF920F931F93CF93DF93CDB7DEB72C979B
:1010C0000FB6F894DEBF0FBECDBF6D837E838F83D6
:1010D000988729833A834B835C8327013801C601B3
:1010E000B50125E33AEF4EE85CE30E940114362E89
:1010F000C72E282EF92E6D817E818F8198859B01C8
:10110000AC010E940114162F072FE82ED92E6981F9
:101110007A818B819C819B01AC010E940114F62F86
:10112000E72F382F292FD8014B2F5A2F6E2D7D2DC9
:10113000CB01BA01DF01A9010B2F1A2F252F342F64
:10114000A90198010E9491110E946E144B015C014B
:10115000832D9C2DA22DBF2DBC01CD010E946414B6
:1011600020E030E048E452E40E9401149B01AC010D
:10117000C301B2010E949111462E772E682E592E7E
:10118000832D9C2DA22DBF2DBC01CD010E94571295
:101190006B017C01C501B4010E94C71280E090E0A0
:1011A0000E94F3124B015C01C701B60120E030E060
:1011B00048E452E40E9401149B01AC01C501B40152
:1011C0000E949111462F572F682F792FCB01BA011A
:1011D0000E94C71280E090E00E94F3129B01AC01D4
:1011E0000E9401146B01F82EE92E362D842D972DC7
:1011F000A62DB52DBC01CD01042D172D232F3B2F7E
:10120000A90198010E940114F62FE72F382F292FEA
:10121000C7014C2D5D2D692F782FCB01BA01DF015D
:10122000A9010B2F1A2F252F342FA90198010E94F5
:1012300091110E946E146B017C0169817A818B810E
:101240009C812D813E814F8158850E9404126983C3
:101250007A838B839C83C701B6010E94C7126B01FE
:101260007C01D694C794B60180E090E00E94F3120E
:101270009B01AC010E940114F62EE72E182F092FB6
:10128000A7019801852F942FA32FB22FBC01CD0168
:1012900020E038E948E056E40E9490114B015C01DF
:1012A0008CEB90E0C89EB001C99E700DD89E700D69
:1012B000112480E090E00E94F3129B01AC01C50173
:1012C000B4010E945A120E94821169877A878B8723
:1012D0009C87842D972DA62DB52DBC01CD012D8188
:1012E0003E814F8158850E9404124B015C0160E0F1
:1012F00070E18AE896E4F701A8010F2F1E2F252F31
:10130000342FA90198010E94901120E030E14AE8B1
:1013100056E40E945A120E94821122E93AE046E8FD
:101320005FE30E94911122E93AE046E05FE30E9408
:10133000901120E030E044E353E40E9401142BEDCF
:101340003FE049E450E40E945A122EE034E74AE5B7
:1013500050E40E9401140E94C7126B017C0181E0DD
:1013600080934E0269817A818B819C8127E33DE8DD
:1013700047E250E40E94911120E030E044E353E45E
:101380000E9401142BED3FE049E450E40E945A1200
:101390002EE034E74AE550E40E9401140E94C7128F
:1013A000DC01CB010E94360882E080934E02698501
:1013B0007A858B859C85A50194010E94911122E973
:1013C0003AE046E05FE30E94911120E030E044E320
:1013D00053E40E9401142BED3FE049E450E40E94E5
:1013E0005A122EE034E74AE550E40E9401140E94AC
:1013F000C712DC01CB010E94360883E080934E02C5
:10140000C6010E94360884E080934E02C6010E9405
:1014100036082C960FB6F894DEBF0FBECDBFDF9115
:10142000CF911F910F91FF90EF90DF90CF90BF90E1
:10143000AF909F908F907F906F905F904F903F9074
:101440002F9008952F923F924F925F926F927F92CA
:101450008F929F92AF92BF92CF92DF92EF92FF92C4
:101460000F931F93CF93DF93CDB7DEB762970FB67D
:10147000F894DEBF0FBECDBF4B015C0169017A015C
:10148000A50194010E940114462E072F382E192F12
:10149000C701B601A70196010E940114F62FE72F9C
:1014A000382F292F442D502F632D712FCB01BA01D6
:1014B000DF01A9010B2F1A2F252F342FA901980125
:1014C0000E9491110E946E140E94C212DC01CB0195
:1014D0001C01C701B601A50194010E940412698391
:1014E0007A838B839C83C101AA2797FDA095BA2F8D
:1014F00089879A87AB87BC87BC01CD010E94F51212
:101500009B01AC010E940114062FC72E882E192FB3
:10151000862F9C2DA82DB12FBC01CD0120E030E0FD
:10152000A9010E9491112B013C018CEB90E0289EB7
:10153000B001299E700D389E700D1124882777FD0B
:101540008095982F0E94F5129B01AC01C301B20156
:101550000E945A120E9482112B013C0169817A81FA
:101560008B819C81A30192010E9491111B018D87A7
:101570009E8760E070E18AE896E4412F1C2D282DBB
:10158000342FA90198010E94901120E030E14AE82F
:1015900056E40E945A120E9482116D837E838F83CB
:1015A00098873D852E85822D932DA32FB22FBC01C8
:1015B000CD0122E93AE046E85FE30E94911120E084
:1015C00030E044E353E40E9401142BED3FE049E492
:1015D00050E40E945A122EE034E74AE550E40E949B
:1015E00001140E94C7124B015C01788B6F876D81DB
:1015F0007E818F81988522E93AE046E85FE30E9488
:1016000091112BED3FE049EC5FE30E94901120E047
:1016100030E044E353E40E9401142BED3FE049E441
:1016200050E40E945A122EE034E74AE550E40E944A
:1016300001140E94C7126B017C017A8B698B82E0D6
:1016400080934E02C4010E94360883E080934E02CC
:10165000C6010E943608F2E8CF2EF3E0DF2EC60165
:1016600049855A856B857C8520914C040E945C02DB
:101670000BE011E0C8010E940E0380E191E00E949E
:101680000E0369817A818B819C8120E030E044E304
:1016900053E40E9401142BED3FE049E450E40E9422
:1016A0005A120E94C212AB01BC01662757FD609519
:1016B000762FC60120914C040E945C02C8010E9452
:1016C0000E0389E191E00E940E03C301B20120E004
:1016D00030E044E353E40E9401142BED3FE049E481
:1016E00050E40E945A120E94C212AB01BC0166274C
:1016F00057FD6095762FC60120914C040E945C0234
:10170000C8010E940E0382E291E00E940E033D8513
:101710002E85822D932DA32FB22FBC01CD0120E069
:1017200030E044E353E40E9401142BED3FE049E430
:1017300050E40E945A120E94C212AB01BC016627FB
:1017400057FD6095762FC60120914C040E945C02E3
:10175000C8010E940E038CE291E00E940E036D818D
:101760007E818F81988520E030E044E353E40E943D
:1017700001142BED3FE049E450E40E945A120E940C
:10178000C212AB01BC01662757FD6095762FC601DA
:1017900020914C040E945C02C8010E940E0386E363
:1017A00091E00E940E03AF85B889AD0160E070E062
:1017B000C60120914C040E945C02C8010E940E03E5
:1017C00086E491E00E940E03E989FA89AF0160E0A6
:1017D00070E0C60120914C040E945C02C8010E9486
:1017E0000E0362960FB6F894DEBF0FBECDBFDF9139
:1017F000CF911F910F91FF90EF90DF90CF90BF900E
:10180000AF909F908F907F906F905F904F903F90A0
:101810002F9008958F929F92AF92BF92CF92DF92B6
:10182000EF920F931F93CF93DF9300D0CDB7DEB726
:1018300049832A8343E09E012F5F3F4F02E010E07F
:10184000EE24E394A4EFAA2EA1E0BA2EC12CD12C51
:10185000B4EF8B2EB1E09B2E0E94CB06298100971E
:1018600011F4822F02C0822F806890E00F900F90B9
:10187000DF91CF911F910F91EF90DF90CF90BF90AC
:10188000AF909F908F9008951092E40113C06F5F06
:1018900060934E0284EB92E048E120E00E940A0C43
:1018A000682F8FE492E00E9412068091E4018F5F1E
:1018B0008093E4016091E401673049F708956F92E5
:1018C0007F928F929F92AF92BF92CF92DF92EF92D0
:1018D0000F931F93CF93DF9300D00F92CDB7DEB756
:1018E0003C010894611C711CFC0160819E012F5F0A
:1018F0003F4F83E0F90111928A95E9F782E08A83EC
:1019000084E2898384EB92E042E002E010E053E05D
:10191000E52E74EFA72E71E0B72EC12CD12CE4EF89
:101920008E2EE1E09E2E0E94CB066981009709F081
:10193000606869839B8180E00A8110E0082B192B85
:10194000C3010E941206C8010F900F900F90DF9103
:10195000CF911F910F91EF90DF90CF90BF90AF90FC
:101960009F908F907F906F9008956F927F928F924B
:101970009F92AF92BF92CF92DF92EF92FF920F931E
:101980001F93CF93DF9300D0CDB7DEB78FEF9CE4EA
:10199000A8E081509040A040E1F700C00000FF2483
:1019A000F3947724739416E2612EF0924E027A82B9
:1019B000698284EB92E06F2D42E09E012F5F3F4FE2
:1019C00002E010E0F2E0EF2EA4EFAA2EA1E0BA2E82
:1019D000C12CD12CB4EF8B2EB1E09B2E0E94CB06F4
:1019E0006981009709F0606869831A818FE492E049
:1019F0000E941206112309F4F39497E0F916A9F650
:101A00000F900F90DF91CF911F910F91FF90EF906A
:101A1000DF90CF90BF90AF909F908F907F906F900E
:101A2000089586E080934E0288E092E00E942108AB
:101A300087E080934E0288EF91E00E9421080E9487
:101A4000B50C089586E080934E0286EE91E00E94E8
:101A5000210887E080934E0284E292E00E942108F0
:101A60000E94B50C089591E090934E0290E0880F8B
:101A7000991F855E9E4FFC01859194910E943608C6
:101A80000E94B50C08950E94220D8091DE0180FF16
:101A900004C088E08093D60103C088E08093D7011A
:101AA0000E94110D88E00E94330D0E94220D0895BE
:101AB000CF93DF93D82FC62F0E94330DD350D5304C
:101AC00008F067C086E591E00E940E038BE091E08C
:101AD0000E940E0383E08093E301D2E030C0D093F4
:101AE000E4011DC080934E022091E30190E0029733
:101AF000FC01B4E0EE0FFF1FBA95E1F7E81BF90B0C
:101B0000E20FF11DEE0FFF1FE959FE4F85919491F1
:101B10000E9436088091E4018F5F8093E4018091F8
:101B2000E4018630F9F60E94B50C8091E301825001
:101B30000E94F3078091E3018F5F8093E30180911E
:101B4000E301863061F60E94220DCC2311F00E9441
:101B5000110D82E017C0E0934E02F0E03297CF0102
:101B6000880F991FA5E0EE0FFF1FAA95E1F7E81B6C
:101B7000F90BE359FE4F859194910E9436088091AC
:101B8000E4018F5F8093E401E091E401E63019F70E
:101B90005DC01092E301D2E030C0D093E4011DC0DB
:101BA00080934E022091E30190E00297FC0154E003
:101BB000EE0FFF1F5A95E1F7E81BF90BE20FF11D3D
:101BC000EE0FFF1FE959FE4F859194910E94360850
:101BD0008091E4018F5F8093E4018091E40186307D
:101BE000F9F60E94B50C8091E3018F5F0E94F30724
:101BF0008091E3018F5F8093E3018091E301833063
:101C000061F60E94220DCC2311F00E94110D82E09A
:101C100017C0E0934E02F0E03297CF01880F991F72
:101C200045E0EE0FFF1F4A95E1F7E81BF90BE95974
:101C3000FE4F859194910E9436088091E4018F5F58
:101C40008093E401E091E401E63019F70E94B50CBD
:101C500081E00E94F307DF91CF91089560E00E9438
:101C6000580D089561E00E94580D08951092E40106
:101C700012C08E2F8F5F80934E02F0E0EE0FFF1F99
:101C8000E35FFE4F859194910E9436088091E401B4
:101C90008F5F8093E401E091E401E73051F70E9407
:101CA000B50C08951092E40114C06F5F60934E026A
:101CB00084EB92E042E228EE33E00E94B607682F00
:101CC0008FE492E00E9412068091E4018F5F80937E
:101CD000E4016091E401673041F71092E40113C020
:101CE0006F5F60934E0284EB92E048E121E00E9436
:101CF0000A0C682F8FE492E00E9412068091E401A2
:101D00008F5F8093E4016091E401673049F70E949E
:101D1000B50C0895CF93DF93CDB7DEB72E970FB6EE
:101D2000F894DEBF0FBECDBFDE011196EAE6F1E00A
:101D30008EE001900D928150E1F781E016C0009392
:101D40004E028EE492E00E945F0CE02FF0E03197AB
:101D5000EE0FFF1F21E030E02C0F3D1FE20FF31FBD
:101D6000918380838091E4018F5F8093E4010091EF
:101D7000E401073021F755E0F52E63E0E62E74E02C
:101D8000D72EE2E0CE2EF6E0BF2EA7E0AA2E82E804
:101D900093E00E9494038A3609F45BC08B3690F47A
:101DA000863699F1873638F4843601F1853610F598
:101DB000813669F780C0883609F43FC0893608F05B
:101DC00063C02FC0843789F1853740F4813709F427
:101DD0006CC08237F1F08B36D1F647C0873709F4F3
:101DE00067C08A3771F1853791F637C089819A814A
:101DF000039703C089819A8103969A83898321E09E
:101E000020934E020E943608C2CF8B819C8103979B
:101E100003C08B819C8103969C838B83C0924E026E
:101E2000F1CF8D819E81039703C08D819E810396A2
:101E30009E838D83E0924E02E5CF8F819885039734
:101E400003C08F819885039698878F83D0924E0226
:101E5000D9CF89859A85039703C089859A8503968A
:101E60009A878987F0924E02CDCF0B851C85C801D9
:101E700003979C878B87B0924E020E943608A092EF
:101E80004E0283E094E00EC00B851C85C8010396CA
:101E90009C878B87B0924E020E943608A0924E0219
:101EA0008DEF93E0801B910BADCF0E94440C6FCF60
:101EB0000E94520E6CCF81E02FC082E691E00E941A
:101EC0000E034091E40150E060E070E082E893E0AE
:101ED00020914C040E945C0288E691E00E940E036F
:101EE0008091E40180934E028EE492E00E945F0CA8
:101EF000AC0160E070E082E893E020914C040E9425
:101F00005C028BE091E00E940E038BE091E00E9466
:101F10000E038091E4018F5F8093E4018091E401DE
:101F2000873058F281E016C000934E028EE492E0B2
:101F30000E945F0CE02FF0E03197EE0FFF1F21E0D1
:101F400030E02C0F3D1FE20FF31F918380838091BF
:101F5000E4018F5F8093E4010091E401073021F7F1
:101F600016CF0E94440C8099FECF0E94520E88E743
:101F700091E00E940E038BE091E00E940E030E940C
:101F8000CB018DE791E00E940E038BE091E00E946F
:101F90000E0381E00E94F3078EE891E00E940E0399
:101FA0008BE091E00E940E030E94360E81EA91E0E0
:101FB0000E940E038BE091E00E940E030E94B50C7C
:101FC00081EB91E00E940E038BE091E00E940E03F2
:101FD0008BEB91E00E940E038BE091E00E940E03D8
:101FE00081E08093D6018099FECF809BFECF109236
:101FF000E40114C06F5F60934E0284EB92E040E214
:102000002FEF33E00E94B607682F8FE492E00E9422
:1020100012068091E4018F5F8093E4016091E401F6
:10202000673041F74DC0BE01882777FD8095982F16
:102030000E94F5125B016C0160E070E086E193E4C0
:1020400020E030E0A9010F2EF0E0EF2EF0E0FF2EAF
:10205000F0EF0F2FF2E41F2FF02D0E944B088FE3BB
:102060009CE90197F1F700C00000219691E0C83685
:10207000D907C9F6C8E6D1E0BE01882777FD80956B
:10208000982F0E94F5125B016C0160E070E086E120
:1020900093E420E030E0A9010F2EF0E0EF2EF0E015
:1020A000FF2EF0EF0F2FF2E41F2FF02D0E944B08B0
:1020B0008FE39CE90197F1F700C000002197E1F65A
:1020C000C0E0D0E0D3CF1F920F920FB60F920BB6A5
:1020D0000F9211242F933F934F935F936F937F93AE
:1020E0008F939F93AF93BF93EF93FF9320917B03C5
:1020F00030917C038091790390917A0328173907F6
:1021000011F4559805C089E193E00E948B068CB9C3
:10211000FF91EF91BF91AF919F918F917F916F91BF
:102120005F914F913F912F910F900BBE0F900FBE7B
:102130000F901F901895CF92DF92EF92FF920F931E
:10214000CF93DF93CDB7DEB760970FB6F894DEBFBD
:102150000FBECDBF002309F45AC029873A874B87A9
:102160005C876D877E878F87988B80E2801B49858F
:102170005A856B857C851816B4F019821A821B82E9
:102180001C82992787FD9095909581959F4F04C05B
:10219000440F551F661F771F8A95D2F74D835E83C4
:1021A0006F8378872CC06A017B01002E04C0CC0CA1
:1021B000DD1CEE1CFF1C0A94D2F7C982DA82EB8286
:1021C000FC826A017B0104C0F694E794D794C7941B
:1021D0008A95D2F7D701C6014D855E856F857889CE
:1021E00004C0440F551F661F771F0A95D2F7842B32
:1021F000952BA62BB72B8D839E83AF83B887298120
:102200003A814B815C816D817E818F81988560965A
:102210000FB6F894DEBF0FBECDBFDF91CF910F9107
:10222000FF90EF90DF90CF9008958FE784BB8EE70B
:1022300085BB8CE082B981EF83B980E281BB81E20A
:1022400082BB10924B041092E603D2E0D0939B0025
:1022500098E990939A0086E080939D0010929800F0
:1022600022E220939900C1E0C0934C04C0934D0436
:10227000C0936F0410927D0310921803DBB99AB9D2
:102280008093950010929000C9B982B18C6082B998
:102290000E945201C7BFD3BF789468EE73E080E01C
:1022A00090E00E9434018BEC91E00E940E0320919B
:1022B000490430914A0480914704909148042817BA
:1022C000390721F080919B0086FFF1CF80919B0020
:1022D000806480939B000E94B10F80E006C0E82FCD
:1022E000F0E0E25BFB4F10828F5F8032C1F710920B
:1022F0006E0481E08093B30280934D0284E6809364
:10230000E80108959F939F77ABD10F9000203AF496
:102310009058A2EA2AED3FE049E450E413D01FC2EE
:102320005058BB27AA270ED01AC2E3D130F0E8D10B
:1023300020F031F49F3F11F41EF4B3C10EF4E09588
:10234000E7FBA9C1E92F2DD280F3BA176207730703
:102350008407950718F071F49EF545C20EF4E095D8
:102360000B2EBA2FA02D0B01B90190010C01CA014F
:10237000A0011124FF27591B99F0593F50F4503EFA
:1023800068F11A16F040A22F232F342F4427585FEC
:10239000F3CF469537952795A795F0405395C9F704
:1023A0007EF41F16BA0B620B730B840BBAF09150BC
:1023B000A1F0FF0FBB1F661F771F881FC2F70EC05B
:1023C000BA0F621F731F841F48F48795779567952E
:1023D000B795F7959E3F08F0B3CF9395880F08F017
:1023E0009927EE0F97958795089583D158F080E847
:1023F00091E009F49EEF84D128F040E851E059F4CF
:102400005EEF09C04EC1EFC1E92FE078CAD168F391
:10241000092E052AC1F3261737074807590738F050
:102420000E2E07F8E02569F0E025E0640AC0EF63AE
:1024300007F8009407FADB01B9019D01DC01CA012C
:10244000AD01EF9346D08BD10AD05F91552331F087
:102450002BED3FE049E450FD49EC63CF0895DF9355
:10246000DD27B92FBF7740E85FE316161706480748
:102470005B0710F4D92FBED19F938F937F936F93F7
:102480006BD2ECE8F0E010D16AD12F913F914F91DF
:102490005F91C3D1DD2349F09058A2EA2AED3FE0D5
:1024A00049EC5FE3D0785D274DDFDF9158C130D133
:1024B000E39566C10CD053C123D140F01AD130F05E
:1024C00021F45F3F19F0E7C051118EC1EAC069D114
:1024D00098F39923C9F35523B1F3951B550BBB27EB
:1024E000AA2762177307840738F09F5F5F4F220F98
:1024F000331F441FAA1FA9F333D00E2E3AF0E0E891
:1025000030D091505040E695001CCAF729D0FE2FDC
:1025100027D0660F771F881FBB1F2617370748076E
:10252000AB07B0E809F0BB0B802DBF01FF27935824
:102530005F4F2AF09E3F510568F0ADC055C15F3F27
:10254000ECF3983EDCF3869577956795B795F7950C
:102550009F5FC9F7880F911D9695879597F9089504
:10256000E1E0660F771F881FBB1F621773078407A0
:10257000BA0720F0621B730B840BBA0BEE1F88F7AF
:10258000E095089504D06894B1112EC1089511D139
:1025900088F09F5790F0B92F9927B751A0F0D1F04C
:1025A000660F771F881F991F1AF0BA95C9F712C0D6
:1025B000B13081F018D1B1E0089515C1672F782F9F
:1025C0008827B85F39F0B93FCCF386957795679542
:1025D000B395D9F73EF490958095709561957F4FAE
:1025E0008F4F9F4F0895E89409C097FB3EF4909554
:1025F0008095709561957F4F8F4F9F4F9923A9F0DC
:10260000F92F96E9BB279395F6958795779567956A
:10261000B795F111F8CFFAF4BB0F11F460FF1BC0AE
:102620006F5F7F4F8F4F9F4F16C0882311F096E941
:1026300011C0772321F09EE8872F762F05C06623EF
:1026400071F096E8862F70E060E02AF09A95660FA8
:10265000771F881FDAF7880F9695879597F9089561
:10266000DF93CF931F930F938B01EC01E9EBF0E025
:102670001BD075D09801AE018B01EC0160E070E0D9
:1026800080E89FE34DDE2AD19801AE010F911F91A2
:10269000CF91DF91C2C097F99F6780E870E060E05A
:1026A00008959FEF80EC0895DF93CF931F930F93CE
:1026B000FF92EF92DF927B018C01689405C0DA2EC5
:1026C000EF01ABD0FE01E894A5912591359145919C
:1026D0005591AEF3EF0136DEFE019701A801DA94C1
:1026E00079F7DF90EF90FF900F911F91CF91DF91DD
:1026F000089500240A941616170618060906089568
:1027000000240A9412161306140605060895C9CF6C
:1027100050D0E8F3E894E0E0BB279F57F0F02AEDB3
:102720003FE049EC06C0EE0FBB0F661F771F881F06
:1027300028F0B23A62077307840728F0B25A620B96
:10274000730B840BE3959A9572F7803830F49A9561
:10275000BB0F661F771F881FD2F7904802C1092E52
:102760000394000C11F4882352F0BB0F40F4BF2BEC
:1027700011F460FF04C06F5F7F4F8F4F9F4F08952C
:10278000EF93E0FF06C0A2EA2AED3FE049EC5FEBE1
:10279000D9DDE5DF0F90039401FC9058E1EEF0E005
:1027A000F3C057FD9058440F551F59F05F3F71F02B
:1027B0004795880F97FB991F61F09F3F79F08795A8
:1027C0000895121613061406551FF2CF4695F1DF31
:1027D00008C0161617061806991FF1CF86957105C1
:1027E000610508940895E894BB2766277727CB01F5
:1027F00097F908959B01AC0160E070E080E89FE3E9
:1028000059CE0BD0ACCF75DF28F07ADF18F09523C6
:1028100009F041CF46CF1124E7CFC3DFA0F3959F46
:10282000D1F3950F50E0551F629FF001729FBB27B7
:10283000F00DB11D639FAA27F00DB11DAA1F649F63
:102840006627B00DA11D661F829F2227B00DA11D16
:10285000621F739FB00DA11D621F839FA00D611D9C
:10286000221F749F3327A00D611D231F849F600DBD
:10287000211D822F762F6A2F11249F5750408AF0F6
:10288000E1F088234AF0EE0FFF1FBB1F661F771F82
:10289000881F91505040A9F79E3F510570F0FBCE24
:1028A000A3CF5F3FECF3983EDCF386957795679571
:1028B000B795F795E7959F5FC1F7FE2B880F911DA0
:1028C0009695879597F908959F9322DF0F9007FCBF
:1028D000EE5F56CF11F40EF4E4CE41C06ADFD0F3C0
:1028E0009923D9F3CEF39F57550B87FF46D0002489
:1028F000A0E640EA900180585695979528F4805CB0
:10290000660F771F881F20F026173707480730F417
:10291000621B730B840B202931294A2BA69517942F
:102920000794202531254A2758F7660F771F881FFF
:1029300020F026173707480730F4620B730B840B1F
:10294000200D311D411DA09581F7B901842F9158AB
:10295000880F9695879508959B01AC0152CF9F3FB4
:1029600031F0915020F4879577956795B795880F4A
:10297000911D9695879597F9089591505040660F4F
:10298000771F881FD2F708959F938F937F936F933C
:10299000FF93EF939B01AC0134DFEF91FF9184DE55
:1029A0002F913F914F915F912CCFAA1BBB1B51E1FF
:1029B00007C0AA1FBB1FA617B70710F0A61BB70BAF
:1029C000881F991F5A95A9F780959095BC01CD0154
:1029D000089597FB092E05260ED057FD04D014D07C
:1029E0000AD0001C38F450954095309521953F4F02
:1029F0004F4F5F4F0895F6F79095809570956195CC
:102A00007F4F8F4F9F4F0895A1E21A2EAA1BBB1B29
:102A1000FD010DC0AA1FBB1FEE1FFF1FA217B307AA
:102A2000E407F50720F0A21BB30BE40BF50B661FC0
:102A3000771F881F991F1A9469F760957095809584
:102A400090959B01AC01BD01CF0108950790F691CF
:082A5000E02D0994F894FFCF7A
:102A5800747275650066616C7365000A0D005F002D
:102A6800616C6661206A653A0062657461206A6516
:102A78003A0067616D6D61206A653A0064656C743F
:102A880061206A653A00706F7A696365206D6F74BA
:102A98006F7275313A00706F7A696365206D6F7473
:102AA8006F7275323A006E657A617361686E75741B
:102AB80065004D6F746F72003A0000020002000258
:102AC80000020002000200026A656475006B6F7301
:102AD800746B61206E6173746176656E61007279E2
:102AE80063686C6F7374206E6173746176656E6170
:102AF800007A616B6C61646E6920706F7A696365D6
:102B08000063656B656A202E2E2E00616B747561FB
:102B18006C697A756A20706F6C65000A0A0D20204E
:0E2B28006F6B200A0D000001080923232323F0
:00000001FF
