:100000000C94E2000C9411010C9411010C94110158
:100010000C9411010C9411010C9411010C94110118
:100020000C9411010C9411010C9411010C94110108
:100030000C9411010C9411010C9411010C941101F8
:100040000C9450010C9411010C944A060C94D70F97
:100050000C9411010C9411010C9411010C941101D8
:100060000C9411010C9411010C9411010C941101C8
:100070000C9411010C9411010C940D030C94C60501
:100080000C9411010C9411010C941101084AD73BF6
:100090003BCE016E84BCBFFDC12F3D6C74319ABD57
:1000A00056833DDA3D00C77F11BED9E4BB4C3E917B
:1000B0006BAAAABE000000803F072C7AA5BA6CC5C7
:1000C00090DA3B9365FC8BBC53F810FD3C56928351
:1000D0004DBD879D3AB63DCBC9BF5BBE73DA0FC934
:1000E0003FC800C800C800C800C800C800C8000059
:1000F000022C02A700CF038B02E601240200023289
:10010000000E004B022A02FE01D401AC01F603CC22
:1001100003A7037C035A0333030C03E702BC0293D7
:100120000272024D022402FE01D601B20188016072
:10013000013C011B01EF00CA00A8007E005800C668
:10014000004603A800A80014035F014E01220162CB
:10015000026202EB02F100F100F1002F022F028C8B
:10016000025D0250029F012C0328032B031202128E
:1001700002A100F402F402F402D301D301F4002737
:10018000002E01BF01C9000E010E01B102B102F83B
:1001900002890189012701CA00CA005A01D1039BC3
:1001A00001DD01B600B600B700180318035303B50C
:1001B00000B500FE00F500F500BE00B002D600AAB2
:1001C0000000E11011241FBECFEFD0E1DEBFCDBF94
:1001D00011E0A0E0B1E0E0E2F8E200E00BBF02C015
:1001E00007900D92A23DB107D9F714E0A2EDB1E05E
:1001F00001C01D92A536B107E1F711E0C4ECD1E0D2
:1002000000E006C022970109FE010BBF0E940A14FC
:10021000C23CD10780E00807A9F70E9489100C941E
:100220000E140C9400000F931F938B019C0137FF59
:1002300007C030952095109501951F4F2F4F3F4FC8
:10024000B801C9011F910F910895AB01BC01425043
:1002500050406040704000000000000000000000BE
:10026000000080E090E0DC0184179507A607B7073F
:1002700048F4000000000000000000000196A11DED
:10028000B11DF2CF089583B1837F886083B96AE09E
:1002900070E080E090E00E94250180E98AB908952D
:1002A0001F920F920FB60F9211248F939F93AF93CB
:1002B000BF938091720390917303A0917403B091E6
:1002C000750380589F4FAF4FBF4F80937203909339
:1002D0007303A0937403B0937503BF91AF919F9183
:1002E0008F910F900FBE0F901F901895CF92DF92B5
:1002F000EF92FF920F931F93FC01809172039091F4
:100300007303A0917403B091750322B730E0359563
:100310002795A901662757FD6095762F840F951FB5
:10032000A61FB71FC080D180E280F3804091720386
:1003300050917303609174037091750322B730E09C
:1003400035952795F9018F01222717FD2095322F2A
:10035000040F151F261F371F081B190B2A0B3B0BF9
:100360000C151D052E053F0508F31F910F91FF90F9
:10037000EF90DF90CF90089583B7816083BF089599
:10038000CF92DF92EF92FF92C090D301D090D40130
:10039000E090D501F090D60191E080E021E030E0DE
:1003A000A901092E02C0440F551F0A94E2F76627DF
:1003B00057FD6095762F4C215D216E217F214115DF
:1003C00051056105710511F09FE181E09F5F903259
:1003D00039F79093D801FF90EF90DF90CF90089578
:1003E0009091D20121E030E002C0220F331F8A95A4
:1003F000E2F7662311F0292B02C0209529232093D0
:10040000D2010895AC01FC01EE59FF4FA081B181EA
:10041000A80FB91F6C9320813181DC01A05ABF4F16
:100420008D919C91119701972817390751F0808180
:1004300091818F35910589F48D919C911197009749
:1004400061F44C595F4FDA018C91882321F005C08B
:10045000118210820AC080E0089580819181019606
:10046000918380838036910599F381E008951F93ED
:10047000CF93DF93162FEC01CB59DF4FCE01612FC5
:100480000E9402028823D1F380919A0080628093B7
:100490009A00DF91CF911F9108952F923F924F9232
:1004A0005F926F927F928F929F92AF92BF92CF9204
:1004B000DF92EF92FF920F931F93CF93DF93CDB70D
:1004C000DEB760970FB6F894DEBF0FBECDBF1C013C
:1004D0006A017B01122F411551056105710531F04B
:1004E0000DC060E20E9437020F5F01C001E0C10150
:1004F0000117B8F360E30E94370268C077FF0DC0B0
:100500008DE28983F094E094D094C094C11CD11CF6
:10051000E11CF11C115001E001C000E08AE090E014
:100520009E878D87812C2AEC922E2AE9A22E2BE31E
:10053000B22E3AE0432E512C612C712CC814D904F0
:10054000EA04FB04DCF0E1E0F0E0EC0FFD1FE00F5B
:10055000F11DF88BEF87C701B601A50194010E9438
:10056000CD13CA01B901A30192010E94CD13605DB0
:10057000EF85F88960830F5F11111150C501B40137
:10058000A30192010E94CD1349015A018D859E85D8
:1005900001979E878D87009789F6CC2405C0C101FD
:1005A00060E20E943702C394C116C9F74E01089455
:1005B000811C911C640106C0F60161916F01C101AB
:1005C0000E9437028C2D88198017B0F360960FB601
:1005D000F894DEBF0FBECDBFDF91CF911F910F9179
:1005E000FF90EF90DF90CF90BF90AF909F908F9053
:1005F0007F906F905F904F903F902F900895CF9392
:10060000DF93EC0104C086E793E00E943702699112
:100610006623C9F7DF91CF9108951F920F920FB60D
:100620000F920BB60F9211242F933F934F935F932A
:100630006F937F938F939F93AF93BF93CF93EF93DA
:10064000FF93C0919C0080919B0084FD23C086E7AE
:1006500093E06C2F0E94020280916404E82FF0E086
:10066000E253FE4F9081C91799F48F5F8093640421
:10067000843081F410929B0010929A0010929D0099
:100680001092990010929800F0EFE0E0099402C0F7
:1006900010926404FF91EF91CF91BF91AF919F9120
:1006A0008F917F916F915F914F913F912F910F901B
:1006B0000BBE0F900FBE0F901F901895AC01FC0160
:1006C000EE59FF4F20813181FC01E05AFF4F8081BC
:1006D00091812817390751F40190F081E02DE40F42
:1006E000F51F80810895118210820895A081B18143
:1006F000A40FB51F8C91208131812F5F3F4F318333
:1007000020832036310589F7EECFAC01FC01EE598C
:10071000FF4FDC01A05ABF4F808191812D913C9108
:10072000119782179307C1F3CA010E945E030895CF
:100730003F924F925F926F927F928F929F92AF9271
:10074000BF92CF92DF92EF92FF920F931F93CF93BE
:10075000DF931092D801C1E0D0E0A6C086E793E015
:100760000E948503082F482F50E060E070E086E784
:1007700093E0209140040E944D028BE091E00E94A2
:10078000FF021092D70110E073C0282F30E0A801BB
:1007900002C0559547958A95E2F7FA01E170F0702D
:1007A00040FF29C04091D80150E0A3E0440F551FFD
:1007B000AA95E1F7420F531FCE0102C0880F991F7F
:1007C0004A95E2F7AC01662757FD6095762F809138
:1007D000D3019091D401A091D501B091D601842B81
:1007E000952BA62BB72B8093D3019093D401A09384
:1007F000D501B093D601309771F54091D80150E002
:10080000F3E0440F551FFA95E1F7420F531F9E0185
:1008100002C0220F331F4A95E2F7A9014095509577
:10082000662757FD6095762F8091D3019091D40172
:10083000A091D501B091D60184239523A623B72397
:100840008093D3019093D401A093D501B093D601A6
:1008500085E091E002C080E091E00E94FF028EE01E
:1008600091E00E94FF028091D7018F5F8093D701B2
:100870008091D701883009F088CF4091D301509101
:10088000D4016091D5017091D60186E793E0209163
:1008900040040E944D028BE091E00E94FF02809193
:1008A000D8018F5F8093D8018091D801843009F0FE
:1008B00055CF1092D80158C086E793E00E94850377
:1008C000C82F482F50E060E070E086E793E0209169
:1008D00040040E944D028BE091E00E94FF021092C2
:1008E000D701D0E025C0BE01082E02C075956795DE
:1008F0000A94E2F7617070700E94F001CE010090DE
:10090000D70102C0959587950A94E2F780FF03C04E
:1009100080E091E002C085E091E00E94FF028EE05D
:1009200091E00E94FF028091D7018F5F8093D701F1
:100930008091D7018830B9F64091D20150E060E053
:1009400070E086E793E0209140040E944D028BE026
:1009500091E00E94FF028BE091E00E94FF028091F3
:10096000D8018F5F8093D8018091D801813009F040
:10097000A3CF1092D801C1E0D0E01FC0AE0102C0E9
:10098000440F551F8A95E2F7CA01AA2797FDA09543
:10099000BA2F88219921AA21BB210097A105B10571
:1009A00019F080E091E002C085E091E00E94FF0232
:1009B0008091D8018F5F8093D8018091D801809079
:1009C000D3019090D401A090D501B090D60180328F
:1009D000A9F6CC24DD2476012091D20130E040E05C
:1009E00050E060E070E080E090E000E20E940F10D4
:1009F000280DE1E0281508F0E0E0390DA1E03915F7
:100A000008F0A0E03E2E330EE1E0331608F0E0E0FF
:100A1000AE2B4A0DB1E04A1508F0B0E0A40F31E06A
:100A2000A41708F030E0B32B5B0DC1E05B1508F0B4
:100A3000C0E0B50F31E0B51708F030E0C32B31E06E
:100A40006C1508F030E0C60F41E0C61708F040E032
:100A5000342B41E07D1508F040E0632F670F31E053
:100A6000671708F030E0432B51E08E1508F050E096
:100A7000E42EE80E31E0E81608F030E0352B390FAF
:100A8000BB2440E050E070E0D0E010E000E08824BB
:100A9000FF24E1E0CE2ED12C17C0EB2DF0E0E65381
:100AA000FE4FC601008002C0880F991F0A94E2F72A
:100AB000E92FEE0FEE0B482B592B7E2BDE2B1E2B36
:100AC0000E2B8E2AFE2AB39484E0B81631F780E00C
:100AD000B22EE1E0F0E0082E02C0EE0FFF1F0A94F4
:100AE000E2F79E2FDF2EFF0FFF0BE92FEB214D2C9E
:100AF00043205F2E5A226F2E6B227F2E7C229F2E48
:100B00009622AF2EAE20CF2EC32221E0E429E52984
:100B1000E629E729E929EA29EC2909F420E09423C8
:100B2000D5226F2E67227F2E7D229F2E9122AF2EFF
:100B3000A022CF2EC820FF21E1E09D2996299729E8
:100B400099299A299C299F2B09F0E0E02E1739F06A
:100B5000883219F48093D80106C08F5FBACF809392
:100B6000D801883209F480E0DF91CF911F910F9175
:100B7000FF90EF90DF90CF90BF90AF909F908F90BD
:100B80007F906F905F904F903F9008951F920F92CB
:100B90000FB60F920BB60F9211242F933F934F93E2
:100BA0005F936F937F938F939F93AF93BF93EF93D5
:100BB000FF9320913D0430913E0480913B0490913D
:100BC0003C042817390731F480919A008F7D809377
:100BD0009A0006C08BED93E00E945E0380939C0018
:100BE000FF91EF91BF91AF919F918F917F916F9105
:100BF0005F914F913F912F910F900BBE0F900FBEC1
:100C00000F901F901895AC01FC01EE59FF4FA08189
:100C1000B181A80FB91F6C9320813181DC01A05AEA
:100C2000BF4F8D919C91119701972817390751F06B
:100C3000808191818F35910589F48D919C911197D7
:100C4000009761F44C595F4FDA018C91882321F0B1
:100C500005C0118210820AC080E0089580819181D0
:100C60000196918380838036910599F381E0089500
:100C70001F93CF93DF93162FEC01CB59DF4FCE019B
:100C8000612F0E9403068823D1F3559ADF91CF91FB
:100C90001F9108951F920F920FB60F920BB60F92ED
:100CA00011242F933F934F935F936F937F938F9371
:100CB0009F93AF93BF93CF93EF93FF93CCB15C9986
:100CC00007C088EA92E06C2F0E9403068823C9F3CC
:100CD000FF91EF91CF91BF91AF919F918F917F91B4
:100CE0006F915F914F913F912F910F900BBE0F909D
:100CF0000FBE0F901F901895AC01FC01EE59FF4FED
:100D000020813181FC01E05AFF4F808191812817B9
:100D1000390751F40190F081E02DE40FF51F808137
:100D20000895118210820895A081B181A40FB51F8A
:100D30008C91208131812F5F3F4F3183208320367A
:100D4000310589F7EECFCF93DF93EB01FC01EE592C
:100D5000FF4F40815181FC01E05AFF4F20813181DA
:100D60004217530721F480E0DF91CF9108950E944C
:100D70007C06888381E0F8CF4F925F926F927F92DA
:100D80008F929F92AF92BF92CF92DF92EF92FF929B
:100D90000F931F93CF93DF9300D0CDB7DEB76C01D5
:100DA000762E29016E2CE02E262F2E5F240F200F89
:100DB00030E006C0840D951DFC018081280F3F5F47
:100DC000832F90E080179107A8F3F22EF0941982F8
:100DD00083B1837F846083B988E08AB9C6016FEFED
:100DE0004A830E943806C6016FEF0E943806C6018A
:100DF000672D0E9438066E2D6E5FC6010E94380670
:100E0000C6014A81642F0E943806A42C820106C0C4
:100E1000F80161918F01C6010E943806802F8A195E
:100E20008E15B0F3C6016F2D0E943806F601E95306
:100E3000FF4FD601AB53BF4F808191812D913C91E3
:100E400011978217930709F07CC07DC0C601BE01CF
:100E50006F5F7F4F0E94A3068823C1F389818F3F74
:100E6000A9F7C601BE016F5F7F4F0E94A3068823CA
:100E7000C1F389818F3FA9F7C601BE016F5F7F4F24
:100E80000E94A3068823C1F389818715A9F7C601AB
:100E9000BE016F5F7F4F0E94A3068823C1F30981C3
:100EA000102F1150520114C00894E11CF11CE814D9
:100EB000F90421F4115008C0EE24FF24C601B50145
:100EC0000E94A306882381F30894A11CB11C015041
:100ED000013091F71615E9F48981780E40E090E031
:100EE000019706C0240D351DF9012081720E4F5F58
:100EF000242F30E028173907A9F77094C601BE01E6
:100F00006F5F7F4F0E94A3068823C1F38981781603
:100F100019F08FEF9FEF02C080E090E00F900F90EC
:100F2000DF91CF911F910F91FF90EF90DF90CF90C5
:100F3000BF90AF909F908F907F906F905F904F90F9
:100F400008955E9B79CF5E9A0E9443017FCF8F9276
:100F50009F92AF92BF92CF92DF92EF920F931F9327
:100F6000CF93DF9300D00F92CDB7DEB749832A83AA
:100F70003B8343E09E012F5F3F4F03E010E0EE24F0
:100F8000E394B4EFAB2EB1E0BB2EC12CD12C54EFC7
:100F9000852E51E0952E0E94BC062981009711F400
:100FA000822F02C0822F806890E00F900F900F90E8
:100FB000DF91CF911F910F91EF90DF90CF90BF9075
:100FC000AF909F908F900895CF93DF931092D801A8
:100FD000C82FD0E020C03E2F3F5F30934202F0E0A8
:100FE000EE0FFF1FEF51FF4F85919491BE010E94BC
:100FF000B913FB0188EA92E0632F40E29F010E944F
:10100000A707682F83E492E00E9403068091D8012D
:101010008F5F8093D801E091D801E730E1F6DF914E
:10102000CF910895CF93DF939C01C2E4D2E088EA88
:1010300092E0609142024EE10E94A707682FCE0124
:1010400001960E940306CE01DF91CF910895CF93C0
:10105000DF939C01C2E4D2E088EA92E06091420210
:101060004EE10E94A707682FCE0101960E94030659
:10107000CE01DF91CF9108952F923F924F925F92D0
:101080006F927F928F929F92AF92BF92CF92DF9298
:10109000EF92FF920F931F93CF93DF93CDB7DEB7FD
:1010A0006C970FB6F894DEBF0FBECDBF4B015C014D
:1010B00069017A01A50194010E94FC12062F472EB6
:1010C000382E292EC701B601A70196010E94FC12F5
:1010D000F62FE72F382F292FC101402F542D692FCC
:1010E000782FCB01BA01DF01A9010B2F1A2F252F71
:1010F000342FA90198010E9405110E94631369838E
:101100007A838B839C8320E030E04CEB53E40E9495
:10111000CB110E94F6102B013C01C701B601A501BD
:1011200094010E9478116D837E838F839887C30119
:10113000B2012D813E814F8158850E940511362EC6
:10114000272E8D879E87C301B201A30192010E94C1
:1011500005119B01AC016BED7FE089E490E40E94F6
:1011600004116F87788B898B9A8B69817A818B8147
:101170009C8120E030E040E05FE30E94FC129B0194
:10118000AC010E94FC12B62FA72F382F292F60E048
:1011900070E18AE896E4FD01A9010F2F1E2F252F8B
:1011A000342FA90198010E94041120E030E14AE89F
:1011B00056E40E94CB110E94F61069837A838B83D8
:1011C0009C8322E93AE046E85FE30E9405116B8BBD
:1011D0007C8B8D8B9E8BA1013D852E85852F942F39
:1011E000A32FB22FBC01CD0122E93AE046E85FE32C
:1011F0000E94051120E030E044E353E40E94FC1219
:101200002BED3FE049E450E40E94CB112EE034E79F
:101210004AE550E40E94FC120E94381269877A87DE
:101220008B879C8789859A85988F8F8B5F85488966
:1012300039892A89852F942FA32FB22FBC01CD0184
:1012400022E93AE046E85FE30E94051120E030E041
:1012500044E353E40E94FC122BED3FE049E450E4E8
:101260000E94CB112EE034E74AE550E40E94FC12C4
:101270000E9438124B015C017A8F698F5B894C891F
:101280003D892E89852F942FA32FB22FBC01CD012C
:1012900022E93AE046E85FE30E94051120E030E0F1
:1012A00044E353E40E94FC122BED3FE049E450E498
:1012B0000E94CB112EE034E74AE550E40E94FC1274
:1012C00020E030E849E953E40E9404110E943812FA
:1012D0006B017C017C8F6B8F82E080934202898559
:1012E0009A850E94270883E080934202C4010E94ED
:1012F000270884E080934202C6010E94270880E10B
:1013000091E00E94FF0206E713E0C301B20120E072
:1013100030E044E353E40E94FC122BED3FE049E44B
:1013200050E40E94CB110E943312AB01BC0166272E
:1013300057FD6095762FC801209140040E944D0210
:10134000EBE0CE2EE1E0DE2EC6010E94FF0284E13A
:1013500091E00E94FF026D817E818F81988520E05F
:1013600030E044E353E40E94FC122BED3FE049E4FB
:1013700050E40E94CB110E943312AB01BC016627DE
:1013800057FD6095762FC801209140040E944D02C0
:10139000C6010E94FF0288E191E00E94FF02A101C4
:1013A0003D852E85852F942FA32FB22FBC01CD0113
:1013B00020E030E044E353E40E94FC122BED3FE0D8
:1013C00049E450E40E94CB110E943312AB01BC01EE
:1013D000662757FD6095762FC801209140040E9432
:1013E0004D02C6010E94FF028CE191E00E94FF02C3
:1013F0005F85488939892A89852F942FA32FB22F99
:10140000BC01CD0120E030E044E353E40E94FC1233
:101410002BED3FE049E450E40E94CB110E943312CF
:10142000AB01BC01662757FD6095762FC80120915E
:1014300040040E944D02C6010E94FF0280E291E03A
:101440000E94FF02C8014CE350E060E070E0209190
:1014500040040E944D02C6010E94FF0284E291E016
:101460000E94FF0269817A818B819C8120E030E0BB
:1014700044E353E40E94FC122BED3FE049E450E4C6
:101480000E94CB110E943312AB01BC01662757FDAD
:101490006095762FC801209140040E944D02C6013C
:1014A0000E94FF0288E291E00E94FF025B894C8962
:1014B0003D892E89852F942FA32FB22FBC01CD01FA
:1014C00020E030E044E353E40E94FC122BED3FE0C7
:1014D00049E450E40E94CB110E943312AB01BC01DD
:1014E000662757FD6095762FC801209140040E9421
:1014F0004D02C6010E94FF028CE291E00E94FF02B1
:10150000EF89F88DAF0160E070E0C80120914004E0
:101510000E944D02C6010E94FF0286E391E00E94F4
:10152000FF02898D9A8DAC0160E070E0C8012091C6
:1015300040040E944D02C6010E94FF0280E491E037
:101540000E94FF02EB8DFC8DAF0160E070E0C801EE
:10155000209140040E944D02C6010E94FF026C9639
:101560000FB6F894DEBF0FBECDBFDF91CF911F91B4
:101570000F91FF90EF90DF90CF90BF90AF909F9032
:101580008F907F906F905F904F903F902F90089535
:101590004F925F926F927F928F929F92AF92BF9283
:1015A000CF92DF92EF92FF920F931F93CF93DF932F
:1015B000CDB7DEB728970FB6F894DEBF0FBECDBF0C
:1015C0004B015C0169017A01A50194010E94FC12A2
:1015D000162F072F482E792EC701B601A7019601B5
:1015E0000E94FC12F62FE72F382F292FD8014B2FFE
:1015F0005A2F642D772DCB01BA01DF01A9010B2FE2
:101600001A2F252F342FA90198010E9405110E943D
:1016100063132B013C01C701B601A50194010E948F
:10162000781169837A838B839C83C301B201A30100
:1016300092010E94FC12C62E072F882E192F862F8A
:10164000902FA82DB12FBC01CD0120E030E0A901E1
:101650000E9405116D837E838F839887C301B20139
:1016600020E030E04CE353E40E94FC129B01AC010B
:101670006D817E818F8198850E94CB110E94F6102A
:101680002B013C0160E070E18AE896E4E02F412FF5
:101690000C2D1E2F282D342FA90198010E94041112
:1016A00020E030E14AE856E40E94CB110E94F61097
:1016B0006B017C0182E08093420269817A818B8197
:1016C0009C81A30192010E94051122E93AE046E8BB
:1016D0005FE30E94051120E030E044E353E40E9400
:1016E000FC122BED3FE049E450E40E94CB112EE0C8
:1016F00034E74AE550E40E94FC120E943812DC01F3
:10170000CB010E94270883E080934202C701B60103
:1017100022E93AE046E85FE30E9405112BED3FE045
:1017200049EC5FE30E94041120E030E044E353E41D
:101730000E94FC122BED3FE049E450E40E94CB11E3
:101740002EE034E74AE550E40E94FC120E94381271
:10175000DC01CB010E94270828960FB6F894DEBF63
:101760000FBECDBFDF91CF911F910F91FF90EF90F2
:10177000DF90CF90BF90AF909F908F907F906F90B1
:101780005F904F9008958F929F92AF92BF92CF92A9
:10179000DF92EF920F931F93CF93DF9300D0CDB7DB
:1017A000DEB749832A8343E09E012F5F3F4F02E06B
:1017B00010E0EE24E394F4EFAF2EF1E0BF2EC12C45
:1017C000D12CA4EF8A2EA1E09A2E0E94BC0629817A
:1017D000009711F4822F02C0822F806890E00F9052
:1017E0000F90DF91CF911F910F91EF90DF90CF90ED
:1017F000BF90AF909F908F9008951092D80113C022
:101800006F5F6093420288EA92E048E120E00E9424
:10181000C30B682F83E492E00E9403068091D801F5
:101820008F5F8093D8016091D801673049F70895A0
:101830006F927F928F929F92AF92BF92CF92DF92E0
:10184000EF920F931F93CF93DF9300D00F92CDB7FA
:10185000DEB73C010894611C711CFC0160819E0193
:101860002F5F3F4F83E0F90111928A95E9F782E0FB
:101870008A8384E2898388EA92E042E002E010E011
:10188000B3E0EB2E54EFA52E51E0B52EC12CD12C98
:1018900074EF872E71E0972E0E94BC066981009735
:1018A00009F0606869839B8180E00A8110E0082B61
:1018B000192BC3010E940306C8010F900F900F90CF
:1018C000DF91CF911F910F91EF90DF90CF90BF905C
:1018D000AF909F908F907F906F9008956F927F92BE
:1018E0008F929F92AF92BF92CF92DF92EF92FF9230
:1018F0000F931F93CF93DF9300D0CDB7DEB78FEF59
:101900009CE4A8E081509040A040E1F700C00000B6
:10191000FF24F39477247394B6E26B2EF092420284
:101920007A82698288EA92E06F2D42E09E012F5F01
:101930003F4F02E010E0E2E0EE2EF4EFAF2EF1E0D8
:10194000BF2EC12CD12CA4EF8A2EA1E09A2E0E948A
:10195000BC066981009709F0606869831A8183E495
:1019600092E00E940306112309F4F39497E0F9161C
:10197000A9F60F900F90DF91CF911F910F91FF90DB
:10198000EF90DF90CF90BF90AF909F908F907F901F
:101990006F90089586E08093420288E092E00E9472
:1019A000120887E08093420288EF91E00E941208BB
:1019B0000E946E0C089586E08093420286EE91E0CC
:1019C0000E94120887E08093420284E292E00E9423
:1019D00012080E946E0C089591E09093420290E0EC
:1019E000880F991F83509F4FFC01859194910E940D
:1019F00027080E946E0C08950E94DB0C8091D20192
:101A000080FF04C088E08093CA0103C088E080930F
:101A1000CB010E94CA0C88E00E94EC0C0E94DB0CF7
:101A20000895CF93DF93D82FC62F0E94EC0CD3508C
:101A3000D53008F067C08AE491E00E94FF028BE095
:101A400091E00E94FF0283E08093D701D2E030C092
:101A5000D093D8011DC0809342022091D70190E01D
:101A60000297FC01B4E0EE0FFF1FBA95E1F7E81B07
:101A7000F90BE20FF11DEE0FFF1FE75BFE4F8591A3
:101A800094910E9427088091D8018F5F8093D8019C
:101A90008091D8018630F9F60E946E0C8091D701B2
:101AA00082500E94E4078091D7018F5F8093D70115
:101AB0008091D701863061F60E94DB0CCC2311F0B7
:101AC0000E94CA0C82E017C0E0934202F0E0329715
:101AD000CF01880F991FA5E0EE0FFF1FAA95E1F730
:101AE000E81BF90BE15BFE4F859194910E9427085A
:101AF0008091D8018F5F8093D801E091D801E630C2
:101B000019F75DC01092D701D2E030C0D093D80150
:101B10001DC0809342022091D70190E00297FC0102
:101B200054E0EE0FFF1F5A95E1F7E81BF90BE20FA7
:101B3000F11DEE0FFF1FE75BFE4F859194910E9410
:101B400027088091D8018F5F8093D8018091D801B8
:101B50008630F9F60E946E0C8091D7018F5F0E944B
:101B6000E4078091D7018F5F8093D7018091D701DF
:101B7000833061F60E94DB0CCC2311F00E94CA0C6A
:101B800082E017C0E0934202F0E03297CF01880F65
:101B9000991F45E0EE0FFF1F4A95E1F7E81BF90B8F
:101BA000E75BFE4F859194910E9427088091D801B0
:101BB0008F5F8093D801E091D801E63019F70E9439
:101BC0006E0C81E00E94E407DF91CF91089560E000
:101BD0000E94110D089561E00E94110D0895109268
:101BE000D80112C08E2F8F5F80934202F0E0EE0F7B
:101BF000FF1FE151FF4F859194910E94270880912A
:101C0000D8018F5F8093D801E091D801E73051F778
:101C10000E946E0C08951092D80114C06F5F6093FB
:101C2000420288EA92E042E228EE33E00E94A707EF
:101C3000682F83E492E00E9403068091D8018F5FB1
:101C40008093D8016091D801673041F71092D80194
:101C500013C06F5F6093420288EA92E048E121E09E
:101C60000E94C30B682F83E492E00E9403068091D8
:101C7000D8018F5F8093D8016091D801673049F710
:101C80000E946E0C0895CF93DF93CDB7DEB72E97E9
:101C90000FB6F894DEBF0FBECDBFDE011196EEE5A4
:101CA000F1E08EE001900D928150E1F781E016C0E5
:101CB0000093420282E492E00E94180CE02FF0E0D0
:101CC0003197EE0FFF1F21E030E02C0F3D1FE20F98
:101CD000F31F918380838091D8018F5F8093D80117
:101CE0000091D801073021F755E0F52E63E0E62E8C
:101CF00074E0D72EE2E0CE2EF6E0BF2EA7E0AA2EAB
:101D000086E793E00E9485038A3609F45BC08B3630
:101D100090F4863699F1873638F4843601F18536A9
:101D200010F5813669F780C0883609F43FC08936DE
:101D300008F063C02FC0843789F1853740F48137BC
:101D400009F46CC08237F1F08B36D1F647C0873783
:101D500009F467C08A3771F1853791F637C08981F8
:101D60009A81039703C089819A8103969A83898314
:101D700021E0209342020E942708C2CF8B819C81E0
:101D8000039703C08B819C8103969C838B83C092B5
:101D90004202F1CF8D819E81039703C08D819E8188
:101DA00003969E838D83E0924202E5CF8F819885D2
:101DB000039703C08F819885039698878F83D0926D
:101DC0004202D9CF89859A85039703C089859A8570
:101DD00003969A878987F0924202CDCF0B851C85A6
:101DE000C80103979C878B87B09242020E94270804
:101DF000A092420283E094E00EC00B851C85C801CE
:101E000003969C878B87B09242020E942708A0927B
:101E100042028DEF93E0801B910BADCF0E94FD0B32
:101E20006FCF0E940B0E6CCF81E02FC086E591E052
:101E30000E94FF024091D80150E060E070E086E728
:101E400093E0209140040E944D028CE591E00E94B5
:101E5000FF028091D8018093420282E492E00E94C6
:101E6000180CAC0160E070E086E793E0209140043C
:101E70000E944D028BE091E00E94FF028BE091E016
:101E80000E94FF028091D8018F5F8093D8018091DA
:101E9000D801873058F281E016C00093420282E4F4
:101EA00092E00E94180CE02FF0E03197EE0FFF1F38
:101EB00021E030E02C0F3D1FE20FF31F9183808360
:101EC0008091D8018F5F8093D8010091D8010730AD
:101ED00021F716CF0E94FD0B8099FECF0E940B0EBA
:101EE0008CE691E00E94FF028BE091E00E94FF02ED
:101EF0000E94BC0181E791E00E94FF028BE091E02B
:101F00000E94FF0281E00E94E40782E891E00E94C3
:101F1000FF028BE091E00E94FF020E94EF0D85E935
:101F200091E00E94FF028BE091E00E94FF020E947C
:101F30006E0C85EA91E00E94FF028BE091E00E9426
:101F4000FF028FEA91E00E94FF028BE091E00E9485
:101F5000FF0281E08093CA018099FECF809BFECF73
:101F60001092D80114C06F5F6093420288EA92E039
:101F700040E22FEF33E00E94A707682F83E492E04E
:101F80000E9403068091D8018F5F8093D8016091F1
:101F9000D801673041F760E070E088EC92E420E01F
:101FA00030E048E452E40E943C080E94430E1F9235
:101FB0000F920FB60F920BB60F9211242F933F93EF
:101FC0004F935F936F937F938F939F93AF93BF9341
:101FD000EF93FF9320916F033091700380916D0315
:101FE00090916E032817390711F4559805C08DE0BC
:101FF00093E00E947C068CB9FF91EF91BF91AF9165
:102000009F918F917F916F915F914F913F912F9110
:102010000F900BBE0F900FBE0F901F901895CF9290
:10202000DF92EF92FF920F93CF93DF93CDB7DEB79E
:1020300060970FB6F894DEBF0FBECDBF002309F442
:102040005AC029873A874B875C876D877E878F8741
:10205000988B80E2801B49855A856B857C85181694
:10206000B4F019821A821B821C82992787FD9095F1
:10207000909581959F4F04C0440F551F661F771F91
:102080008A95D2F74D835E836F8378872CC06A016F
:102090007B01002E04C0CC0CDD1CEE1CFF1C0A943E
:1020A000D2F7C982DA82EB82FC826A017B0104C02A
:1020B000F694E794D794C7948A95D2F7D701C601CE
:1020C0004D855E856F85788904C0440F551F661F56
:1020D000771F0A95D2F7842B952BA62BB72B8D83D0
:1020E0009E83AF83B88729813A814B815C816D8162
:1020F0007E818F81988560960FB6F894DEBF0FBE03
:10210000CDBFDF91CF910F91FF90EF90DF90CF90F7
:1021100008958FE784BB8EE785BB8CE082B981EFA1
:1021200083B980E281BB81E282BB10923F041092AE
:10213000DA03D2E0D0939B0098E990939A0086E06E
:1021400080939D001092980022E220939900C1E0B4
:10215000C0934004C0934104C09363041092710380
:1021600010920C03DBB99AB98093950010929000FD
:10217000C9B982B18C6082B90E944301C7BFD3BF85
:10218000789468EE73E080E090E00E9425018FEB88
:1021900091E00E94FF0220913D0430913E04809125
:1021A0003B0490913C042817390721F080919B0053
:1021B00086FFF1CF80919B00806480939B000E94FA
:1021C0006A0F80E006C0E82FF0E0EE5BFB4F108264
:1021D0008F5F8032C1F71092620481E08093A70282
:1021E0008093410284E68093DC0108959F939F775A
:1021F0006BD10F9000203AF49058A2EA2AED3FE00C
:1022000049E450E413D0B7C15058BB27AA270ED0D9
:10221000B2C1A3D130F0A8D120F031F49F3F11F426
:102220001EF473C10EF4E095E7FB69C1E92FB4D148
:1022300080F3BA17620773078407950718F071F4E3
:102240009EF5CCC10EF4E0950B2EBA2FA02D0B01FC
:10225000B90190010C01CA01A0011124FF27591BEB
:1022600099F0593F50F4503E68F11A16F040A22FF1
:10227000232F342F4427585FF3CF46953795279562
:10228000A795F0405395C9F77EF41F16BA0B620B61
:10229000730B840BBAF09150A1F0FF0FBB1F661FA8
:1022A000771F881FC2F70EC0BA0F621F731F841FEB
:1022B00048F4879577956795B795F7959E3F08F011
:1022C000B3CF9395880F08F09927EE0F97958795D0
:1022D000089543D158F080E891E009F49EEF44D18D
:1022E00028F040E851E059F45EEF09C00EC176C114
:1022F000E92FE07851D168F3092E052AC1F326179A
:1023000037074807590738F00E2E07F8E02569F01F
:10231000E025E0640AC0EF6307F8009407FADB01E8
:10232000B9019D01DC01CA01AD01EF9343D023D176
:102330000AD05F91552331F02BED3FE049E450FD89
:1023400049EC63CF0895DF93DD27B92FBF7740E8CD
:102350005FE31616170648075B0710F4D92F45D11F
:102360009F938F937F936F93ECD1ECE8F0E0D0D004
:1023700002D12F913F914F915F914AD1DD2349F0D6
:102380009058A2EA2AED3FE049EC5FE3D0785D2760
:102390004DDFDF91F0C00CD0EEC0E6D040F0DDD0D4
:1023A00030F021F45F3F19F0AAC0511118C1ADC03F
:1023B000F3D098F39923C9F35523B1F3951B550B2B
:1023C000BB27AA2762177307840738F09F5F5F4F08
:1023D000220F331F441FAA1FA9F333D00E2E3AF049
:1023E000E0E830D091505040E695001CCAF729D063
:1023F000FE2F27D0660F771F881FBB1F26173707B2
:102400004807AB07B0E809F0BB0B802DBF01FF27E1
:1024100093585F4F2AF09E3F510568F070C0DFC0AF
:102420005F3FECF3983EDCF3869577956795B7951B
:10243000F7959F5FC9F7880F911D9695879597F936
:102440000895E1E0660F771F881FBB1F62177307AF
:102450008407BA0720F0621B730B840BBA0BEE1FC4
:1024600088F7E095089504D06894B111B8C0089534
:102470009BD088F09F5790F0B92F9927B751A0F0C3
:10248000D1F0660F771F881F991F1AF0BA95C9F708
:1024900012C0B13081F0A2D0B1E008959FC0672F83
:1024A000782F8827B85F39F0B93FCCF386957795B8
:1024B0006795B395D9F73EF49095809570956195A1
:1024C0007F4F8F4F9F4F0895DF93CF931F930F93AD
:1024D0008B01EC01E9EBF0E01BD04DD09801AE018F
:1024E0008B01EC0160E070E080E89FE38DDEEBD0D3
:1024F0009801AE010F911F91CF91DF9189C097F99B
:102500009F6780E870E060E008959FEF80EC089599
:10251000DF93CF931F930F93FF92EF92DF927B0194
:102520008C01689405C0DA2EEF0172D0FE01E894A8
:10253000A5912591359145915591AEF3EF0176DE48
:10254000FE019701A801DA9479F7DF90EF90FF90F0
:102550000F911F91CF91DF91089500240A941616D0
:10256000170618060906089500240A941216130681
:10257000140605060895092E0394000C11F488230F
:1025800052F0BB0F40F4BF2B11F460FF04C06F5F2B
:102590007F4F8F4F9F4F089557FD9058440F551F01
:1025A00059F05F3F71F04795880F97FB991F61F0D5
:1025B0009F3F79F087950895121613061406551F4C
:1025C000F2CF4695F1DF08C0161617061806991FB8
:1025D000F1CF86957105610508940895E894BB27AD
:1025E00066277727CB0197F908959B01AC0160E03E
:1025F00070E080E89FE3CFCE0BD0BDCFAEDF28F0F8
:10260000B3DF18F0952309F07ACF7FCF1124E7CFFD
:10261000C3DFA0F3959FD1F3950F50E0551F629F44
:10262000F001729FBB27F00DB11D639FAA27F00D2B
:10263000B11DAA1F649F6627B00DA11D661F829F52
:102640002227B00DA11D621F739FB00DA11D621F37
:10265000839FA00D611D221F749F3327A00D611D54
:10266000231F849F600D211D822F762F6A2F112436
:102670009F5750408AF0E1F088234AF0EE0FFF1F89
:10268000BB1F661F771F881F91505040A9F79E3FC0
:10269000510570F034CFA3CF5F3FECF3983EDCF3ED
:1026A000869577956795B795F795E7959F5FC1F7FD
:1026B000FE2B880F911D9695879597F9089511F433
:1026C0000EF423CF41C070DFD0F39923D9F3CEF3BA
:1026D0009F57550B87FF46D00024A0E640EA9001A3
:1026E00080585695979528F4805C660F771F881F51
:1026F00020F026173707480730F4621B730B840B52
:10270000202931294A2BA695179407942025312595
:102710004A2758F7660F771F881F20F026173707BC
:10272000480730F4620B730B840B200D311D411DE3
:10273000A09581F7B901842F9158880F96958795B8
:1027400008959B01AC0158CF9F3F31F0915020F488
:10275000879577956795B795880F911D969587957D
:1027600097F9089591505040660F771F881FD2F750
:102770000895AA1BBB1B51E107C0AA1FBB1FA617C8
:10278000B70710F0A61BB70B881F991F5A95A9F71A
:1027900080959095BC01CD01089597FB092E0526E3
:1027A0000ED057FD04D014D00AD0001C38F4509538
:1027B0004095309521953F4F4F4F5F4F0895F6F765
:1027C00090958095709561957F4F8F4F9F4F08959D
:1027D000A1E21A2EAA1BBB1BFD010DC0AA1FBB1F25
:1027E000EE1FFF1FA217B307E407F50720F0A21B97
:1027F000B30BE40BF50B661F771F881F991F1A9404
:1028000069F760957095809590959B01AC01BD012D
:10281000CF0108950790F691E02D0994F894FFCF29
:10282000747275650066616C7365000A0D005F0067
:10283000413120004132200041332000413420004A
:10284000413520004136200041372000506F7A6921
:10285000636520313A00506F7A69636520323A002F
:10286000506F7A69636520333A006E657A617361EF
:10287000686E757465004D6F746F72003A000002E7
:102880000002000200020002000200026A65647594
:10289000006B6F73746B61206E6173746176656E2B
:1028A0006100727963686C6F7374206E6173746118
:1028B00076656E61007A616B6C61646E6920706F21
:1028C0007A6963650063656B656A202E2E2E006150
:1028D0006B7475616C697A756A20706F6C65000A3B
:1028E0000A0D20206F6B200A0D0000010809232328
:0228F0002323A0
:00000001FF
