:100000000C9435010C9464010C9464010C9464010B
:100010000C9464010C9464010C9464010C946401CC
:100020000C9464010C9464010C9464010C946401BC
:100030000C9464010C9464010C9464010C946401AC
:100040000C94A3010C9464010C94A5050C947B08FA
:100050000C9464010C9464010C9464010C9464018C
:100060000C9464010C9464010C9464010C9464017C
:100070000C9464010C9464010C9451030C942105BC
:100080000C9464010C9464010C946401FA00FA006D
:10009000FA00FA00FA00FA00FA00000232000E003C
:1000A0004B022A02FE01D401AC01F603CC03A703E4
:1000B0007C035A0333030C03E702BC02930272026F
:1000C0004D022402FE01D601B201880160013C010B
:1000D0001B01EF00CA00A8007E00580000020002C9
:1000E0000002000200020002000200020002000200
:1000F00000020002000200020002000200020002F0
:1001000000020002000200020002000200020002DF
:1001100000020002000200020002000200020002CF
:1001200000020002000200020002000200020002BF
:1001300000020002000200020002000200020002AF
:10014000000200020002000200020002000200029F
:10015000000200020002000200020002000200028F
:10016000BC022003BC022003BC022003BC0220030B
:10017000BC022003BC022003BC022003BC022003FB
:10018000BC022003BC022003BC022003BC022003EB
:10019000BC022003BC022003BC022003BC022003DB
:1001A000BC02000200020002000200020002000283
:1001B000000200020002000200020002000200022F
:1001C000000200020002000200020002000200021F
:1001D000000200020002000200020002000200020F
:1001E00000020002000200020002000200020002FF
:1001F00000020002000200020002000200020002EF
:1002000000020002000200020002000200020002DE
:1002100000020002000200020002000200020002CE
:1002200000020002000200020002000200020002BE
:1002300000020002000200020002000200020002AE
:10024000000200020002000200020002000200029E
:10025000000200020002000200020002000200028E
:1002600000020002000200020B0911241FBECFEFA2
:10027000D0E1DEBFCDBF11E0A0E0B1E0E6ECF2E1FD
:1002800000E00BBF02C007900D92A032B107D9F772
:1002900013E0A0E2B1E001C01D92AA3BB107E1F773
:1002A00012E0CAE6D2E000E006C022970109FE0192
:1002B0000BBF0E945D09C836D10780E00807A9F787
:1002C0000E94B3080C9461090C9400000F931F93D3
:1002D0008B019C0137FF07C0309520951095019543
:1002E0001F4F2F4F3F4FB801C9011F910F91089524
:1002F000AB01BC0142505040604070400000000023
:10030000000000000000000080E090E0DC018417A5
:100310009507A607B70748F400000000000000009A
:1003200000000196A11DB11DF2CF089583B1837F16
:10033000886083B96AE070E080E090E00E94780114
:1003400080E98AB908951F920F920FB60F92112477
:100350008F939F93AF93BF938091C7029091C802F0
:10036000A091C902B091CA0280589F4FAF4FBF4FB2
:100370008093C7029093C802A093C902B093CA02A7
:10038000BF91AF919F918F910F900FBE0F901F90D3
:100390001895CF92DF92EF92FF920F931F93FC017B
:1003A0008091C7029091C802A091C902B091CA027F
:1003B00022B730E035952795A901662757FD60954E
:1003C000762F840F951FA61FB71FC080D180E280B3
:1003D000F3804091C7025091C8026091C9027091A8
:1003E000CA0222B730E035952795F9018F012227FF
:1003F00017FD2095322F040F151F261F371F081BCE
:10040000190B2A0B3B0B0C151D052E053F0508F398
:100410001F910F91FF90EF90DF90CF90089583B7D9
:10042000816083BF0895089508950895CF92DF9263
:10043000EF92FF92C0902801D0902901E0902A010C
:10044000F0902B0191E080E021E030E0A901092E3D
:1004500002C0440F551F0A94E2F7662757FD6095C6
:10046000762F4C215D216E217F21411551056105BB
:10047000710511F09FE181E09F5F903239F7909311
:100480002D01FF90EF90DF90CF900895AC01FC011B
:10049000EE59FF4FA081B181A80FB91F6C93208145
:1004A0003181DC01A05ABF4F8D919C91119701972A
:1004B0002817390751F0808191818F35910589F492
:1004C0008D919C911197009761F44C595F4FDA011F
:1004D0008C91882321F005C0118210820AC080E02F
:1004E0000895808191810196918380838036910562
:1004F00099F381E008951F93CF93DF93162FEC01BA
:10050000CB59DF4FCE01612F0E9446028823D1F3E1
:1005100080919A00806280939A00DF91CF911F9121
:1005200008952F923F924F925F926F927F928F9297
:100530009F92AF92BF92CF92DF92EF92FF920F9372
:100540001F93CF93DF93CDB7DEB760970FB6F894C4
:10055000DEBF0FBECDBF1C016A017B01122F41150A
:1005600051056105710531F00DC060E20E947B020A
:100570000F5F01C001E0C1010117B8F360E30E9401
:100580007B0268C077FF0DC08DE28983F094E09410
:10059000D094C094C11CD11CE11CF11C115001E08D
:1005A00001C000E08AE090E09E878D87812C2AECD4
:1005B000922E2AE9A22E2BE3B22E3AE0432E512CA2
:1005C000612C712CC814D904EA04FB04DCF0E1E0CE
:1005D000F0E0EC0FFD1FE00FF11DF88BEF87C70176
:1005E000B601A50194010E942009CA01B901A30125
:1005F00092010E942009605DEF85F88960830F5F9A
:1006000011111150C501B401A30192010E942009EA
:1006100049015A018D859E8501979E878D87009798
:1006200089F6CC2405C0C10160E20E947B02C3941C
:10063000C116C9F74E010894811C911C640106C0C3
:10064000F60161916F01C1010E947B028C2D881916
:100650008017B0F360960FB6F894DEBF0FBECDBF23
:10066000DF91CF911F910F91FF90EF90DF90CF908E
:10067000BF90AF909F908F907F906F905F904F90C2
:100680003F902F900895CF93DF93EC0104C08BEC43
:1006900092E00E947B0269916623C9F7DF91CF91B6
:1006A00008951F920F920FB60F920BB60F9211245E
:1006B0002F933F934F935F936F937F938F939F936A
:1006C000AF93BF93CF93EF93FF93C0919C00809122
:1006D0009B0084FD23C08BEC92E06C2F0E944602AD
:1006E0008091B903E82FF0E0E55EFE4F9081C917D5
:1006F00099F48F5F8093B903843081F410929B004A
:1007000010929A0010929D001092990010929800F9
:10071000F0EFE0E0099402C01092B903FF91EF916D
:10072000CF91BF91AF919F918F917F916F915F9189
:100730004F913F912F910F900BBE0F900FBE0F90D6
:100740001F901895AC01FC01EE59FF4F20813181BB
:10075000FC01E05AFF4F808191812817390751F43D
:100760000190F081E02DE40FF51F80810895118242
:1007700010820895A081B181A40FB51F8C912081B2
:1007800031812F5F3F4F318320832036310589F738
:10079000EECFAC01FC01EE59FF4FDC01A05ABF4F78
:1007A000808191812D913C91119782179307C1F31C
:1007B000CA010E94A20308950F931F93CF93DF9362
:1007C00010922D01C1E0D0E0A6C08BEC92E00E9417
:1007D000C903082F482F50E060E070E08BEC92E0F6
:1007E000209195030E9491028BE091E00E944303C7
:1007F00010922C0110E073C0282F30E0A80102C035
:10080000559547958A95E2F7FA01E170F07040FF3F
:1008100029C040912D0150E073E0440F551F7A9597
:10082000E1F7420F531FCE0102C0880F991F4A956E
:10083000E2F7AC01662757FD6095762F809128017D
:1008400090912901A0912A01B0912B01842B952B25
:10085000A62BB72B8093280190932901A0932A01FE
:10086000B0932B01309771F540912D0150E063E07A
:10087000440F551F6A95E1F7420F531F9E0102C0B6
:10088000220F331F4A95E2F7A9014095509566273C
:1008900057FD6095762F8091280190912901A091B4
:1008A0002A01B0912B0184239523A623B72380939B
:1008B000280190932901A0932A01B0932B0185E090
:1008C00091E002C080E091E00E9443038EE091E05D
:1008D0000E94430380912C018F5F80932C018091B3
:1008E0002C01883009F088CF4091280150912901CE
:1008F00060912A0170912B018BEC92E0209195037D
:100900000E9491028BE091E00E94430380912D01AF
:100910008F5F80932D0180912D01843009F055CF98
:1009200010922D0154C08BEC92E00E94C903C82F95
:10093000482F50E060E070E08BEC92E0209195034E
:100940000E9491028BE091E00E94430310922C01DF
:10095000D0E028C0CE01022E02C0959587950A945A
:10096000E2F781709070E0912D01F0E043E0EE0F2E
:10097000FF1F4A95E1F7E20FF11DE05EFE4F808315
:10098000009719F080E091E002C085E091E00E94BC
:1009900043038EE091E00E94430380912C018F5F1E
:1009A00080932C0120912C012830A1F680E091E069
:1009B0000E9443038BE091E00E9443038BE091E0AF
:1009C0000E94430380912D018F5F80932D018091C0
:1009D0002D01813009F0A7CF10922D01C1E0D0E0A8
:1009E00027C0AE0102C0440F551F8A95E2F7CA0125
:1009F000AA2797FDA095BA2F40912801509129016F
:100A000060912A0170912B0184239523A623B7239B
:100A10000097A105B10519F080E091E002C085E0E2
:100A200091E00E94430380912D018F5F80932D01FF
:100A300080912D018032A9F6DF91CF911F910F9106
:100A400008951F920F920FB60F920BB60F921124BA
:100A50002F933F934F935F936F937F938F939F93C6
:100A6000AF93BF93EF93FF93209192033091930341
:100A700080919003909191032817390731F4809168
:100A80009A008F7D80939A0006C080E393E00E94D5
:100A9000A20380939C00FF91EF91BF91AF919F9132
:100AA0008F917F916F915F914F913F912F910F9017
:100AB0000BBE0F900FBE0F901F901895AC01FC015C
:100AC000EE59FF4FA081B181A80FB91F6C9320810F
:100AD0003181DC01A05ABF4F8D919C9111970197F4
:100AE0002817390751F0808191818F35910589F45C
:100AF0008D919C911197009761F44C595F4FDA01E9
:100B00008C91882321F005C0118210820AC080E0F8
:100B1000089580819181019691838083803691052B
:100B200099F381E008951F93CF93DF93162FEC0183
:100B3000CB59DF4FCE01612F0E945E058823D1F390
:100B4000559ADF91CF911F9108951F920F920FB682
:100B50000F920BB60F9211242F933F934F935F93F5
:100B60006F937F938F939F93AF93BF93CF93EF93A5
:100B7000FF93CCB15C9907C08DEF91E06C2F0E9480
:100B80005E058823C9F3FF91EF91CF91BF91AF919B
:100B90009F918F917F916F915F914F913F912F9195
:100BA0000F900BBE0F900FBE0F901F901895AC01C9
:100BB000FC01EE59FF4F20813181FC01E05AFF4FCB
:100BC000808191812817390751F40190F081E02D3F
:100BD000E40FF51F80810895118210820895A0818D
:100BE000B181A40FB51F8C91208131812F5F3F4FC0
:100BF000318320832036310589F7EECFCF93DF9301
:100C0000EB01FC01EE59FF4F40815181FC01E05A9C
:100C1000FF4F208131814217530721F480E0DF919B
:100C2000CF9108950E94D705888381E0F8CF4F9235
:100C30005F926F927F928F929F92AF92BF92CF926C
:100C4000DF92EF92FF920F931F93CF93DF9300D029
:100C5000CDB7DEB76C01762E29016E2CE02E262F43
:100C60002E5F240F200F30E006C0840D951DFC017F
:100C70008081280F3F5F832F90E080179107A8F3B2
:100C8000F22EF094198283B1837F846083B988E067
:100C90008AB9C6016FEF4A830E949305C6016FEFC0
:100CA0000E949305C601672D0E9493056E2D6E5F0D
:100CB000C6010E949305C6014A81642F0E949305D4
:100CC000A42C820106C0F80161918F01C6010E9427
:100CD0009305802F8A198E15B0F3C6016F2D0E94DF
:100CE0009305F601E953FF4FD601AB53BF4F808107
:100CF00091812D913C9111978217930709F07CC047
:100D00007DC0C601BE016F5F7F4F0E94FE05882334
:100D1000C1F389818F3FA9F7C601BE016F5F7F4F85
:100D20000E94FE058823C1F389818F3FA9F7C60180
:100D3000BE016F5F7F4F0E94FE058823C1F389814A
:100D40008715A9F7C601BE016F5F7F4F0E94FE05A0
:100D50008823C1F30981102F1150520114C0089447
:100D6000E11CF11CE814F90421F4115008C0EE2430
:100D7000FF24C601B5010E94FE05882381F3089473
:100D8000A11CB11C0150013091F71615E9F48981BD
:100D9000780E40E090E0019706C0240D351DF90162
:100DA0002081720E4F5F242F30E028173907A9F7F2
:100DB0007094C601BE016F5F7F4F0E94FE058823BD
:100DC000C1F38981781619F08FEF9FEF02C080E0A0
:100DD00090E00F900F90DF91CF911F910F91FF90B6
:100DE000EF90DF90CF90BF90AF909F908F907F90CB
:100DF0006F905F904F9008955E9B79CF5E9A0E94AE
:100E000096017FCF8F929F92AF92BF92CF92DF9247
:100E1000EF920F931F93CF93DF9300D00F92CDB734
:100E2000DEB749832A833B8343E09E012F5F3F4F18
:100E300003E010E0EE24E394E4EFAE2EE1E0BE2EFA
:100E4000C12CD12CF4EF8F2EF1E09F2E0E941706BB
:100E50002981009711F4822F02C0822F806890E0D0
:100E60000F900F900F90DF91CF911F910F91EF9006
:100E7000DF90CF90BF90AF909F908F900895CF93C9
:100E8000DF9391E090932D01C82FD0E024C06093B0
:100E90009701862F90E00197FC01A5E0EE0FFF1F60
:100EA000AA95E1F7E80FF91FEC0FFD1FEE0FFF1FEA
:100EB000E656FF4F259134918DEF91E04EE10E946F
:100EC0000207682F88E991E00E945E0580912D015C
:100ED0008F5F80932D0160912D016630C1F6DF9107
:100EE000CF91089581E017C060939701E62FF0E05D
:100EF000EE0FFF1FE657FF4F259134918DEF91E0E4
:100F000040E20E940207682F88E991E00E945E0596
:100F100080912D018F5F80932D0160912D016630AE
:100F200019F708950E940F020E9472070E94DC03C5
:100F30008099FCCF82B70E941602F8CFCF93DF933F
:100F40009C01C7E9D1E08DEF91E0609197014EE1FE
:100F50000E940207682FCE0101960E945E05CE0115
:100F6000DF91CF9108952F923F924F925F926F92AF
:100F70007F928F929F92AF92BF92CF92DF92EF9229
:100F8000FF920F931F93CF93DF9300D00F92CDB7B3
:100F9000DEB781E080932D018FEF92E5A7E08150CD
:100FA0009040A040E1F700C00000F3E0FF2E3E01BA
:100FB0000894611C711CA2E05A2EB6E24B2E34C07C
:100FC00060939701D301EF2D1D92EA95E9F75A82BC
:100FD00049828DEF91E042E0930102E010E053E09E
:100FE000E52E74EFA72E71E0B72EC12CD12CE4EFC3
:100FF0008E2EE1E09E2E0E9417066981009709F06F
:10100000606869833B8022240A8110E00229132949
:1010100088E991E00E945E050115110529F480918F
:101020002D018F5F80932D0160912D01663041F677
:101030000F900F900F90DF91CF911F910F91FF9024
:10104000EF90DF90CF90BF90AF909F908F907F9068
:101050006F905F904F903F902F90089586E080931F
:10106000970188E092E00E949E0787E080939701B5
:1010700088EF91E00E949E070E94B307089586E0E2
:101080008093970186EE91E00E949E0787E080930F
:10109000970184E292E00E949E070E94B3070895A0
:1010A00081E020C060939701862F90E00197FC01BA
:1010B000EE0FFF1F36E0880F991F3A95E1F7E80F12
:1010C000F91FE656FF4F259134918DEF91E04EE1E7
:1010D0000E940207682F88E991E00E945E058091D6
:1010E0002D018F5F80932D0160912D016630D1F627
:1010F0000E94B30708951F920F920FB60F920BB67E
:101100000F9211242F933F934F935F936F937F938D
:101110008F939F93AF93BF93EF93FF932091C4025C
:101120003091C5028091C2029091C30228173907FD
:1011300011F4559805C082E692E00E94D7058CB95B
:10114000FF91EF91BF91AF919F918F917F916F919F
:101150005F914F913F912F910F900BBE0F900FBE5B
:101160000F901F9018958FE784BB8EE785BB8CE0AE
:1011700082B981EF83B980E281BB81E282BB1092A8
:10118000940310922F03D2E0D0939B0098E99093A0
:101190009A0086E080939D001092980022E22093AE
:1011A0009900C1E0C0939503C0939603C093B80320
:1011B0001092C60210926102DBB99AB98093950031
:1011C00010929000C9B982B18C6082B90E949601D8
:1011D000C7BFD3BF789468EE73E080E090E00E94D0
:1011E000780180E191E00E944303209192033091C5
:1011F000930380919003909191032817390721F070
:1012000080919B0086FFF1CF80919B00806480934A
:101210009B000E94920780E006C0E82FF0E0E956AC
:10122000FC4F10828F5F8032C1F71092B70381E0CC
:101230008093FC018093960184E6809331010895A8
:1012400097FB092E05260ED057FD04D014D00AD0E6
:10125000001C38F450954095309521953F4F4F4FE5
:101260005F4F0895F6F790958095709561957F4F43
:101270008F4F9F4F0895A1E21A2EAA1BBB1BFD01A1
:101280000DC0AA1FBB1FEE1FFF1FA217B307E40765
:10129000F50720F0A21BB30BE40BF50B661F771FBD
:1012A000881F991F1A9469F760957095809590959D
:1012B0009B01AC01BD01CF0108950790F691E02D8F
:0612C0000994F894FFCF31
:1012C600747275650066616C7365000A0D005F00D7
:1012D6000A0A0D20206F6B200A0D0023232323000A
:00000001FF
