:100000000C9435010C9464010C9464010C9464010B
:100010000C9464010C9464010C9464010C946401CC
:100020000C9464010C9464010C9464010C946401BC
:100030000C9464010C9464010C9464010C946401AC
:100040000C94A3010C9464010C94D0050C94000949
:100050000C9464010C9464010C9464010C9464018C
:100060000C9464010C9464010C9464010C9464017C
:100070000C9464010C9464010C9464030C944C057E
:100080000C9464010C9464010C946401FA00FA006D
:10009000FA00FA00FA00FA00FA00000232000E003C
:1000A0004B022A02FE01D401AC01F603CC03A703E4
:1000B0007C035A0333030C03E702BC02930272026F
:1000C0004D022402FE01D601B201880160013C010B
:1000D0001B01EF00CA00A8007E00580000020002C9
:1000E0000002000200020002000200020002000200
:1000F00000020002000200020002000200020002F0
:1001000000020002000200020002000200020002DF
:1001100000020002000200020002000200020002CF
:1001200000020002000200020002000200020002BF
:1001300000020002000200020002000200020002AF
:10014000000200020002000200020002000200029F
:10015000000200020002000200020002000200028F
:10016000BC022003BC022003BC022003BC0220030B
:10017000BC022003BC022003BC022003BC022003FB
:10018000BC022003BC022003BC022003BC022003EB
:10019000BC022003BC022003BC022003BC022003DB
:1001A000BC02000200020002000200020002000283
:1001B000000200020002000200020002000200022F
:1001C000000200020002000200020002000200021F
:1001D000000200020002000200020002000200020F
:1001E00000020002000200020002000200020002FF
:1001F00000020002000200020002000200020002EF
:1002000000020002000200020002000200020002DE
:1002100000020002000200020002000200020002CE
:1002200000020002000200020002000200020002BE
:1002300000020002000200020002000200020002AE
:10024000000200020002000200020002000200029E
:10025000000200020002000200020002000200028E
:100260000002000200020002920911241FBECFEF1B
:10027000D0E1DEBFCDBF11E0A0E0B1E0ECEEF3E1F4
:1002800000E00BBF02C007900D92A432B107D9F76E
:1002900013E0A4E2B1E001C01D92A73BB107E1F772
:1002A00012E0CAE6D2E000E006C022970109FE0192
:1002B0000BBF0E94F009C836D10780E00807A9F7F4
:1002C0000E9438090C94F4090C9400000F931F93BA
:1002D0008B019C0137FF07C0309520951095019543
:1002E0001F4F2F4F3F4FB801C9011F910F91089524
:1002F000AB01BC0142505040604070400000000023
:10030000000000000000000080E090E0DC018417A5
:100310009507A607B70748F400000000000000009A
:1003200000000196A11DB11DF2CF089583B1837F16
:10033000886083B96AE070E080E090E00E94780114
:1003400080E98AB908951F920F920FB60F92112477
:100350008F939F93AF93BF938091C4029091C502F6
:10036000A091C602B091C70280589F4FAF4FBF4FB8
:100370008093C4029093C502A093C602B093C702B3
:10038000BF91AF919F918F910F900FBE0F901F90D3
:100390001895CF92DF92EF92FF920F931F93FC017B
:1003A0008091C4029091C502A091C602B091C7028B
:1003B00022B730E035952795A901662757FD60954E
:1003C000762F840F951FA61FB71FC080D180E280B3
:1003D000F3804091C4025091C5026091C6027091B1
:1003E000C70222B730E035952795F9018F01222702
:1003F00017FD2095322F040F151F261F371F081BCE
:10040000190B2A0B3B0B0C151D052E053F0508F398
:100410001F910F91FF90EF90DF90CF90089583B7D9
:10042000816083BF0895CF92DF92EF92FF92C090D8
:100430002501D0902601E0902701F090280191E05D
:1004400080E021E030E0A901092E02C0440F551FD1
:100450000A94E2F7662757FD6095762F4C215D21BF
:100460006E217F21411551056105710511F09FE154
:1004700081E09F5F903239F790932A01FF90EF90CF
:10048000DF90CF9008959091240121E030E002C0E8
:10049000220F331F8A95E2F7662311F0292B02C041
:1004A00020952923209324010895AC01FC01EE59E5
:1004B000FF4FA081B181A80FB91F6C9320813181BA
:1004C000DC01A05ABF4F8D919C911197019728177D
:1004D000390751F0808191818F35910589F48D9193
:1004E0009C911197009761F44C595F4FDA018C9100
:1004F000882321F005C0118210820AC080E008958F
:10050000808191810196918380838036910599F352
:1005100081E008951F93CF93DF93162FEC01CB5901
:10052000DF4FCE01612F0E9455028823D1F38091C5
:100530009A00806280939A00DF91CF911F91089575
:100540002F923F924F925F926F927F928F929F92E3
:10055000AF92BF92CF92DF92EF92FF920F931F93D1
:10056000CF93DF93CDB7DEB760970FB6F894DEBFB9
:100570000FBECDBF1C016A017B01122F4115510531
:100580006105710531F00DC060E20E948A020F5FC3
:1005900001C001E0C1010117B8F360E30E948A02C3
:1005A00068C077FF0DC08DE28983F094E094D09409
:1005B000C094C11CD11CE11CF11C115001E001C010
:1005C00000E08AE090E09E878D87812C2AEC922EB5
:1005D0002AE9A22E2BE3B22E3AE0432E512C612CB5
:1005E000712CC814D904EA04FB04DCF0E1E0F0E06B
:1005F000EC0FFD1FE00FF11DF88BEF87C701B6016F
:10060000A50194010E94B309CA01B901A301920195
:100610000E94B309605DEF85F88960830F5F111157
:100620001150C501B401A30192010E94B30949010F
:100630005A018D859E8501979E878D87009789F643
:10064000CC2405C0C10160E20E948A02C394C11695
:10065000C9F74E010894811C911C640106C0F60183
:1006600061916F01C1010E948A028C2D8819801747
:10067000B0F360960FB6F894DEBF0FBECDBFDF912A
:10068000CF911F910F91FF90EF90DF90CF90BF908F
:10069000AF909F908F907F906F905F904F903F9022
:1006A0002F9008950F931F93CF93DF938C01EB014D
:1006B00003C0C8010E948A0269916623D1F7DF91C5
:1006C000CF911F910F9108951F920F920FB60F9225
:1006D0000BB60F9211242F933F934F935F936F9319
:1006E0007F938F939F93AF93BF93CF93EF93FF939A
:1006F000C0919C0080919B0084FD23C088EC92E017
:100700006C2F0E9455028091B603E82FF0E0E15E65
:10071000FE4F9081C91799F48F5F8093B6038430A0
:1007200081F410929B0010929A0010929D001092FA
:10073000990010929800F0EFE0E0099402C0109246
:10074000B603FF91EF91CF91BF91AF919F918F91A0
:100750007F916F915F914F913F912F910F900BBEC1
:100760000F900FBE0F901F901895AC01FC01EE5931
:10077000FF4F20813181FC01E05AFF4F8081918140
:100780002817390751F40190F081E02DE40FF51F8F
:1007900080810895118210820895A081B181A40FF3
:1007A000B51F8C91208131812F5F3F4F3183208392
:1007B0002036310589F7EECFAC01FC01EE59FF4F31
:1007C000DC01A05ABF4F808191812D913C911197FE
:1007D00082179307C1F3CA010E94B50308950F93CE
:1007E0001F93CF93DF9310922A01C1E0D0E0AEC0F7
:1007F00088EC92E00E94DC03082F482F50E060E074
:1008000070E088EC92E0209192030E94A00288ECB4
:1008100092E06BE071E00E9452031092290110E017
:1008200077C0282F30E0A80102C0559547958A95DA
:10083000E2F7FA01E170F07040FF29C040912A010F
:1008400050E073E0440F551F7A95E1F7420F531FB4
:10085000CE0102C0880F991F4A95E2F7AC016627C6
:1008600057FD6095762F8091250190912601A091EA
:100870002701B0912801842B952BA62BB72B8093B1
:10088000250190932601A0932701B093280130976A
:1008900071F540912A0150E063E0440F551F6A95BD
:1008A000E1F7420F531F9E0102C0220F331F4A95EA
:1008B000E2F7A90140955095662757FD6095762F80
:1008C0008091250190912601A0912701B0912801E6
:1008D00084239523A623B723809325019093260193
:1008E000A0932701B093280165E071E002C060E0A9
:1008F00071E088EC92E00E94520388EC92E06EE096
:1009000071E00E945203809129018F5F8093290139
:1009100080912901883009F084CF409125015091C0
:100920002601609127017091280188EC92E02091C6
:1009300092030E94A00288EC92E06BE071E00E94BA
:10094000520380912A018F5F80932A0180912A01AE
:10095000843009F04DCF10922A0162C088EC92E0F9
:100960000E94DC03C82F482F50E060E070E088EC64
:1009700092E0209192030E94A00288EC92E06BE04A
:1009800071E00E94520310922901D0E029C0BE01FB
:10099000082E02C0759567950A94E2F76170707031
:1009A0000E944302CE010090290102C095958795CF
:1009B0000A94E2F780FF03C060E071E002C065E0E6
:1009C00071E088EC92E00E94520388EC92E06EE0C5
:1009D00071E00E945203809129018F5F8093290169
:1009E00080912901883099F64091240150E060E01F
:1009F00070E088EC92E0209192030E94A00288ECC3
:100A000092E06BE071E00E94520388EC92E06BE0B0
:100A100071E00E94520380912A018F5F80932A0126
:100A200080912A01813009F099CF10922A01C1E00A
:100A3000D0E029C0AE0102C0440F551F8A95E2F7ED
:100A4000CA01AA2797FDA095BA2F40912501509180
:100A50002601609127017091280184239523A62304
:100A6000B7230097A105B10519F060E071E002C05D
:100A700065E071E088EC92E00E94520380912A01C7
:100A80008F5F80932A0180912A01803299F6DF914D
:100A9000CF911F910F9108951F920F920FB60F9251
:100AA0000BB60F9211242F933F934F935F936F9345
:100AB0007F938F939F93AF93BF93EF93FF93209177
:100AC0008F033091900380918D0390918E032817AE
:100AD000390731F480919A008F7D80939A0006C087
:100AE0008DE293E00E94B50380939C00FF91EF910B
:100AF000BF91AF919F918F917F916F915F914F9136
:100B00003F912F910F900BBE0F900FBE0F901F9033
:100B10001895AC01FC01EE59FF4FA081B181A80FDF
:100B2000B91F6C9320813181DC01A05ABF4F8D9198
:100B30009C91119701972817390751F08081918175
:100B40008F35910589F48D919C911197009761F4EF
:100B50004C595F4FDA018C91882321F005C0118236
:100B600010820AC080E0089580819181019691836E
:100B700080838036910599F381E008951F93CF9388
:100B8000DF93162FEC01CB59DF4FCE01612F0E946E
:100B900089058823D1F3559ADF91CF911F9108954C
:100BA0001F920F920FB60F920BB60F9211242F9334
:100BB0003F934F935F936F937F938F939F93AF93E5
:100BC000BF93CF93EF93FF93CCB15C9907C08AEFAB
:100BD00091E06C2F0E9489058823C9F3FF91EF9162
:100BE000CF91BF91AF919F918F917F916F915F91C5
:100BF0004F913F912F910F900BBE0F900FBE0F9012
:100C00001F901895AC01FC01EE59FF4F20813181F6
:100C1000FC01E05AFF4F808191812817390751F478
:100C20000190F081E02DE40FF51F8081089511827D
:100C300010820895A081B181A40FB51F8C912081ED
:100C400031812F5F3F4F318320832036310589F773
:100C5000EECFCF93DF93EB01FC01EE59FF4F4081C4
:100C60005181FC01E05AFF4F208131814217530727
:100C700021F480E0DF91CF9108950E9402068883DD
:100C800081E0F8CF4F925F926F927F928F929F9206
:100C9000AF92BF92CF92DF92EF92FF920F931F938A
:100CA000CF93DF9300D0CDB7DEB76C01762E29014C
:100CB0006E2CE02E262F2E5F240F200F30E006C072
:100CC000840D951DFC018081280F3F5F832F90E0EC
:100CD00080179107A8F3F22EF094198283B1837FD5
:100CE000846083B988E08AB9C6016FEF4A830E94A5
:100CF000BE05C6016FEF0E94BE05C601672D0E94AA
:100D0000BE056E2D6E5FC6010E94BE05C6014A81FA
:100D1000642F0E94BE05A42C820106C0F8016191D7
:100D20008F01C6010E94BE05802F8A198E15B0F36F
:100D3000C6016F2D0E94BE05F601E953FF4FD60193
:100D4000AB53BF4F808191812D913C9111978217B8
:100D5000930709F07CC07DC0C601BE016F5F7F4F65
:100D60000E9429068823C1F389818F3FA9F7C60114
:100D7000BE016F5F7F4F0E9429068823C1F38981DE
:100D80008F3FA9F7C601BE016F5F7F4F0E94290602
:100D90008823C1F389818715A9F7C601BE016F5F5A
:100DA0007F4F0E9429068823C1F30981102F11501B
:100DB000520114C00894E11CF11CE814F90421F458
:100DC000115008C0EE24FF24C601B5010E94290677
:100DD000882381F30894A11CB11C0150013091F7C4
:100DE0001615E9F48981780E40E090E0019706C07D
:100DF000240D351DF9012081720E4F5F242F30E044
:100E000028173907A9F77094C601BE016F5F7F4F9D
:100E10000E9429068823C1F38981781619F08FEF83
:100E20009FEF02C080E090E00F900F90DF91CF9194
:100E30001F910F91FF90EF90DF90CF90BF90AF90F8
:100E40009F908F907F906F905F904F9008955E9BE2
:100E500079CF5E9A0E9496017FCF8F929F92AF9238
:100E6000BF92CF92DF92EF920F931F93CF93DF93B6
:100E700000D00F92CDB7DEB749832A833B8343E08E
:100E80009E012F5F3F4F03E010E0EE24E394E4EF78
:100E9000AE2EE1E0BE2EC12CD12CF4EF8F2EF1E06E
:100EA0009F2E0E9442062981009711F4822F02C0D2
:100EB000822F806890E00F900F900F90DF91CF917C
:100EC0001F910F91EF90DF90CF90BF90AF909F90C8
:100ED0008F900895CF93DF9391E090932A01C82FCC
:100EE000D0E024C060939401862F90E00197FC012C
:100EF000A5E0EE0FFF1FAA95E1F7E80FF91FEC0F31
:100F0000FD1FEE0FFF1FE656FF4F259134918AEF2C
:100F100091E04EE10E942D07682F85E991E00E9443
:100F2000890580912A018F5F80932A0160912A01AF
:100F30006630C1F6DF91CF91089581E017C06093CC
:100F40009401E62FF0E0EE0FFF1FE657FF4F2591CB
:100F500034918AEF91E040E20E942D07682F85E9E5
:100F600091E00E94890580912A018F5F80932A0178
:100F700060912A01663019F70895CF93DF939C01A1
:100F8000C4E9D1E08AEF91E0609194014EE10E94C2
:100F90002D07682FCE0101960E948905CE01DF91B1
:100FA000CF9108952F923F924F925F926F927F92CE
:100FB0008F929F92AF92BF92CF92DF92EF92FF9269
:100FC0000F931F93CF93DF9300D00F92CDB7DEB76F
:100FD00081E080932A018FEF92E5A7E08150904055
:100FE000A040E1F700C00000F3E0FF2E3E010894AE
:100FF000611C711CA2E05A2EB6E24B2E34C06093E5
:101000009401D301EF2D1D92EA95E9F75A824982A6
:101010008AEF91E042E0930102E010E053E0E52E18
:1010200074EFA72E71E0B72EC12CD12CE4EF8E2ED9
:10103000E1E09E2E0E9442066981009709F06068F7
:1010400069833B8022240A8110E00229132985E963
:1010500091E00E9489050115110529F480912A016A
:101060008F5F80932A0160912A01663041F60F90CC
:101070000F900F90DF91CF911F910F91FF90EF9004
:10108000DF90CF90BF90AF909F908F907F906F90A8
:101090005F904F903F902F90089586E08093940149
:1010A00088E092E00E94BD0787E08093940188EF7A
:1010B00091E00E94BD070E94D207089586E08093C8
:1010C000940186EE91E00E94BD0787E08093940131
:1010D00084E292E00E94BD070E94D20708950E9418
:1010E0005E088091240180FF04C088E080931B018A
:1010F00003C088E080931C010E944D0888E00E9494
:101100006A070E945E0808950E940F020E949D07D0
:10111000C6E00E94EF038099FCCF82B76C2F0E943B
:10112000A709D92FDF5F0E941302882341F10E9493
:101130005E088091240180FD0EC080911B010E94F9
:101140006A0780911B018D0F80931B010E944D083F
:1011500080911B010FC081FDDCCF80911C010E949A
:101160006A0780911C018D0F80931C010E944D081D
:1011700080911C010E946A070E945E08CACFD63087
:1011800041F68091250190912601A0912701B0910F
:10119000280190FF07C088E00E946A070E945E084D
:1011A0000E944D080E946F08B4CF81E020C0609378
:1011B0009401862F90E00197FC01EE0FFF1F36E0AF
:1011C000880F991F3A95E1F7E80FF91FE656FF4F90
:1011D000259134918AEF91E04EE10E942D07682F0E
:1011E00085E991E00E94890580912A018F5F8093B3
:1011F0002A0160912A016630D1F60E94D207089533
:101200001F920F920FB60F920BB60F9211242F93CD
:101210003F934F935F936F937F938F939F93AF937E
:10122000BF93EF93FF932091C1023091C20280914E
:10123000BF029091C0022817390711F4559805C0D4
:101240008FE592E00E9402068CB9FF91EF91BF9169
:10125000AF919F918F917F916F915F914F913F914E
:101260002F910F900BBE0F900FBE0F901F901895EF
:101270008FE784BB8EE785BB8CE082B981EF83B9B1
:1012800080E281BB81E282BB1092910310922C0319
:10129000D2E0D0939B0098E990939A0086E08093E7
:1012A0009D001092980022E220939900C1E0C09323
:1012B0009203C0939303C093B5031092C30210929C
:1012C0005E02DBB99AB98093950010929000C9B97B
:1012D00082B18C6082B90E949601C7BFD3BF789457
:1012E00068EE73E080E090E00E94780188EC92E084
:1012F00060E171E00E94520320918F0330919003CE
:1013000080918D0390918E032817390721F08091E9
:101310009B0086FFF1CF80919B00806480939B00AF
:101320000E94840880E006C0E82FF0E0EC56FC4FF5
:1013300010828F5F8032C1F71092B40381E08093F6
:10134000F9018093930184E680932E010895991BFF
:1013500079E004C0991F961708F0961B881F7A95AC
:10136000C9F78095089597FB092E05260ED057FDE5
:1013700004D014D00AD0001C38F450954095309514
:1013800021953F4F4F4F5F4F0895F6F79095809509
:10139000709561957F4F8F4F9F4F0895A1E21A2E50
:1013A000AA1BBB1BFD010DC0AA1FBB1FEE1FFF1F09
:1013B000A217B307E407F50720F0A21BB30BE40B59
:1013C000F50B661F771F881F991F1A9469F76095A0
:1013D0007095809590959B01AC01BD01CF0108955A
:0C13E0000790F691E02D0994F894FFCFDF
:1013EC00747275650066616C7365000A0D005F00B0
:1013FC000A0A0D20206F6B200A0D0000010809233A
:04140C002323230073
:00000001FF
