:100000000C94F1000C9420010C9420010C9420011C
:100010000C9420010C9420010C9420010C942001DC
:100020000C9420010C9420010C9420010C942001CC
:100030000C9420010C9420010C9420010C942001BC
:100040000C945F010C9420010C9459060C9415102B
:100050000C9420010C9420010C9420010C9420019C
:100060000C9420010C9420010C9420010C9420018C
:100070000C9420010C9420010C941C030C94D505C5
:100080000C9420010C9420010C942001084AD73BC9
:100090003BCE016E84BCBFFDC12F3D6C74319ABD57
:1000A00056833DDA3D00C77F11BED9E4BB4C3E917B
:1000B0006BAAAABE000000803F072C7AA5BA6CC5C7
:1000C00090DA3B9365FC8BBC53F810FD3C56928351
:1000D0004DBD879D3AB63DCBC9BF5BBE73DA0FC934
:1000E0003F05A84CCDB2D44EB93836A9020C50B950
:1000F000918688083CA6AAAA2ABE000000803FC8B4
:1001000000C800C800C800C800C800C80000022C11
:1001100002A700CF038B02E6012402000232000E88
:10012000004B022A02FE01D401AC01F603CC03A766
:10013000037C035A0333030C03E702BC02930272ED
:10014000024D022402FE01D601B201880160013C89
:10015000011B01EF00CA00A8007E005800C600463F
:1001600003A800A80014035F014E0122016202628D
:1001700002EB02F100F100F1002F022F028C025D70
:100180000250029F012C0328032B0312021202A12A
:1001900000F402F402F402D301D301F40027002E8C
:1001A00001BF01C9000E010E01B102B102F80289BE
:1001B0000189012701CA00CA005A01D1039B01DD50
:1001C00001B600B600B700180318035303B500B515
:1001D00000FE00F500F500BE00B002D600AA000047
:1001E0001F1111241FBECFEFD0E1DEBFCDBF11E044
:1001F000A0E0B1E0ECEBF9E200E00BBF02C0079039
:100200000D92A23EB107D9F714E0A2EEB1E001C011
:100210001D92A537B107E1F711E0C2EED1E000E091
:1002200006C022970109FE010BBF0E94D814C03EF0
:10023000D10780E00807A9F70E94C7100C94DC14CE
:100240000C9400000F931F938B019C0137FF07C094
:1002500030952095109501951F4F2F4F3F4FB801B6
:10026000C9011F910F910895AB01BC01425050404C
:10027000604070400000000000000000000000002E
:1002800080E090E0DC0184179507A607B70748F4E3
:10029000000000000000000000000196A11DB11D3B
:1002A000F2CF089583B1837F886083B96AE070E0FC
:1002B00080E090E00E94340180E98AB908951F929D
:1002C0000F920FB60F9211248F939F93AF93BF930A
:1002D0008091820390918303A0918403B091850360
:1002E00080589F4FAF4FBF4F8093820390938303FB
:1002F000A0938403B0938503BF91AF919F918F9199
:100300000F900FBE0F901F901895CF92DF92EF9233
:10031000FF920F931F93FC018091820390918303BE
:10032000A0918403B091850322B730E035952795DD
:10033000A901662757FD6095762F840F951FA61F8C
:10034000B71FC080D180E280F3804091820350913A
:100350008303609184037091850322B730E0359563
:100360002795F9018F01222717FD2095322F040FC1
:10037000151F261F371F081B190B2A0B3B0B0C15CB
:100380001D052E053F0508F31F910F91FF90EF907B
:10039000DF90CF90089583B7816083BF0895CF9297
:1003A000DF92EF92FF92C090E301D090E401E090E1
:1003B000E501F090E60191E080E021E030E0A90164
:1003C000092E02C0440F551F0A94E2F7662757FD15
:1003D0006095762F4C215D216E217F2141155105BD
:1003E0006105710511F09FE181E09F5F903239F75F
:1003F0009093E801FF90EF90DF90CF900895909157
:10040000E20121E030E002C0220F331F8A95E2F7BB
:10041000662311F0292B02C0209529232093E201A5
:100420000895AC01FC01EE59FF4FA081B181A80FE6
:10043000B91F6C9320813181DC01A05ABF4F8D918F
:100440009C91119701972817390751F0808191816C
:100450008F35910589F48D919C911197009761F4E6
:100460004C595F4FDA018C91882321F005C011822D
:1004700010820AC080E00895808191810196918365
:1004800080838036910599F381E008951F93CF937F
:10049000DF93162FEC01CB59DF4FCE01612F0E9465
:1004A00011028823D1F380919A00806280939A0090
:1004B000DF91CF911F9108952F923F924F925F92BB
:1004C0006F927F928F929F92AF92BF92CF92DF9264
:1004D000EF92FF920F931F93CF93DF93CDB7DEB7C9
:1004E00060970FB6F894DEBF0FBECDBF1C016A0146
:1004F0007B01122F411551056105710531F00DC0C9
:1005000060E20E9446020F5F01C001E0C1010117D5
:10051000B8F360E30E94460268C077FF0DC08DE229
:100520008983F094E094D094C094C11CD11CE11C48
:10053000F11C115001E001C000E08AE090E09E87CC
:100540008D87812C2AEC922E2AE9A22E2BE3B22E43
:100550003AE0432E512C612C712CC814D904EA04C2
:10056000FB04DCF0E1E0F0E0EC0FFD1FE00FF11D1B
:10057000F88BEF87C701B601A50194010E949B1477
:10058000CA01B901A30192010E949B14605DEF852D
:10059000F88960830F5F11111150C501B401A301E7
:1005A00092010E949B1449015A018D859E850197F5
:1005B0009E878D87009789F6CC2405C0C10160E233
:1005C0000E944602C394C116C9F74E010894811CCB
:1005D000911C640106C0F60161916F01C1010E9486
:1005E00046028C2D88198017B0F360960FB6F894E8
:1005F000DEBF0FBECDBFDF91CF911F910F91FF9056
:10060000EF90DF90CF90BF90AF909F908F907F90B2
:100610006F905F904F903F902F900895CF93DF930E
:10062000EC0104C086E893E00E94460269916623CB
:10063000C9F7DF91CF9108951F920F920FB60F92D5
:100640000BB60F9211242F933F934F935F936F93A9
:100650007F938F939F93AF93BF93CF93EF93FF932A
:10066000C0919C0080919B0084FD23C086E893E0AC
:100670006C2F0E94110280917404E82FF0E0E25286
:10068000FE4F9081C91799F48F5F80937404843072
:1006900081F410929B0010929A0010929D0010928B
:1006A000990010929800F0EFE0E0099402C01092D7
:1006B0007404FF91EF91CF91BF91AF919F918F9172
:1006C0007F916F915F914F913F912F910F900BBE52
:1006D0000F900FBE0F901F901895AC01FC01EE59C2
:1006E000FF4F20813181FC01E05AFF4F80819181D1
:1006F0002817390751F40190F081E02DE40FF51F20
:1007000080810895118210820895A081B181A40F83
:10071000B51F8C91208131812F5F3F4F3183208322
:100720002036310589F7EECFAC01FC01EE59FF4FC1
:10073000DC01A05ABF4F808191812D913C9111978E
:1007400082179307C1F3CA010E946D0308953F9277
:100750004F925F926F927F928F929F92AF92BF92D1
:10076000CF92DF92EF92FF920F931F93CF93DF937D
:100770001092E801C1E0D0E0A6C086E893E00E94B4
:100780009403082F482F50E060E070E086E893E083
:10079000209150040E945C028BE091E00E940E03C5
:1007A0001092E70110E073C0282F30E0A80102C0CA
:1007B000559547958A95E2F7FA01E170F07040FF90
:1007C00029C04091E80150E0A3E0440F551FAA95CD
:1007D000E1F7420F531FCE0102C0880F991F4A95BF
:1007E000E2F7AC01662757FD6095762F8091E30113
:1007F0009091E401A091E501B091E601842B952B45
:10080000A62BB72B8093E3019093E401A093E5011D
:10081000B093E601309771F54091E80150E0F3E0C4
:10082000440F551FFA95E1F7420F531F9E0102C076
:10083000220F331F4A95E2F7A9014095509566278C
:1008400057FD6095762F8091E3019091E401A0918E
:10085000E501B091E60184239523A623B723809375
:10086000E3019093E401A093E501B093E60185E0F4
:1008700091E002C080E091E00E940E038EE091E0E2
:100880000E940E038091E7018F5F8093E7018091C2
:10089000E701883009F088CF4091E3015091E401ED
:1008A0006091E5017091E60186E893E020915004A3
:1008B0000E945C028BE091E00E940E038091E801AF
:1008C0008F5F8093E8018091E801843009F055CF73
:1008D0001092E80158C086E893E00E949403C82F64
:1008E000482F50E060E070E086E893E020915004EB
:1008F0000E945C028BE091E00E940E031092E701DF
:10090000D0E025C0BE01082E02C0759567950A94F7
:10091000E2F7617070700E94FF01CE010090E70164
:1009200002C0959587950A94E2F780FF03C080E0A6
:1009300091E002C085E091E00E940E038EE091E01C
:100940000E940E038091E7018F5F8093E701809101
:10095000E7018830B9F64091E20150E060E070E0D4
:1009600086E893E0209150040E945C028BE091E0C5
:100970000E940E038BE091E00E940E038091E8013B
:100980008F5F8093E8018091E801813009F0A3CF67
:100990001092E801C1E0D0E01FC0AE0102C0440FD8
:1009A000551F8A95E2F7CA01AA2797FDA095BA2F8D
:1009B00088219921AA21BB210097A105B10519F031
:1009C00080E091E002C085E091E00E940E038091FA
:1009D000E8018F5F8093E8018091E8018090E30156
:1009E0009090E401A090E501B090E6018032A9F674
:1009F000CC24DD2476012091E20130E040E050E09B
:100A000060E070E080E090E000E20E944D10280D70
:100A1000E1E0281508F0E0E0390DA1E0391508F013
:100A2000A0E03E2E330EE1E0331608F0E0E0AE2BFE
:100A30004A0DB1E04A1508F0B0E0A40F31E0A41768
:100A400008F030E0B32B5B0DC1E05B1508F0C0E0AF
:100A5000B50F31E0B51708F030E0C32B31E06C156D
:100A600008F030E0C60F41E0C61708F040E0342B34
:100A700041E07D1508F040E0632F670F31E0671714
:100A800008F030E0432B51E08E1508F050E0E42EE2
:100A9000E80E31E0E81608F030E0352B390FBB24C2
:100AA00040E050E070E0D0E010E000E08824FF2457
:100AB000E1E0CE2ED12C17C0EB2DF0E0E652FE4F38
:100AC000C601008002C0880F991F0A94E2F7E92F3F
:100AD000EE0FEE0B482B592B7E2BDE2B1E2B0E2BF5
:100AE0008E2AFE2AB39484E0B81631F780E0B22E45
:100AF000E1E0F0E0082E02C0EE0FFF1F0A94E2F7DB
:100B00009E2FDF2EFF0FFF0BE92FEB214D2C4320F3
:100B10005F2E5A226F2E6B227F2E7C229F2E9622D2
:100B2000AF2EAE20CF2EC32221E0E429E529E6290D
:100B3000E729E929EA29EC2909F420E09423D522C0
:100B40006F2E67227F2E7D229F2E9122AF2EA02214
:100B5000CF2EC820FF21E1E09D29962997299929C8
:100B60009A299C299F2B09F0E0E02E1739F0883252
:100B700019F48093E80106C08F5FBACF8093E80133
:100B8000883209F480E0DF91CF911F910F91FF909F
:100B9000EF90DF90CF90BF90AF909F908F907F901D
:100BA0006F905F904F903F9008951F920F920FB6F5
:100BB0000F920BB60F9211242F933F934F935F9395
:100BC0006F937F938F939F93AF93BF93EF93FF9315
:100BD00020914D0430914E0480914B0490914C042F
:100BE0002817390731F480919A008F7D80939A00FD
:100BF00006C08BEE93E00E946D0380939C00FF91F2
:100C0000EF91BF91AF919F918F917F916F915F9184
:100C10004F913F912F910F900BBE0F900FBE0F90F1
:100C20001F901895AC01FC01EE59FF4FA081B181D6
:100C3000A80FB91F6C9320813181DC01A05ABF4FEE
:100C40008D919C91119701972817390751F0808158
:100C500091818F35910589F48D919C911197009721
:100C600061F44C595F4FDA018C91882321F005C063
:100C7000118210820AC080E00895808191810196DE
:100C8000918380838036910599F381E008951F93C5
:100C9000CF93DF93162FEC01CB59DF4FCE01612F9D
:100CA0000E9412068823D1F3559ADF91CF911F91AC
:100CB00008951F920F920FB60F920BB60F92112448
:100CC0002F933F934F935F936F937F938F939F9354
:100CD000AF93BF93CF93EF93FF93CCB15C9907C0D1
:100CE00088EB92E06C2F0E9412068823C9F3FF91D3
:100CF000EF91CF91BF91AF919F918F917F916F9124
:100D00005F914F913F912F910F900BBE0F900FBEAF
:100D10000F901F901895AC01FC01EE59FF4F2081F8
:100D20003181FC01E05AFF4F8081918128173907FA
:100D300051F40190F081E02DE40FF51F80810895BA
:100D4000118210820895A081B181A40FB51F8C91EA
:100D5000208131812F5F3F4F318320832036310541
:100D600089F7EECFCF93DF93EB01FC01EE59FF4FF4
:100D700040815181FC01E05AFF4F208131814217AF
:100D8000530721F480E0DF91CF9108950E948B06F4
:100D9000888381E0F8CF4F925F926F927F928F921B
:100DA0009F92AF92BF92CF92DF92EF92FF920F93FA
:100DB0001F93CF93DF9300D0CDB7DEB76C01762EB3
:100DC00029016E2CE02E262F2E5F240F200F30E0FD
:100DD00006C0840D951DFC018081280F3F5F832F85
:100DE00090E080179107A8F3F22EF094198283B156
:100DF000837F846083B988E08AB9C6016FEF4A8334
:100E00000E944706C6016FEF0E944706C601672D84
:100E10000E9447066E2D6E5FC6010E944706C601FE
:100E20004A81642F0E944706A42C820106C0F80163
:100E300061918F01C6010E944706802F8A198E1585
:100E4000B0F3C6016F2D0E944706F601E953FF4F2C
:100E5000D601AB53BF4F808191812D913C91119769
:100E60008217930709F07CC07DC0C601BE016F5F89
:100E70007F4F0E94B2068823C1F389818F3FA9F773
:100E8000C601BE016F5F7F4F0E94B2068823C1F387
:100E900089818F3FA9F7C601BE016F5F7F4F0E9416
:100EA000B2068823C1F389818715A9F7C601BE015F
:100EB0006F5F7F4F0E94B2068823C1F30981102F14
:100EC0001150520114C00894E11CF11CE814F904FB
:100ED00021F4115008C0EE24FF24C601B5010E9480
:100EE000B206882381F30894A11CB11C0150013083
:100EF00091F71615E9F48981780E40E090E00197AA
:100F000006C0240D351DF9012081720E4F5F242F7C
:100F100030E028173907A9F77094C601BE016F5F4A
:100F20007F4F0E94B2068823C1F38981781619F099
:100F30008FEF9FEF02C080E090E00F900F90DF9165
:100F4000CF911F910F91FF90EF90DF90CF90BF90C6
:100F5000AF909F908F907F906F905F904F9008958B
:100F60005E9B79CF5E9A0E9452017FCF8F929F92B3
:100F7000AF92BF92CF92DF92EF920F931F93CF93D6
:100F8000DF9300D00F92CDB7DEB749832A833B832E
:100F900043E09E012F5F3F4F03E010E0EE24E39417
:100FA000B4EFAB2EB1E0BB2EC12CD12C54EF852E6B
:100FB00051E0952E0E94CB062981009711F4822FD3
:100FC00002C0822F806890E00F900F900F90DF9109
:100FD000CF911F910F91EF90DF90CF90BF90AF9086
:100FE0009F908F900895CF93DF931092E801C82FC0
:100FF000D0E020C03E2F3F5F30935202F0E0EE0F72
:10100000FF1FE150FF4F85919491BE010E9487140C
:10101000FB0188EB92E0632F40E29F010E94B6073C
:10102000682F83E592E00E9412068091E8018F5FAD
:101030008093E801E091E801E730E1F6DF91CF919C
:101040000895CF93DF939C01C2E5D2E088EB92E054
:10105000609152024EE10E94B607682FCE010196C0
:101060000E941206CE01DF91CF910895CF93DF93B6
:101070009C01C2E5D2E088EB92E0609152024EE121
:101080000E94B607682FCE0101960E941206CE017B
:10109000DF91CF9108952F923F924F925F926F927E
:1010A0007F928F929F92AF92BF92CF92DF92EF92F8
:1010B000FF920F931F93CF93DF93CDB7DEB728979F
:1010C0000FB6F894DEBF0FBECDBF4B015C01298384
:1010D0003A834B835C8367017801A50194010E94E8
:1010E000B313662E072F482E192FC701B601A7018B
:1010F00096010E94B313F62FE72F382F292F462D84
:10110000502F642D712FCB01BA01DF01A9010B2FE4
:101110001A2F252F342FA90198010E9443110E94F4
:1011200020140E94791280E090E00E94A5129B0199
:10113000AC010E94B313462E672E8C0169817A811F
:101140008B819C819B01AC010E94B313F62FE72F8A
:10115000382F292F442D562D602F712FCB01BA0126
:10116000DF01A9010B2F1A2F252F342FA901980178
:101170000E9443110E9420140E947912DC01CB01CD
:101180003C0176946794B30180E090E00E94A51240
:101190009B01AC010E94B313462E272E182F092F56
:1011A000C701B601A50194010E94B6116D837E832B
:1011B0008F8398879801842D922DA32FB22FBC0185
:1011C000CD010E94791280E090E00E94A5126B018F
:1011D0007C0120E038E948E056E40E9442111B01FE
:1011E0002C018CEB90E0689EB001699E700D789E9A
:1011F000700D112480E090E00E94A5129B01AC01CB
:10120000C201B1010E940C120E9434112B013C0159
:1012100069817A818B819C81A50194010E94B6111C
:101220004B015C0160E070E18AE896E4A701960159
:101230000E94421120E030E14AE856E40E940C127C
:101240000E94341122E93AE046E85FE30E9443112C
:1012500022E93AE046E05FE30E94421120E030E0FC
:1012600044E353E40E94B3132BED3FE049E450E420
:101270000E940C122EE034E74AE550E40E94B313BA
:101280000E9479126B017C0181E0809352026D8192
:101290007E818F81988527E33DE847E250E40E94F4
:1012A000431120E030E044E353E40E94B3132BEDFC
:1012B0003FE049E450E40E940C122EE034E74AE596
:1012C00050E40E94B3130E947912DC01CB010E940A
:1012D000360882E080935202C301B201A501940155
:1012E0000E94431122E93AE046E05FE30E94431185
:1012F00020E030E044E353E40E94B3132BED3FE0E1
:1013000049E450E40E940C122EE034E74AE550E430
:101310000E94B3130E947912DC01CB010E943608AF
:1013200083E080935202C6010E94360884E08093D5
:101330005202C6010E94360880E191E00E940E032D
:101340006D817E818F81988520E030E044E353E415
:101350000E94B3132BED3FE049E450E40E940C12CD
:101360000E947412AB01BC01662757FD6095762F71
:1013700086E893E0209150040E945C028BE091E0AB
:101380000E940E0328960FB6F894DEBF0FBECDBFA5
:10139000DF91CF911F910F91FF90EF90DF90CF9051
:1013A000BF90AF909F908F907F906F905F904F9085
:1013B0003F902F9008952F923F924F925F926F929D
:1013C0007F928F929F92AF92BF92CF92DF92EF92D5
:1013D000FF920F931F93CF93DF93CDB7DEB7629742
:1013E0000FB6F894DEBF0FBECDBF4B015C016901A3
:1013F0007A01A50194010E94B313462E072F382EBF
:10140000192FC701B601A70196010E94B313F62F49
:10141000E72F382F292F442D502F632D712FCB010B
:10142000BA01DF01A9010B2F1A2F252F342FA90193
:1014300098010E9443110E9420140E947412DC0142
:10144000CB011C01C701B601A50194010E94B61190
:1014500069837A838B839C83C101AA2797FDA0951A
:10146000BA2F89879A87AB87BC87BC01CD010E94C0
:10147000A7129B01AC010E94B313062FC72E882E22
:10148000192F862F9C2DA82DB12FBC01CD0120E056
:1014900030E0A9010E9443112B013C018CEB90E04C
:1014A000289EB001299E700D389E700D112488274A
:1014B00077FD8095982F0E94A7129B01AC01C30174
:1014C000B2010E940C120E9434112B013C0169816F
:1014D0007A818B819C81A30192010E9443111B019F
:1014E0008D879E8760E070E18AE896E4412F1C2D8D
:1014F000282D342FA90198010E94421120E030E1EB
:101500004AE856E40E940C120E9434116D837E83D7
:101510008F8398873D852E85822D932DA32FB22F03
:10152000BC01CD0122E93AE046E85FE30E944311A5
:1015300020E030E044E353E40E94B3132BED3FE09E
:1015400049E450E40E940C122EE034E74AE550E4EE
:101550000E94B3130E9479124B015C01788B6F8754
:101560006D817E818F81988522E93AE046E85FE3CC
:101570000E9443112BED3FE049EC5FE30E944211D2
:1015800020E030E044E353E40E94B3132BED3FE04E
:1015900049E450E40E940C122EE034E74AE550E49E
:1015A0000E94B3130E9479126B017C017A8B698BC4
:1015B00082E080935202C4010E94360883E0809347
:1015C0005202C6010E943608F6E8CF2EF3E0DF2E65
:1015D000C60149855A856B857C85209150040E94FF
:1015E0005C020BE011E0C8010E940E0384E191E06F
:1015F0000E940E0369817A818B819C8120E030E01A
:1016000044E353E40E94B3132BED3FE049E450E47C
:101610000E940C120E947412AB01BC01662757FD98
:101620006095762FC601209150040E945C02C8018B
:101630000E940E038DE191E00E940E03C301B201EE
:1016400020E030E044E353E40E94B3132BED3FE08D
:1016500049E450E40E940C120E947412AB01BC01D8
:10166000662757FD6095762FC601209150040E9491
:101670005C02C8010E940E0386E291E00E940E0304
:101680003D852E85822D932DA32FB22FBC01CD0138
:1016900020E030E044E353E40E94B3132BED3FE03D
:1016A00049E450E40E940C120E947412AB01BC0188
:1016B000662757FD6095762FC601209150040E9441
:1016C0005C02C8010E940E0380E391E00E940E03B9
:1016D0006D817E818F81988520E030E044E353E482
:1016E0000E94B3132BED3FE049E450E40E940C123A
:1016F0000E947412AB01BC01662757FD6095762FDE
:10170000C601209150040E945C02C8010E940E0391
:101710008AE391E00E940E03AF85B889AD0160E0D5
:1017200070E0C601209150040E945C02C8010E9432
:101730000E038AE491E00E940E03E989FA89AF0161
:1017400060E070E0C601209150040E945C02C80174
:101750000E940E0362960FB6F894DEBF0FBECDBF97
:10176000DF91CF911F910F91FF90EF90DF90CF907D
:10177000BF90AF909F908F907F906F905F904F90B1
:101780003F902F9008958F929F92AF92BF92CF92E9
:10179000DF92EF920F931F93CF93DF9300D0CDB7DB
:1017A000DEB749832A8343E09E012F5F3F4F02E06B
:1017B00010E0EE24E394A4EFAA2EA1E0BA2EC12CEF
:1017C000D12CB4EF8B2EB1E09B2E0E94CB06298149
:1017D000009711F4822F02C0822F806890E00F9052
:1017E0000F90DF91CF911F910F91EF90DF90CF90ED
:1017F000BF90AF909F908F9008951092E80113C012
:101800006F5F6093520288EB92E048E120E00E9413
:10181000C30B682F83E592E00E9412068091E801D5
:101820008F5F8093E8016091E801673049F7089580
:101830006F927F928F929F92AF92BF92CF92DF92E0
:10184000EF920F931F93CF93DF9300D00F92CDB7FA
:10185000DEB73C010894611C711CFC0160819E0193
:101860002F5F3F4F83E0F90111928A95E9F782E0FB
:101870008A8384E2898388EB92E042E002E010E010
:1018800053E0E52E74EFA72E71E0B72EC12CD12CBA
:10189000E4EF8E2EE1E09E2E0E94CB066981009738
:1018A00009F0606869839B8180E00A8110E0082B61
:1018B000192BC3010E941206C8010F900F900F90C0
:1018C000DF91CF911F910F91EF90DF90CF90BF905C
:1018D000AF909F908F907F906F9008956F927F92BE
:1018E0008F929F92AF92BF92CF92DF92EF92FF9230
:1018F0000F931F93CF93DF9300D0CDB7DEB78FEF59
:101900009CE4A8E081509040A040E1F700C00000B6
:10191000FF24F3947724739416E2612EF09252021E
:101920007A82698288EB92E06F2D42E09E012F5F00
:101930003F4F02E010E0F2E0EF2EA4EFAA2EA1E06C
:10194000BA2EC12CD12CB4EF8B2EB1E09B2E0E946D
:10195000CB066981009709F0606869831A8183E585
:1019600092E00E941206112309F4F39497E0F9160D
:10197000A9F60F900F90DF91CF911F910F91FF90DB
:10198000EF90DF90CF90BF90AF909F908F907F901F
:101990006F90089586E08093520288E092E00E9462
:1019A000210887E08093520288EF91E00E9421088D
:1019B0000E946E0C089586E08093520286EE91E0BC
:1019C0000E94210887E08093520284E292E00E9404
:1019D00021080E946E0C089591E09093520290E0CD
:1019E000880F991F855E9E4FFC01859194910E94FE
:1019F00036080E946E0C08950E94DB0C8091E20173
:101A000080FF04C088E08093DA0103C088E08093FF
:101A1000DB010E94CA0C88E00E94EC0C0E94DB0CE7
:101A20000895CF93DF93D82FC62F0E94EC0CD3508C
:101A3000D53008F067C08AE591E00E940E038BE084
:101A400091E00E940E0383E08093E701D2E030C072
:101A5000D093E8011DC0809352022091E70190E0ED
:101A60000297FC01B4E0EE0FFF1FBA95E1F7E81B07
:101A7000F90BE20FF11DEE0FFF1FE959FE4F8591A3
:101A800094910E9436088091E8018F5F8093E8016D
:101A90008091E8018630F9F60E946E0C8091E70192
:101AA00082500E94F3078091E7018F5F8093E701E6
:101AB0008091E701863061F60E94DB0CCC2311F0A7
:101AC0000E94CA0C82E017C0E0935202F0E0329705
:101AD000CF01880F991FA5E0EE0FFF1FAA95E1F730
:101AE000E81BF90BE359FE4F859194910E9436084B
:101AF0008091E8018F5F8093E801E091E801E63092
:101B000019F75DC01092E701D2E030C0D093E80130
:101B10001DC0809352022091E70190E00297FC01E2
:101B200054E0EE0FFF1F5A95E1F7E81BF90BE20FA7
:101B3000F11DEE0FFF1FE959FE4F859194910E9410
:101B400036088091E8018F5F8093E8018091E80179
:101B50008630F9F60E946E0C8091E7018F5F0E943B
:101B6000F3078091E7018F5F8093E7018091E701A0
:101B7000833061F60E94DB0CCC2311F00E94CA0C6A
:101B800082E017C0E0935202F0E03297CF01880F55
:101B9000991F45E0EE0FFF1F4A95E1F7E81BF90B8F
:101BA000E959FE4F859194910E9436088091E80191
:101BB0008F5F8093E801E091E801E63019F70E9419
:101BC0006E0C81E00E94F307DF91CF91089560E0F1
:101BD0000E94110D089561E00E94110D0895109268
:101BE000E80112C08E2F8F5F80935202F0E0EE0F5B
:101BF000FF1FE35FFE4F859194910E94360880910C
:101C0000E8018F5F8093E801E091E801E73051F748
:101C10000E946E0C08951092E80114C06F5F6093EB
:101C2000520288EB92E042E228EE33E00E94B607CF
:101C3000682F83E592E00E9412068091E8018F5F91
:101C40008093E8016091E801673041F71092E80164
:101C500013C06F5F6093520288EB92E048E121E08D
:101C60000E94C30B682F83E592E00E9412068091C8
:101C7000E8018F5F8093E8016091E801673049F7E0
:101C80000E946E0C0895CF93DF93CDB7DEB72E97E9
:101C90000FB6F894DEBF0FBECDBFDE011196EEE6A3
:101CA000F1E08EE001900D928150E1F781E016C0E5
:101CB0000093520282E592E00E94180CE02FF0E0BF
:101CC0003197EE0FFF1F21E030E02C0F3D1FE20F98
:101CD000F31F918380838091E8018F5F8093E801F7
:101CE0000091E801073021F755E0F52E63E0E62E7C
:101CF00074E0D72EE2E0CE2EF6E0BF2EA7E0AA2EAB
:101D000086E893E00E9494038A3609F45BC08B3620
:101D100090F4863699F1873638F4843601F18536A9
:101D200010F5813669F780C0883609F43FC08936DE
:101D300008F063C02FC0843789F1853740F48137BC
:101D400009F46CC08237F1F08B36D1F647C0873783
:101D500009F467C08A3771F1853791F637C08981F8
:101D60009A81039703C089819A8103969A83898314
:101D700021E0209352020E943608C2CF8B819C81C1
:101D8000039703C08B819C8103969C838B83C092B5
:101D90005202F1CF8D819E81039703C08D819E8178
:101DA00003969E838D83E0925202E5CF8F819885C2
:101DB000039703C08F819885039698878F83D0926D
:101DC0005202D9CF89859A85039703C089859A8560
:101DD00003969A878987F0925202CDCF0B851C8596
:101DE000C80103979C878B87B09252020E943608E5
:101DF000A092520283E094E00EC00B851C85C801BE
:101E000003969C878B87B09252020E943608A0925C
:101E100052028DEF93E0801B910BADCF0E94FD0B22
:101E20006FCF0E940B0E6CCF81E02FC086E691E051
:101E30000E940E034091E80150E060E070E086E807
:101E400093E0209150040E945C028CE691E00E9495
:101E50000E038091E8018093520282E592E00E9495
:101E6000180CAC0160E070E086E893E0209150042B
:101E70000E945C028BE091E00E940E038BE091E0F7
:101E80000E940E038091E8018F5F8093E8018091AA
:101E9000E801873058F281E016C00093520282E5D3
:101EA00092E00E94180CE02FF0E03197EE0FFF1F38
:101EB00021E030E02C0F3D1FE20FF31F9183808360
:101EC0008091E8018F5F8093E8010091E80107307D
:101ED00021F716CF0E94FD0B8099FECF0E940B0EBA
:101EE0008CE791E00E940E038BE091E00E940E03CC
:101EF0000E94CB0181E891E00E940E038BE091E00B
:101F00000E940E0381E00E94F30782E991E00E94A3
:101F10000E038BE091E00E940E030E94EF0D85EA14
:101F200091E00E940E038BE091E00E940E030E945C
:101F30006E0C85EB91E00E940E038BE091E00E9415
:101F40000E038FEB91E00E940E038BE091E00E9464
:101F50000E0381E08093DA018099FECF809BFECF53
:101F60001092E80114C06F5F6093520288EB92E018
:101F700040E22FEF33E00E94B607682F83E592E03E
:101F80000E9412068091E8018F5F8093E8016091C2
:101F9000E801673041F7C0E0D0E0BE01882777FD57
:101FA0008095982F0E94A71225E33AEF4EE85CE354
:101FB0000E94B3138B01482E892E862F912FA42DBA
:101FC000B82DBC01CD010E9409126B017C01802F4C
:101FD000912FA42DB82DBC01CD010E9416144B01E8
:101FE0005C01C701B60120E030E040E252E40E940B
:101FF000B31320E030E048EC52E40E9443112B017F
:102000003C01C501B40120E030E040E252E40E940E
:10201000B3137B018C01C301B20120E030E048EC36
:1020200052E40E944B082196B8CF1F920F920FB630
:102030000F920BB60F9211242F933F934F935F9300
:102040006F937F938F939F93AF93BF93EF93FF9380
:1020500020917F033091800380917D0390917E03D6
:102060002817390711F4559805C08DE193E00E94B7
:102070008B068CB9FF91EF91BF91AF919F918F919A
:102080007F916F915F914F913F912F910F900BBE78
:102090000F900FBE0F901F901895CF92DF92EF9286
:1020A000FF920F93CF93DF93CDB7DEB760970FB654
:1020B000F894DEBF0FBECDBF002309F45AC02987B4
:1020C0003A874B875C876D877E878F87988B80E206
:1020D000801B49855A856B857C851816B4F019825A
:1020E0001A821B821C82992787FD90959095819575
:1020F0009F4F04C0440F551F661F771F8A95D2F764
:102100004D835E836F8378872CC06A017B01002E2C
:1021100004C0CC0CDD1CEE1CFF1C0A94D2F7C98253
:10212000DA82EB82FC826A017B0104C0F694E794B8
:10213000D794C7948A95D2F7D701C6014D855E859D
:102140006F85788904C0440F551F661F771F0A9555
:10215000D2F7842B952BA62BB72B8D839E83AF8331
:10216000B88729813A814B815C816D817E818F8125
:10217000988560960FB6F894DEBF0FBECDBFDF9195
:10218000CF910F91FF90EF90DF90CF9008958FE760
:1021900084BB8EE785BB8CE082B981EF83B980E296
:1021A00081BB81E282BB10924F041092EA03D2E01D
:1021B000D0939B0098E990939A0086E080939D00CD
:1021C0001092980022E220939900C1E0C09350043D
:1021D000C0935104C09373041092810310921C03A6
:1021E000DBB99AB98093950010929000C9B982B179
:1021F0008C6082B90E945201C7BFD3BF789468EE49
:1022000073E080E090E00E9434018FEC91E00E9446
:102210000E0320914D0430914E0480914B04909117
:102220004C042817390721F080919B0086FFF1CFDD
:1022300080919B00806480939B000E946A0F80E0E5
:1022400006C0E82FF0E0EE5AFB4F10828F5F80321D
:10225000C1F71092720481E08093B702809351021B
:1022600084E68093EC0108959F939F77ABD10F9004
:1022700000203AF49058A2EA2AED3FE049E450E405
:1022800013D01FC25058BB27AA270ED01AC2E3D1C1
:1022900030F0E8D120F031F49F3F11F41EF4B3C1C7
:1022A0000EF4E095E7FBA9C1E92F2DD280F3BA1710
:1022B000620773078407950718F071F49EF545C20D
:1022C0000EF4E0950B2EBA2FA02D0B01B901900151
:1022D0000C01CA01A0011124FF27591B99F0593F95
:1022E00050F4503E68F11A16F040A22F232F342FDD
:1022F0004427585FF3CF469537952795A795F0402B
:102300005395C9F77EF41F16BA0B620B730B840B3F
:10231000BAF09150A1F0FF0FBB1F661F771F881FF7
:10232000C2F70EC0BA0F621F731F841F48F487954F
:1023300077956795B795F7959E3F08F0B3CF93953E
:10234000880F08F09927EE0F97958795089583D108
:1023500058F080E891E009F49EEF84D128F040E83D
:1023600051E059F45EEF09C04EC1EFC1E92FE078AA
:10237000CAD168F3092E052AC1F326173707480783
:10238000590738F00E2E07F8E02569F0E025E064E3
:102390000AC0EF6307F8009407FADB01B9019D0159
:1023A000DC01CA01AD01EF9346D08BD10AD05F9119
:1023B000552331F02BED3FE049E450FD49EC63CF6C
:1023C0000895DF93DD27B92FBF7740E85FE3161646
:1023D000170648075B0710F4D92FBED19F938F9340
:1023E0007F936F936BD2ECE8F0E010D16AD12F911C
:1023F0003F914F915F91C3D1DD2349F09058A2EAFC
:102400002AED3FE049EC5FE3D0785D274DDFDF91B7
:1024100058C130D1E39566C10CD053C123D140F0EF
:102420001AD130F021F45F3F19F0E7C051118EC18D
:10243000EAC069D198F39923C9F35523B1F3951BE9
:10244000550BBB27AA2762177307840738F09F5FD5
:102450005F4F220F331F441FAA1FA9F333D00E2E44
:102460003AF0E0E830D091505040E695001CCAF7B1
:1024700029D0FE2F27D0660F771F881FBB1F261776
:1024800037074807AB07B0E809F0BB0B802DBF0149
:10249000FF2793585F4F2AF09E3F510568F0ADC06B
:1024A00055C15F3FECF3983EDCF3869577956795D1
:1024B000B795F7959F5FC9F7880F911D96958795FA
:1024C00097F90895E1E0660F771F881FBB1F621719
:1024D00073078407BA0720F0621B730B840BBA0BD7
:1024E000EE1F88F7E095089504D06894B1112EC1CD
:1024F000089511D188F09F5790F0B92F9927B751BF
:10250000A0F0D1F0660F771F881F991F1AF0BA95B7
:10251000C9F712C0B13081F018D1B1E0089515C1EA
:10252000672F782F8827B85F39F0B93FCCF38695AD
:1025300077956795B395D9F73EF49095809570950A
:1025400061957F4F8F4F9F4F0895E89409C097FB87
:102550003EF490958095709561957F4F8F4F9F4F7A
:102560009923A9F0F92F96E9BB279395F6958795BE
:1025700077956795B795F111F8CFFAF4BB0F11F481
:1025800060FF1BC06F5F7F4F8F4F9F4F16C0882328
:1025900011F096E911C0772321F09EE8872F762F5E
:1025A00005C0662371F096E8862F70E060E02AF09F
:1025B0009A95660F771F881FDAF7880F969587958B
:1025C00097F90895DF93CF931F930F938B01EC013D
:1025D000E9EBF0E01BD075D09801AE018B01EC0166
:1025E00060E070E080E89FE34DDE2AD19801AE0103
:1025F0000F911F91CF91DF91C2C097F99F6780E83B
:1026000070E060E008959FEF80EC0895DF93CF9332
:102610001F930F93FF92EF92DF927B018C016894DE
:1026200005C0DA2EEF01ABD0FE01E894A59125910B
:10263000359145915591AEF3EF0136DEFE019701DC
:10264000A801DA9479F7DF90EF90FF900F911F9136
:10265000CF91DF91089500240A94161617061806E4
:102660000906089500240A94121613061406050696
:102670000895C9CF50D0E8F3E894E0E0BB279F5716
:10268000F0F02AED3FE049EC06C0EE0FBB0F661FED
:10269000771F881F28F0B23A62077307840728F073
:1026A000B25A620B730B840BE3959A9572F78038DC
:1026B00030F49A95BB0F661F771F881FD2F790489A
:1026C00002C1092E0394000C11F4882352F0BB0FB1
:1026D00040F4BF2B11F460FF04C06F5F7F4F8F4F3A
:1026E0009F4F0895EF93E0FF06C0A2EA2AED3FE076
:1026F00049EC5FEBD9DDE5DF0F90039401FC9058C6
:10270000E1EEF0E0F3C057FD9058440F551F59F02B
:102710005F3F71F04795880F97FB991F61F09F3FCE
:1027200079F087950895121613061406551FF2CFF7
:102730004695F1DF08C0161617061806991FF1CF47
:1027400086957105610508940895E894BB2766276E
:102750007727CB0197F908959B01AC0160E070E009
:1027600080E89FE359CE0BD0ACCF75DF28F07ADF3D
:1027700018F0952309F041CF46CF1124E7CFC3DFEE
:10278000A0F3959FD1F3950F50E0551F629FF00184
:10279000729FBB27F00DB11D639FAA27F00DB11DDD
:1027A000AA1F649F6627B00DA11D661F829F222766
:1027B000B00DA11D621F739FB00DA11D621F839FED
:1027C000A00D611D221F749F3327A00D611D231FC3
:1027D000849F600D211D822F762F6A2F11249F5711
:1027E00050408AF0E1F088234AF0EE0FFF1FBB1F34
:1027F000661F771F881F91505040A9F79E3F5105D3
:1028000070F0FBCEA3CF5F3FECF3983EDCF38695F0
:1028100077956795B795F795E7959F5FC1F7FE2B7D
:10282000880F911D9695879597F908959F9322DFBC
:102830000F9007FCEE5F56CF11F40EF4E4CE41C0CA
:102840006ADFD0F39923D9F3CEF39F57550B87FF57
:1028500046D00024A0E640EA90018058569597950E
:1028600028F4805C660F771F881F20F02617370733
:10287000480730F4621B730B840B202931294A2B43
:10288000A69517940794202531254A2758F7660FF7
:10289000771F881F20F026173707480730F4620B90
:1028A000730B840B200D311D411DA09581F7B901DB
:1028B000842F9158880F9695879508959B01AC01B8
:1028C00052CF9F3F31F0915020F4879577956795CF
:1028D000B795880F911D9695879597F90895915012
:1028E0005040660F771F881FD2F708959F938F93EC
:1028F0007F936F93FF93EF939B01AC0134DFEF91D4
:10290000FF9184DE2F913F914F915F912CCFAA1BB5
:10291000BB1B51E107C0AA1FBB1FA617B70710F0CA
:10292000A61BB70B881F991F5A95A9F780959095FC
:10293000BC01CD01089597FB092E05260ED057FD49
:1029400004D014D00AD0001C38F45095409530952E
:1029500021953F4F4F4F5F4F0895F6F79095809523
:10296000709561957F4F8F4F9F4F0895A1E21A2E6A
:10297000AA1BBB1BFD010DC0AA1FBB1FEE1FFF1F23
:10298000A217B307E407F50720F0A21BB30BE40B73
:10299000F50B661F771F881F991F1A9469F76095BA
:1029A0007095809590959B01AC01BD01CF01089574
:0C29B0000790F691E02D0994F894FFCFF9
:1029BC00747275650066616C7365000A0D005F00CA
:1029CC0041302000616C6661206A653A0062657472
:1029DC0061206A653A0067616D6D61206A653A0035
:1029EC0064656C7461206A653A00706F7A6963651E
:1029FC00206D6F746F7275313A00706F7A69636510
:102A0C00206D6F746F7275323A006E657A61736106
:102A1C00686E757465004D6F746F72003A00000239
:102A2C000002000200020002000200026A656475E6
:102A3C00006B6F73746B61206E6173746176656E7D
:102A4C006100727963686C6F7374206E617374616A
:102A5C0076656E61007A616B6C61646E6920706F73
:102A6C007A6963650063656B656A202E2E2E0061A2
:102A7C006B7475616C697A756A20706F6C65000A8D
:102A8C000A0D20206F6B200A0D000001080923237A
:022A9C002323F2
:00000001FF
