:100000000C9447000C9471000C9471000C947100D6
:100010000C9471000C9471000C9471000C9471009C
:100020000C9471000C9471000C9471000C9471008C
:100030000C9471000C9471000C9471000C9471007C
:100040000C94FF000C9471000C94DD4A0C94B101E7
:100050000C9471000C9471000C9471000C9471005C
:100060000C9471000C9471000C9471000C9471004C
:100070000C9471000C9471000C94910B0C948400FE
:100080000C9471000C9471000C9471000F4B1124AE
:100090001FBECFEFD0E1DEBFCDBF11E0A0E0B1E0E9
:1000A000E2EDF6E900E00BBF02C007900D92AC371D
:1000B000B107D9F714E0ACE7B1E001C01D92AB3C49
:1000C000B107E1F710E0CEE8D0E004C02297FE01CE
:1000D0000E94634BCC38D107C9F70E944D4A0C945B
:1000E000674B0C940000AC01CB01DA019C01AD011F
:1000F00057FF07C050954095309521953F4F4F4F82
:100100005F4FB901CA0108951F920F920FB60F9267
:100110000BB60F9211242F933F938F939F93EF93DE
:10012000FF932091430230914402809141029091CB
:10013000420228173907A1F40DC0E0914102F09165
:100140004202EF51FE4FE0812DC010924202109208
:10015000410228C080919A008F7D80939A0024C02C
:1001600020914302309144028091410290914202D9
:100170002817390711F3E0914102F0914202EF5143
:10018000FE4FE0818091410290914202019690934E
:100190004202809341028091410290914202803656
:1001A000910599F2E0939C00FF91EF919F918F91BF
:1001B0003F912F910F900BBE0F900FBE0F901F908D
:1001C0001895625070408040904000000000000090
:1001D00000000000000020E030E040E050E0261782
:1001E00037074807590750F40000000000000000DE
:1001F00000002F5F3F4F4F4F5F4FF1CF08951F9289
:100200000F920FB60F9211248F939F93AF93BF93CA
:1002100080916A0290916B02A0916C02B0916D0284
:1002200080589F4FAF4FBF4F80936A0290936B02ED
:10023000A0936C02B0936D02BF91AF919F918F918B
:100240000F900FBE0F901F901895AF92BF92CF9254
:10025000DF92EF92FF920F931F93FC0120916A02AD
:1002600030916B0240916C0250916D0282B790E028
:1002700095958795AA2797FDA095BA2FEE24FF2480
:100280008701E81AF90A0A0B1B0BE21AF30A040B9E
:10029000150BA080B180C280D38020916A0230917A
:1002A0006B0240916C0250916D0282B790E095957F
:1002B0008795AA2797FDA095BA2F820F931FA41F99
:1002C000B51F8E0D9F1DA01FB11F8A159B05AC0584
:1002D000BD0518F31F910F91FF90EF90DF90CF9025
:1002E000BF90AF900895CF93DF93AC01EB01FC0179
:1002F000EE59FF4F20813181DC01A05ABF4F8D9113
:100300009C9111972817390781F480E00BC0ED917B
:10031000FC91E40FF51FE08103C011961C921E9220
:10032000E88381E0DF91CF910895208131818D9123
:100330009C9111972817390751F3ED91FC91119772
:10034000E40FF51FE0818D919C9111970196119614
:100350009C938E938D919C9111978036910501F716
:10036000DCCF1F920F920FB60F920BB60F92112493
:100370002F933F938F939F93EF93FF932091350398
:100380003091360380913303909134032817390755
:1003900081F40DC0E0913303F0913403ED52FD4F31
:1003A000E08129C0109234031092330324C0559881
:1003B00023C020913503309136038091330390910F
:1003C00034032817390731F3E0913303F0913403F4
:1003D000ED52FD4FE08180913303909134030196FB
:1003E00090933403809333038091330390913403CB
:1003F00080369105B9F2ECB9FF91EF919F918F9101
:100400003F912F910F900BBE0F900FBE0F901F903A
:100410001895613029F0613038F0623041F402C043
:10042000A9980895999902C0A99A0895A99808953C
:10043000613029F0613038F0623041F402C0AA988E
:1004400008959A9902C0AA9A0895AA9808956130C9
:1004500029F0613038F0623041F402C0AC98089560
:100460009C9902C0AC9A0895AC980895613029F027
:10047000613038F0623041F402C0AD9808959D9922
:1004800002C0AD9A0895AD980895613029F06130A9
:1004900038F0623041F402C0AE9808959E9902C0CF
:1004A000AE9A0895AE9808951092200410921F04F9
:1004B000109222041092210410922404109223041A
:1004C00010922604109225041092280410922704FA
:1004D00010922A041092290410922C0410922B04DA
:1004E00010922E0410922D041092300410922F04BA
:1004F000109232041092310410923404109233049A
:100500001092360410923504109238041092370479
:1005100010923A041092390410923C0410923B0459
:1005200010923E0410923D041092400410923F0439
:100530001092420410924104109244041092430419
:1005400010924604109245041092480410924704F9
:1005500010924A041092490410924C0410924B04D9
:1005600010924E0410924D041092500410924F04B9
:100570001092520410925104109254041092530499
:100580001092560410925504109258041092570479
:1005900010925A041092590410925C0410925B0459
:1005A00010925E0410925D041092600410925F0439
:1005B0001092620410926104109264041092630419
:1005C00010926604109265041092680410926704F9
:1005D00010926A041092690410926C0410926B04D9
:1005E00010926E0410926D042091C504213871F0B0
:1005F000213461F0213251F0213141F0293031F0C4
:10060000253021F0233011F0213031F481E090E0E9
:100610009093200480931F04223871F0223461F0FB
:10062000223251F0223141F02A3031F0263021F0CF
:10063000233011F0223031F481E090E090932204D5
:1006400080932104243871F0243461F0243251F075
:10065000243141F02C3031F0263021F0253011F0DA
:10066000243031F481E090E09093240480932304BB
:10067000283871F0283461F0283251F0283141F0E7
:100680002C3031F02A3021F0293011F0283031F4AB
:1006900081E090E09093260480932504203971F046
:1006A000203561F0203351F0203241F0243131F017
:1006B000223121F0213111F0203131F481E090E03C
:1006C0009093280480932704203A71F0203661F03B
:1006D000203351F0283241F0243231F0223221F01F
:1006E000213211F0203231F481E090E090932A041D
:1006F00080932904203C71F0203661F0203551F0C0
:10070000283441F0243431F0223421F0213411F026
:10071000203441F481E090E090932C0480932B04EA
:10072000203C71F0203A61F0203951F0283841F036
:10073000243831F0223821F0233811F0203831F4F8
:1007400081E090E090932E0480932D042091C604C4
:10075000213871F0213461F0213251F0213141F022
:10076000293031F0253021F0233011F0213031F4DF
:1007700081E090E09093300480932F04223871F050
:10078000223461F0223251F0223141F02A3031F02E
:10079000263021F0233011F0223031F481E090E056
:1007A0009093320480933104243871F0243461F042
:1007B000243251F0243141F02C3031F0263021F038
:1007C000253011F0243031F481E090E0909334042E
:1007D00080933304283871F0283461F0283251F0C6
:1007E000283141F02C3031F02A3021F0293011F03D
:1007F000283031F481E090E0909336048093350402
:10080000203971F0203561F0203351F0203241F071
:10081000243131F0223121F0213111F0203131F435
:1008200081E090E09093380480933704203A71F08F
:10083000203661F0203351F0283241F0243231F07B
:10084000223221F0213211F0203231F481E090E0A7
:1008500090933A0480933904203C71F0203661F083
:10086000203551F0283441F0243431F0223421F085
:10087000213411F0203441F481E090E090933C0465
:1008800080933B04203C71F0203A61F0203951F014
:10089000283841F0243831F0223821F0233811F083
:1008A000203831F481E090E090933E0480933D0441
:1008B0002091C704213871F0213461F0213251F0C8
:1008C000213141F0293031F0253021F0233011F071
:1008D000213031F481E090E09093400480933F0414
:1008E000223871F0223461F0223251F0223141F08D
:1008F0002A3031F0263021F0233011F0223031F44B
:1009000081E090E09093420480934104243871F098
:10091000243461F0243251F0243141F02C3031F094
:10092000263021F0253011F0243031F481E090E0C0
:100930009093440480934304283871F0283461F084
:10094000283251F0283141F02C3031F02A3021F09A
:10095000293011F0283031F481E090E09093460482
:1009600080934504203971F0203561F0203351F037
:10097000203241F0243131F0223121F0213111F0C7
:10098000203131F481E090E0909348048093470453
:10099000203A71F0203661F0203351F0283241F0D6
:1009A000243231F0223221F0213211F0203231F4A0
:1009B00081E090E090934A0480934904203C71F0D8
:1009C000203661F0203551F0283441F0243431F0E4
:1009D000223421F0213411F0203441F481E090E000
:1009E00090934C0480934B04203C71F0203A61F0CA
:1009F000203951F0283841F0243831F0223821F0E4
:100A0000233811F0203831F481E090E090934E04C7
:100A100080934D042091C804213871F0213461F095
:100A2000213251F0213141F0293031F0253021F0CF
:100A3000233011F0213031F481E090E090935004A4
:100A400080934F04223871F0223461F0223251F049
:100A5000223141F02A3031F0263021F0233011F0DC
:100A6000223031F481E090E090935204809351045D
:100A7000243871F0243461F0243251F0243141F0F3
:100A80002C3031F0263021F0253011F0243031F4B3
:100A900081E090E09093540480935304283871F0DF
:100AA000283461F0283251F0283141F02C3031F0F7
:100AB0002A3021F0293011F0283031F481E090E023
:100AC0009093560480935504203971F0203561F0DD
:100AD000203351F0203241F0243131F0223121F025
:100AE000213111F0203131F481E090E090935804ED
:100AF00080935704203A39F481E090E090935A04AF
:100B00008093590442C0203639F481E090E09093FC
:100B10005A048093590423C0203351F0283241F005
:100B2000243231F0223221F0213211F0203239F416
:100B300081E090E090935A04809359042CC0203CAB
:100B400071F0203661F0203551F0283441F0243422
:100B500031F0223421F0213411F0203441F481E0CD
:100B600090E090935C0480935B04203C71F0203A09
:100B700061F0203951F0283841F0243831F0223822
:100B800021F0233811F0203831F481E090E0909387
:100B90005E0480935D042091C904213871F02134F2
:100BA00061F0213251F0213141F0293031F025300E
:100BB00021F0233011F0213031F481E090E0909366
:100BC000600480935F04223871F0223461F0223295
:100BD00051F0223141F02A3031F0263021F023301B
:100BE00011F0223031F481E090E090936204809320
:100BF0006104243871F0243461F0243251F024313E
:100C000041F02C3031F0263021F0253011F0243025
:100C100031F481E090E09093640480936304283879
:100C200071F0283461F0283251F0283141F02C3035
:100C300031F02A3021F0293011F0283031F481E0F0
:100C400090E09093660480936504203971F020351C
:100C500061F0203351F0203241F0243131F0223163
:100C600021F0213111F0203131F481E090E09093B6
:100C7000680480936704203A71F0203661F02033D5
:100C800051F0283241F0243231F0223221F0213269
:100C900011F0203231F481E090E090936A04809367
:100CA0006904203C71F0203661F0203551F0283481
:100CB00041F0243431F0223421F0213411F0203479
:100CC00041F481E090E090936C0480936B04203CAD
:100CD00071F0203A61F0203951F0283841F0243881
:100CE00031F0223821F0233811F0203831F481E03E
:100CF00090E090936E0480936D04089510927004B8
:100D000010926F0481E090E09093720480937104DC
:100D100082E090E0909374048093730483E090E009
:100D2000909376048093750484E090E09093780427
:100D30008093770485E090E090937A04809379041F
:100D400086E090E090937C0480937B0487E090E0C1
:100D500090937E0480937D0488E090E090938004DB
:100D600080937F0489E090E09093820480938104D3
:100D70008AE090E090938404809383048BE090E079
:100D800090938604809385048CE090E0909388048F
:100D9000809387048DE090E090938A048093890487
:100DA0008EE090E090938C0480938B048FE090E031
:100DB00090938E0480938D0480E190E09093900452
:100DC00080938F0481E190E090939204809391044A
:100DD00082E190E0909394048093930483E190E007
:100DE000909396048093950484E190E09093980406
:100DF0008093970485E190E090939A0480939904FE
:100E000086E190E090939C0480939B0487E190E0BE
:100E100090939E0480939D0488E190E09093A004B9
:100E200080939F0489E190E09093A2048093A104B1
:100E30008AE190E09093A4048093A3048BE190E076
:100E40009093A6048093A5048CE190E09093A8046D
:100E50008093A7048DE190E09093AA048093A90465
:100E60008EE190E09093AC048093AB048FE190E02E
:100E70009093AE048093AD0480E290E09093B00430
:100E80008093AF04089580910D0490910E04809793
:100E900021F410920E0410920D0420910B04309155
:100EA0000C042131310549F4809191049091920410
:100EB00090930E0480930D0424C02231310549F42F
:100EC000809193049091940490930E0480930D0468
:100ED00024C02331310549F4809195049091960402
:100EE00090930E0480930D0424C02431310549F4FD
:100EF000809197049091980490930E0480930D0430
:100F000024C02531310549F48091990490919A04C7
:100F100090930E0480930D0424C02631310549F4CA
:100F200080919B0490919C0490930E0480930D04F7
:100F300024C02731310549F480919D0490919E048D
:100F400090930E0480930D0424C02831310549F498
:100F500080919F049091A00490930E0480930D04BF
:100F600024C02931310549F48091A1049091A20453
:100F700090930E0480930D0420C02A31310549F46A
:100F80008091A3049091A40490930E0480930D0487
:100F900020C02B31310549F48091A5049091A6041D
:100FA00090930E0480930D0420C02C31310529F458
:100FB0008091A7049091A80407C02D31310549F410
:100FC0008091A9049091AA0490930E0480930D043B
:100FD00024C02E31310549F48091AB049091AC04CA
:100FE00090930E0480930D0424C02F31310549F4F1
:100FF0008091AD049091AE0490930E0480930D0403
:1010000024C02115310549F480916F04909170043A
:1010100090930E0480930D0424C02130310549F4CF
:10102000809171049091720490930E0480930D044A
:1010300024C02230310549F48091730490917404E6
:1010400090930E0480930D0424C02330310549F49D
:10105000809175049091760490930E0480930D0412
:1010600024C02430310549F48091770490917804AC
:1010700090930E0480930D0424C02530310549F46B
:101080008091790490917A0490930E0480930D04DA
:1010900024C02630310549F480917B0490917C0472
:1010A00090930E0480930D0424C02730310549F439
:1010B00080917D0490917E0490930E0480930D04A2
:1010C00024C02830310549F480917F049091800438
:1010D00090930E0480930D0424C02930310549F407
:1010E000809181049091820490930E0480930D046A
:1010F00024C02A30310549F48091830490918404FE
:1011000090930E0480930D0420C02B30310549F4D8
:10111000809185049091860490930E0480930D0431
:101120001CC02C30310549F48091870490918804CB
:1011300090930E0480930D041CC02D30310529F4CA
:101140008091890490918A040FC02E30310529F4D2
:1011500080918B0490918C0407C02F30310549F4A5
:1011600080918D0490918E0490930E0480930D04D1
:1011700008952031310541F480918F0490919004BD
:1011800090930E0480930D0408950F931F93CF93B3
:10119000DF938C01C0E0D0E02091DE013091DF01CF
:1011A0008091DC019091DD012817390799F4F4CF83
:1011B000E091DC01F091DD01E458FE4F20812CC06C
:1011C0001092DD011092DC0127C0DF91CF911F91B9
:1011D0000F9108952091DE013091DF018091DC01B3
:1011E0009091DD012817390719F3E091DC01F091A6
:1011F000DD01E458FE4F20818091DC019091DD01FA
:1012000001969093DD018093DC018091DC01909147
:10121000DD0180369105A1F2F801EC0FFD1F20835E
:1012200085E094E061E00E94180260EA76E881E0DF
:1012300090E00E94E10085E094E060E00E941802E6
:101240002196C530D10509F0A7CFBFCF8091C10449
:101250009091C2048130910521F485E094E060E032
:101260002FC08230910549F485E094E060E00E944F
:10127000270285E094E061E017C08330910549F4CE
:1012800085E094E060E00E94270285E094E061E060
:101290001CC08430910571F485E094E061E00E9407
:1012A000270285E094E060E00E94360285E094E049
:1012B00060E010C08530910581F485E094E061E044
:1012C0000E94270285E094E060E00E94360285E0FB
:1012D00094E061E00E9445020895069779F485E064
:1012E00094E061E00E94270285E094E061E00E94C2
:1012F000360285E094E060E00E94450208950F9375
:101300001F9305E014E0C80160E00E942702C801B5
:1013100060E00E943602C80160E00E9445021F9111
:101320000F910895CF93DF93DC01EC01CE59DF4F8D
:10133000E881F981E80FF91F608328813981FC0178
:10134000E05AFF4F8081918101972817390749F0B2
:10135000888199818F35910591F480819181892BC4
:1013600071F4AC59BF4F8C91A456B040882339F426
:1013700003C01182108281E0DF91CF910895FD01B9
:10138000EE59FF4F80819181019691838083808106
:1013900091818036910579F7ECCF1F93CF93DF933E
:1013A000162FEC01CB59DF4FCE01612F0E9492091D
:1013B0008823D1F380919A00806280939A00DF9114
:1013C000CF911F9108952F923F924F925F926F920B
:1013D0007F928F929F92AF92BF92CF92DF92EF92C5
:1013E000FF920F931F93DF93CF93CDB7DEB72C9768
:1013F0000FB6F894DEBF0FBECDBF1C014A015B01E2
:10140000522E411551056105710571F411E005C0B9
:10141000C10160E20E94CD091F5F1515C8F3C1012B
:1014200060E30E94CD0965C077FD02C044240DC071
:101430008DE28983B094A09490948094811C911C37
:10144000A11CB11C5A9444244394C12CEAECDE2E16
:10145000EAE9EE2EEBE3FE2E662477248C149D043D
:10146000AE04BF04D4F001E010E00C0F1D1F040D0A
:10147000111DC501B401A70196010E94244BCA01A8
:10148000B9012AE030E040E050E00E94244B605D6A
:10149000F8016083439451105A94C701B6012AE0C1
:1014A00030E040E050E00E94244BC901DA016C01B9
:1014B0007D010894611C711CFAE06F16710471F6CD
:1014C00010E005C0C10160E20E94CD091F5F151543
:1014D000C8F37E010894E11CF11C870106C0C1011C
:1014E000F80161918F010E94CD09802F8E1984151A
:1014F000B0F32C960FB6F894DEBF0FBECDBFCF91E0
:10150000DF911F910F91FF90EF90DF90CF90BF90F0
:10151000AF909F908F907F906F905F904F903F9093
:101520002F9008950F931F93CF93DF93182F092FB8
:10153000EB0105C0812F902F0E94CD092196688173
:101540006623C1F7812F902FDF91CF911F910F91CB
:1015500008950F931F93A1E0B0E021B181B161B173
:1015600041B1E0B330E094E0369527959A95E1F7E4
:101570002A273B2790E005E0969587950A95E1F7A5
:101580008A279B27822B932B81709070552747FDCC
:101590005095409550954427550F441F5527842B4F
:1015A000952B70E0F6E076956795FA95E1F76A2756
:1015B0007B2761707070862B972BF0E0EA27FB2762
:1015C000E170F0708E2B9F2B892B39F20C9903C0A0
:1015D00082E090E013C00E9903C085E090E00EC059
:1015E0000F9903C083E090E009C00D9903C084E027
:1015F00090E004C0809906C081E090E09093C2041E
:101600008093C1048CE791E060E071E00E94920A4F
:101610008C014091C1045091C204662757FD60952A
:10162000762FFC01E653FF4F20810E94E309C80199
:101630006CE071E00E94920A1F910F9108958CE76F
:1016400091E06FE071E00E94920A6CE071E00E940C
:10165000920A85E094E061E00E94180285EC94E033
:101660000E94C50880911B0490911C04892B39F4B9
:1016700086E090E09093C2048093C10402C00E946F
:10168000A90A0E94260960E874E88EE190E00E94B1
:10169000E10041E050E050931C0440931B04209172
:1016A000C1043091C20480910B0490910C04820F0C
:1016B000931F90930C0480930B0490930E048093DB
:1016C0000D042630310561F480E190E090930C0424
:1016D00080930B040E94430710926C0410926B04D9
:1016E00020910D0430910E0480910704909108041C
:1016F0002817390771F4109208041092070481E04A
:1017000090E09093600480935F041092180410920C
:10171000170485E094E060E00E9418020E947F09AF
:1017200008951F920F920FB60F920BB60F921124CD
:101730001F932F933F934F935F936F937F938F9359
:101740009F93AF93BF93EF93FF9310919C00809171
:101750009B0084FD24C08CE791E0612F0E949209D8
:101760009091CA04E92FF0E0E958FE4F80811817E4
:10177000A1F4892F8F5F8093CA04843081F4109282
:101780009B0010929A0010929D0010929900109266
:101790009800F0EFE0E0099402C01092CA04FF91B3
:1017A000EF91BF91AF919F918F917F916F915F91D9
:1017B0004F913F912F911F910F900BBE0F900FBE35
:1017C0000F901F901895CF93DF93DC01EC01CE5959
:1017D000DF4FE881F981E80FF91F608328813981A3
:1017E000FC01E05AFF4F808191810197281739074A
:1017F00049F0888199818F35910591F4808191819B
:10180000892B71F4AC59BF4F8C91A456B0408823FA
:1018100039F403C01182108281E0DF91CF910895E5
:10182000FD01EE59FF4F8081918101969183808364
:10183000808191818036910579F7ECCF1F93CF930A
:10184000DF93162FEC01CB59DF4FCE01612F0E94A1
:10185000E30B8823D1F3559ADF91CF911F9108951F
:101860004F925F926F927F928F929F92AF92BF92B0
:10187000CF92DF92EF92FF920F931F93DF93CF935C
:101880000F92CDB7DEB76C01562EF42E39019801B8
:101890004E2CB02E062F0E5F040F020F90E005C0F5
:1018A000E60DF71D8081080F9F5FE92FF0E0E2173A
:1018B000F307B0F3198283B1837F846083B988E032
:1018C0008AB9C6016FEF0E941E0CC6016FEF0E941D
:1018D0001E0CC601652D0E941E0C6B2D6E5FC6018D
:1018E0000E941E0CC6016F2D0E941E0C730110E099
:1018F00007C0C601F70161917F010E941E0C1F5FA6
:101900001B15B8F30095C601602F0E941E0CD6016E
:10191000A953BF4FF601EB53FF4F2D913C91119707
:10192000808191812817390709F080C081C0C601E4
:10193000B8010E9473018823D1F389818F3FB9F7E1
:101940008E010F5F1F4FC601B8010E9473018823EB
:10195000D1F389818F3FB9F78E010F5F1F4FC60109
:10196000B8010E9473018823D1F389818515B9F7E5
:101970008E010F5F1F4FC601B8010E9473018823BB
:10198000D1F3B980BA94AB2C730113C00F5F1F4F12
:101990000815190521F4AA9408C000E010E0C6015A
:1019A000B7010E947301882389F30894E11CF11C9C
:1019B000BA94BB2091F7A41421F58981152D180F35
:1019C00090E0282F30E02150304005C0E60DF71D93
:1019D0008081180F9F5FE92FF0E0E217F307B1F75E
:1019E0007E010894E11CF11CC601B7010E9473013D
:1019F0008823D1F310958981181719F420E030E07D
:101A000002C02FEF3FEFC9010F90CF91DF911F91DF
:101A10000F91FF90EF90DF90CF90BF90AF909F908D
:101A20008F907F906F905F904F9008955E9B75CFE1
:101A30005E9A83B1837F886083B96AE070E080E05A
:101A400090E00E94E10080E98AB98E010F5F1F4F8C
:101A50006ECF8F929F92AF92BF92CF92DF92EF9212
:101A60000F931F93DF93CF9300D00F92CDB7DEB7C4
:101A7000FE01319653E0DF011D925A95E9F7498343
:101A80002A833B8343E09F0103E010E0EE24E394CC
:101A900074EFA72E71E0B72EC12CD12C54EF852EF8
:101AA00051E0952E0E94300C2981892B11F4822F50
:101AB00002C0822F806890E00F900F900F90CF911E
:101AC000DF911F910F91EF90DF90CF90BF90AF907B
:101AD0009F908F900895EF92FF920F931F93F82E8F
:101AE000E92EFB01208131818EE692E00F2D1E2D23
:101AF000F80161918F014EE10E94290D682FC80104
:101B00000E94E30B8F2D9E2D1F910F91FF90EF9060
:101B10000895FF920F931F93DF93CF9300D000D0CF
:101B2000CDB7DEB708E313E0FF24F394F092380357
:101B30008EEF93E09A838983C801BE016F5F7F4F68
:101B40000E946B0D60E876E988E990E00E94E10070
:101B5000F092380382E090E09C838B83C801BE0141
:101B60006D5F7F4F0E946B0D60E876E988E990E039
:101B70000E94E1000F900F900F900F90CF91DF9196
:101B80001F910F91FF900895EF92FF920F931F9373
:101B9000DF93CF93CDB7DEB72E970FB6F894DEBFA5
:101BA0000FBECDBFE8E3EE2EE3E0FE2E81E0809392
:101BB000380300E012E01A830983C701BE016F5F9A
:101BC0007F4F0E946B0D82E0809338031C830B8350
:101BD000C701BE016D5F7F4F0E946B0D83E0809354
:101BE00038031E830D83C701BE016B5F7F4F0E94C8
:101BF0006B0D84E08093380318870F83C701BE0103
:101C0000695F7F4F0E946B0D85E0809338031A87D0
:101C10000987C701BE01675F7F4F0E946B0D86E099
:101C2000809338031C870B87C701BE01655F7F4F18
:101C30000E946B0D87E0809338031E870D87C701D4
:101C4000BE01635F7F4F0E946B0D2E960FB6F89416
:101C5000DEBF0FBECDBFCF91DF911F910F91FF90DF
:101C6000EF9008952F923F924F925F926F927F92E2
:101C70008F929F92AF92BF92CF92DF92EF92FF929C
:101C80000F931F93DF93CF93CDB7DEB7C45CD040E3
:101C90000FB6F894DEBF0FBECDBF08E313E081E0BE
:101CA00080933803E12C82E0F82EFA82E982C801A1
:101CB000BE016F5F7F4F0E946B0D92E090933803DF
:101CC000BDE56B2EB2E07B2E7C826B82C801BE012B
:101CD0006D5F7F4F0E946B0D83E080933803A7E216
:101CE0008A2E912C9E828D82C801BE016B5F7F4F30
:101CF0000E946B0D94E090933803F1EDAF2EF3E06A
:101D0000BF2EB886AF82C801BE01695F7F4F0E94B7
:101D10006B0D85E080933803E0EBCE2EE2E0DE2E03
:101D2000DA86C986C801BE01675F7F4F0E946B0DCE
:101D300096E090933803FC86EB86C801BE01655F90
:101D40007F4F0E946B0D87E080933803FE86ED86FF
:101D5000C801BE01635F7F4F0E946B0D60E079E0B8
:101D60008DE390E00E94E10091E0909338037EEDD6
:101D7000472E512C588A4F86C801BE01615F7F4FA4
:101D80000E946B0D82E0809338037A8A698AC801C9
:101D9000BE016F5E7F4F0E946B0D93E090933803FE
:101DA0009C8A8B8AC801BE016D5E7F4F0E946B0DBD
:101DB00084E080933803BE8AAD8AC801BE016B5EA1
:101DC0007F4F0E946B0D95E090933803D88ECF8A99
:101DD000C801BE01695E7F4F0E946B0D86E0809353
:101DE0003803FA8EE98EC801BE01675E7F4F0E94FC
:101DF0006B0D97E090933803FC8EEB8EC801BE010B
:101E0000655E7F4F0E946B0D60E472E48FE090E0AE
:101E10000E94E10081E0809338035E8E4D8EC80100
:101E2000BE01635E7F4F0E946B0D92E0909338037A
:101E300078A26F8EC801BE01615E7F4F0E946B0D5C
:101E400083E0809338039AA289A2C801BE016F5D26
:101E50007F4F0E946B0D94E090933803BCA2ABA21D
:101E6000C801BE016D5D7F4F0E946B0D85E08093C0
:101E70003803DEA2CDA2C801BE016B5D7F4F0E9478
:101E80006B0D96E09093380366EEE62E61E0F62E39
:101E9000F8A6EFA2C801BE01695D7F4F0E946B0DDD
:101EA00087E08093380354E2C52E52E0D52EDAA69F
:101EB000C9A6C801BE01675D7F4F0E946B0D60E03F
:101EC00079E08DE390E00E94E10091E09093380387
:101ED0005CA64BA6C801BE01655D7F4F0E946B0DDD
:101EE00082E08093380380E592E09EA78DA7C80129
:101EF000BE01635D7F4F0E946B0D93E090933803AA
:101F00008EE291E098AB8FA7C801BE01615D7F4F63
:101F10000E946B0D84E0809338038BE991E09AABCB
:101F200089ABC801BE016F5C7F4F0E946B0D95E0CD
:101F30009093380386ED90E09CAB8BABC801BE015B
:101F40006D5C7F4F0E946B0D86E080933803FEAA84
:101F5000EDAAC801BE016B5C7F4F0E946B0D97E03C
:101F600090933803D8AECFAAC801BE01695C7F4FF9
:101F70000E946B0D60E87DE88BE590E00E94E10037
:101F800081E0809338035AAE49AEC801BE01675C58
:101F90007F4F0E946B0D92E0909338034FE9A42E7F
:101FA00041E0B42EBCAEABAEC801BE01655C7F4F54
:101FB0000E946B0D83E0809338033FEB832E31E06A
:101FC000932E9EAE8DAEC801BE01635C7F4F0E9412
:101FD0006B0D94E0909338032DED622E21E0722E6C
:101FE000FE01FF9671826082C801BF010E946B0DE5
:101FF00085E080933803FE01EF5BFF4F8AEA90E0B3
:1020000091838083C801BF010E946B0D96E090937D
:102010003803FE01ED5BFF4FF182E082C801BF0192
:102020000E946B0D87E080933803FE01EB5BFF4F4E
:10203000D182C082C801BF010E946B0D60E47BE4C5
:102040008CE490E00E94E10091E090933803FE015F
:10205000E95BFF4F51824082C801BF010E946B0DB6
:1020600082E080933803FE01E75BFF4FB182A082DC
:10207000C801BF010E946B0D93E090933803FE01ED
:10208000E55BFF4F91828082C801BF010E946B0D0A
:1020900084E080933803FE01E35BFF4F718260822E
:1020A000C801BF010E946B0D95E090933803FE01BB
:1020B000E15BFF4F8AEA90E091838083C801BF0112
:1020C0000E946B0D96E090933803FE01EF5AFF4F8C
:1020D0009CE0C92E92E0D92ED182C082C801BF01F6
:1020E0000E946B0D87E080933803FE01ED5AFF4F8D
:1020F00084EFE82E81E0F82EF182E082C801BF0172
:102100000E946B0D60E874E88EE190E00E94E100AF
:1021100091E090933803FE01EB5AFF4F51824082C9
:10212000C801BF010E946B0D82E080933803FE015D
:10213000E95AFF4FB182A082C801BF010E946B0D16
:1021400093E090933803FE01E75AFF4F89EF91E047
:1021500091838083C801BF010E946B0D84E080934E
:102160003803FE01E55AFF4FF182E082C801BF014A
:102170000E946B0D95E090933803FE01E35AFF4FE8
:102180008AEA90E091838083C801BF010E946B0DB1
:1021900096E090933803FE01E15AFF4FD182C0824E
:1021A000C801BF010E946B0D87E080933803FE01D8
:1021B000EF59FF4FF182E082C801BF010E946B0D11
:1021C00060EC76EC8DE290E00E94E10091E090936B
:1021D0003803FE01ED59FF4F51824082C801BF0113
:1021E0000E946B0D82E080933803FE01EB59FF4F94
:1021F00084EA91E091838083C801BF010E946B0D46
:1022000093E090933803FE01E959FF4FBCE8AB2EF1
:10221000B2E0BB2EB182A082C801BF010E946B0D4B
:1022200084E080933803FE01E759FF4FA8EBCA2EE4
:10223000D12CD182C082C801BF010E946B0D95E0F4
:1022400090933803FE01E559FF4F76EAE72EF12C13
:10225000F182E082C801BF010E946B0D86E080938D
:102260003803FE01E359FF4F62E1262E62E0362E6D
:1022700031822082C801BF010E946B0D97E09093CC
:102280003803FE01E159FF4F5EEE652E51E0752ED9
:1022900071826082C801BF010E946B0D60E874E822
:1022A0008EE190E00E94E10081E080933803FE011E
:1022B000EF58FF4F51824082C801BF010E946B0D51
:1022C00092E090933803FE01ED58FF4F8AE392E0CD
:1022D00091838083C801BF010E946B0D83E08093CE
:1022E0003803FE01EB58FF4FB182A082C801BF0145
:1022F0000E946B0D94E090933803FE01E958FF4F64
:10230000D182C082C801BF010E946B0D85E080931D
:102310003803FE01E758FF4FF182E082C801BF0198
:102320000E946B0D96E090933803FE01E558FF4F35
:1023300031822082C801BF010E946B0D87E080932B
:102340003803FE01E358FF4F71826082C801BF016C
:102350000E946B0D60E874E88EE190E00E94E1005D
:1023600091E090933803FE01E158FF4F48EA442E74
:10237000512C51824082C801BF010E946B0D82E046
:1023800080933803FE01EF57FF4F8AE192E091837B
:102390008083C801BF010E946B0D93E090933803C6
:1023A000FE01ED57FF4F89E991E091838083C801D9
:1023B000BF010E946B0D84E080933803FE01EB5750
:1023C000FF4F8CE191E091838083C801BF010E949F
:1023D0006B0D95E090933803FE01E957FF4F8EEEA9
:1023E00090E091838083C801BF010E946B0D86E05D
:1023F00080933803FE01E757FF4F31822082C801E6
:10240000BF010E946B0D97E090933803FE01E557E2
:10241000FF4F71826082C801BF010E946B0D60E4B2
:1024200072E48FE090E00E94E10081E08093380345
:10243000FE01E357FF4F51824082C801BF010E9455
:102440006B0D92E090933803FE01E157FF4F36ED9C
:10245000E32E31E0F32EF182E082C801BF010E9439
:102460006B0D83E080933803FE01EF56FF4F88EB3E
:1024700091E091838083C801BF010E946B0D94E0BD
:1024800090933803FE01ED56FF4F84E791E091836E
:102490008083C801BF010E946B0D85E080933803E3
:1024A000FE01EB56FF4F8AEA90E091838083C801DA
:1024B000BF010E946B0D96E090933803FE01E95630
:1024C000FF4F31822082C801BF010E946B0D87E05F
:1024D00080933803FE01E756FF4F71826082C80186
:1024E000BF010E946B0D60EC76EC8DE290E00E94E3
:1024F000E10091E090933803FE01E556FF4F5182D1
:102500004082C801BF010E946B0D82E080933803B6
:10251000FE01E356FF4FF182E082C801BF010E9435
:102520006B0D93E090933803FE01E156FF4F25ECCD
:10253000822E21E0922E91828082C801BF010E94EA
:102540006B0D84E080933803FE01EF55FF4F90E45C
:10255000A92E91E0B92EB182A082C801BF010E94CC
:102560006B0D95E090933803FE01ED55FF4F8FEF13
:10257000C82ED12CD182C082C801BF010E946B0D30
:1025800086E080933803FE01EB55FF4F31822082B5
:10259000C801BF010E946B0D97E090933803FE01C4
:1025A000E955FF4F71826082C801BF010E946B0D27
:1025B00060EC76EC8DE290E00E94E10081E0809397
:1025C0003803FE01E755FF4F51824082C801BF0129
:1025D0000E946B0D92E090933803FE01E555FF4F8A
:1025E000F182E082C801BF010E946B0D83E08093FD
:1025F0003803FE01E355FF4F91828082C801BF017D
:102600000E946B0D94E090933803FE01E155FF4F5B
:10261000B182A082C801BF010E946B0D85E080934A
:102620003803FE01EF54FF4FD182C082C801BF01C1
:102630000E946B0D96E090933803FE01ED54FF4F1E
:10264000B0EFCB2EB1E0DB2ED182C082C801BF013A
:102650000E946B0D87E080933803FE01EB54FF4F1F
:10266000A6E1EA2EA2E0FA2EF182E082C801BF01C3
:102670000E946B0D60EC76EC8DE290E00E94E10030
:1026800091E090933803FE01E954FF4F518240825C
:10269000C801BF010E946B0D82E080933803FE01E8
:1026A000E754FF4F84E492E091838083C801BF0127
:1026B0000E946B0D93E090933803FE01E554FF4FA9
:1026C00081EB91E091838083C801BF010E946B0D73
:1026D00084E080933803FE01E354FF4F8AE391E0E6
:1026E00091838083C801BF010E946B0D95E0909398
:1026F0003803FE01E154FF4F81E091E09183808334
:10270000C801BF010E946B0D86E080933803FE0173
:10271000EF53FF4FD182C082C801BF010E946B0DF1
:1027200097E090933803FE01ED53FF4FF182E08272
:10273000C801BF010E946B0D60E874E88EE190E073
:102740000E94E100CC53DF4F0FB6F894DEBF0FBEFE
:10275000CDBFCF91DF911F910F91FF90EF90DF9050
:10276000CF90BF90AF909F908F907F906F905F9031
:102770004F903F902F9008952F923F924F925F92EB
:102780006F927F928F929F92AF92BF92CF92DF9281
:10279000EF92FF920F931F93DF93CF93CDB7DEB7E6
:1027A000C45CD0400FB6F894DEBF0FBECDBF08E3C7
:1027B00013E081E080933803E12C32E0F32EFA82BB
:1027C000E982C801BE016F5F7F4F0E946B0D92E0EE
:1027D000909338032DE5622E22E0722E7C826B826C
:1027E000C801BE016D5F7F4F0E946B0D83E0809337
:1027F000380397E2892E912C9E828D82C801BE01FA
:102800006B5F7F4F0E946B0D94E09093380381EDD6
:10281000A82E83E0B82EB886AF82C801BE01695FDA
:102820007F4F0E946B0D85E080933803B0EBCB2E79
:10283000B2E0DB2EDA86C986C801BE01675F7F4F32
:102840000E946B0D96E090933803FC86EB86C801DE
:10285000BE01655F7F4F0E946B0D87E08093380358
:10286000FE86ED86C801BE01635F7F4F0E946B0D3F
:1028700060E079E08DE390E00E94E10091E09093C8
:102880003803A4EB4A2E512C588A4F86C801BE014A
:10289000615F7F4F0E946B0D82E0809338037A8ADC
:1028A000698AC801BE016F5E7F4F0E946B0D93E085
:1028B000909338039C8A8B8AC801BE016D5E7F4F5E
:1028C0000E946B0D84E080933803BE8AAD8AC801F4
:1028D000BE016B5E7F4F0E946B0D95E090933803B5
:1028E000D88ECF8AC801BE01695E7F4F0E946B0DF2
:1028F00086E080933803FA8EE98EC801BE01675ED8
:102900007F4F0E946B0D97E090933803FC8EEB8E07
:10291000C801BE01655E7F4F0E946B0D60E472E4EA
:102920008FE090E00E94E10081E0809338035E8EAA
:102930004D8EC801BE01635E7F4F0E946B0D92E019
:102940009093380378A26F8EC801BE01615E7F4FFD
:102950000E946B0D83E0809338039AA289A2C8017C
:10296000BE016F5D7F4F0E946B0D94E09093380322
:10297000BCA2ABA2C801BE016D5D7F4F0E946B0D72
:1029800085E080933803DEA2CDA2C801BE016B5D55
:102990007F4F0E946B0D96E090933803F6EEEF2E7A
:1029A000F1E0FF2EF8A6EFA2C801BE01695D7F4FDE
:1029B0000E946B0D87E080933803E4E2CE2EE2E0C4
:1029C000DE2EDAA6C9A6C801BE01675D7F4F0E9450
:1029D0006B0D60E079E08DE390E00E94E10091E012
:1029E000909338035CA64BA6C801BE01655D7F4F7E
:1029F0000E946B0D82E08093380380E592E09EA7F1
:102A00008DA7C801BE01635D7F4F0E946B0D93E0EF
:102A1000909338038EE291E098AB8FA7C801BE0176
:102A2000615D7F4F0E946B0D84E0809338038BE9DA
:102A300091E09AAB89ABC801BE016F5C7F4F0E94E9
:102A40006B0D95E09093380386ED90E09CAB8BABDB
:102A5000C801BE016D5C7F4F0E946B0D86E08093C4
:102A60003803FEAAEDAAC801BE016B5C7F4F0E942D
:102A70006B0D97E090933803D8AECFAAC801BE0182
:102A8000695C7F4F0E946B0D60E87DE88BE590E00C
:102A90000E94E10081E0809338035AAE49AEC8013C
:102AA000BE01675C7F4F0E946B0D92E090933803EC
:102AB0007FE9A72E71E0B72EBCAEABAEC801BE0158
:102AC000655C7F4F0E946B0D83E0809338036FEB52
:102AD000862E61E0962E9EAE8DAEC801BE01635C6F
:102AE0007F4F0E946B0D94E0909338035DED652E4F
:102AF00051E0752EFE01FF9671826082C801BF0110
:102B00000E946B0D85E080933803FE01EF5BFF4F61
:102B10008AEA90E091838083C801BF010E946B0D17
:102B200096E090933803FE01ED5BFF4FF182E08267
:102B3000C801BF010E946B0D87E080933803FE013E
:102B4000EB5BFF4FD182C082C801BF010E946B0DB9
:102B500060E47BE48CE490E00E94E10091E09093DB
:102B60003803FE01E95BFF4F51824082C801BF017B
:102B70000E946B0D82E080933803FE01E75BFF4FFC
:102B8000B182A082C801BF010E946B0D93E09093B7
:102B90003803FE01E55BFF4F91828082C801BF01CF
:102BA0000E946B0D84E080933803FE01E35BFF4FCE
:102BB00071826082C801BF010E946B0D95E0909305
:102BC0003803FE01E15BFF4F8AEA90E09183808346
:102BD000C801BF010E946B0D96E090933803FE017F
:102BE000EF5AFF4F4CE0C42E42E0D42ED182C08277
:102BF000C801BF010E946B0D87E080933803FE017E
:102C0000ED5AFF4F34EFE32E31E0F32EF182E082F4
:102C1000C801BF010E946B0D60E874E88EE190E08E
:102C20000E94E10091E090933803FE01EB5AFF4FC0
:102C300051824082C801BF010E946B0D82E08093E7
:102C40003803FE01E95AFF4FB182A082C801BF01DB
:102C50000E946B0D93E090933803FE01E75AFF4FFB
:102C600089EF91E091838083C801BF010E946B0DC1
:102C700084E080933803FE01E55AFF4FF182E08241
:102C8000C801BF010E946B0D95E090933803FE01CF
:102C9000E35AFF4F8AEA90E091838083C801BF0125
:102CA0000E946B0D96E090933803FE01E15AFF4FAE
:102CB000D182C082C801BF010E946B0D87E0809362
:102CC0003803FE01EF59FF4FF182E082C801BF01D6
:102CD0000E946B0D60EC76EC8DE290E00E94E100CA
:102CE00091E090933803FE01ED59FF4F51824082ED
:102CF000C801BF010E946B0D82E080933803FE0182
:102D0000EB59FF4F84EA91E091838083C801BF01B2
:102D10000E946B0D93E090933803FE01E959FF4F39
:102D20002CE8A22E22E0B22EB182A082C801BF01FF
:102D30000E946B0D84E080933803FE01E759FF4F3A
:102D400098EBC92ED12CD182C082C801BF010E944C
:102D50006B0D95E090933803FE01E559FF4F86EA2D
:102D6000E82EF12CF182E082C801BF010E946B0DB8
:102D700086E080933803FE01E359FF4FB2E12B2E2A
:102D8000B2E03B2E31822082C801BF010E946B0D50
:102D900097E090933803FE01E159FF4FAEEE6A2EA3
:102DA000A1E07A2E71826082C801BF010E946B0D82
:102DB00060E874E88EE190E00E94E10081E0809399
:102DC0003803FE01EF58FF4F51824082C801BF0116
:102DD0000E946B0D92E090933803FE01ED58FF4F77
:102DE0008AE392E091838083C801BF010E946B0D4A
:102DF00093E090933803FE01EB58FF4FB182A0821D
:102E0000C801BF010E946B0D84E080933803FE016E
:102E1000E958FF4FD182C082C801BF010E946B0DEB
:102E200095E090933803FE01E758FF4FF182E0826E
:102E3000C801BF010E946B0D86E080933803FE013C
:102E4000E558FF4F31822082C801BF010E946B0DFF
:102E500097E090933803FE01E358FF4F7182608240
:102E6000C801BF010E946B0D60E874E88EE190E03C
:102E70000E94E10081E080933803FE01E158FF4F9A
:102E800078EA472E512C51824082C801BF010E942E
:102E90006B0D92E090933803FE01EF57FF4F8AE1EC
:102EA00092E091838083C801BF010E946B0D83E093
:102EB00080933803FE01ED57FF4F89E991E091833C
:102EC0008083C801BF010E946B0D94E0909338038A
:102ED000FE01EB57FF4F8CE191E091838083C801A5
:102EE000BF010E946B0D85E080933803FE01E95716
:102EF000FF4F8EEE90E091838083C801BF010E9456
:102F00006B0D96E090933803FE01E757FF4F318237
:102F10002082C801BF010E946B0D87E080933803B7
:102F2000FE01E557FF4F71826082C801BF010E9418
:102F30006B0D60E472E48FE090E00E94E10091E0AC
:102F400090933803FE01E357FF4F51824082C8013E
:102F5000BF010E946B0D82E080933803FE01E157B0
:102F6000FF4F66EDE62E61E0F62EF182E082C801A9
:102F7000BF010E946B0D93E090933803FE01EF5662
:102F8000FF4F88EB91E091838083C801BF010E94CD
:102F90006B0D84E080933803FE01ED56FF4F84E70C
:102FA00091E091838083C801BF010E946B0D95E081
:102FB00090933803FE01EB56FF4F8AEA90E091832D
:102FC0008083C801BF010E946B0D96E09093380387
:102FD000FE01E956FF4F31822082C801BF010E94E5
:102FE0006B0D87E080933803FE01E756FF4F718237
:102FF0006082C801BF010E946B0D60EC76EC8DE22F
:1030000090E00E94E10091E090933803FE01E556C4
:10301000FF4F51824082C801BF010E946B0D82E0C8
:1030200080933803FE01E356FF4FF182E082C8012E
:10303000BF010E946B0D93E090933803FE01E156AF
:10304000FF4F55EC852E51E0952E91828082C8016C
:10305000BF010E946B0D84E080933803FE01EF55A1
:10306000FF4F40E4A42E41E0B42EB182A082C801FB
:10307000BF010E946B0D95E090933803FE01ED5562
:10308000FF4F35EFC32ED12CD182C082C801BF01C2
:103090000E946B0D86E080933803FE01EB55FF4FD5
:1030A00031822082C801BF010E946B0D97E090938E
:1030B0003803FE01E955FF4F71826082C801BF01EC
:1030C0000E946B0D60EC76EC8DE290E00E94E100D6
:1030D00081E080933803FE01E755FF4F5182408223
:1030E000C801BF010E946B0D92E090933803FE016E
:1030F000E555FF4FF182E082C801BF010E946B0DD0
:1031000083E080933803FE01E355FF4F9182808274
:10311000C801BF010E946B0D94E090933803FE013B
:10312000E155FF4FB182A082C801BF010E946B0D23
:1031300085E080933803FE01EF54FF4FD182C082B7
:10314000C801BF010E946B0D96E090933803FE0109
:10315000ED54FF4F20EFC22E21E0D22ED182C0824B
:10316000C801BF010E946B0D87E080933803FE0108
:10317000EB54FF4F96E1E92E92E0F92EF182E082C6
:10318000C801BF010E946B0D60EC76EC8DE290E00F
:103190000E94E10091E090933803FE01E954FF4F53
:1031A00051824082C801BF010E946B0D82E0809372
:1031B0003803FE01E754FF4F8AE392E09183808356
:1031C000C801BF010E946B0D93E090933803FE018C
:1031D000E554FF4F81EB91E091838083C801BF01EB
:1031E0000E946B0D84E080933803FE01E354FF4F8F
:1031F0008AE391E091838083C801BF010E946B0D37
:1032000095E090933803FE01E154FF4F81E091E097
:1032100091838083C801BF010E946B0D86E080937B
:103220003803FE01EF53FF4FD182C082C801BF01B6
:103230000E946B0D97E090933803FE01ED53FF4F12
:10324000F182E082C801BF010E946B0D60E874E862
:103250008EE190E00E94E100CC53DF4F0FB6F8946E
:10326000DEBF0FBECDBFCF91DF911F910F91FF90B9
:10327000EF90DF90CF90BF90AF909F908F907F9016
:103280006F905F904F903F902F9008952F923F92B4
:103290004F925F926F927F928F929F92AF92BF9266
:1032A000CF92DF92EF92FF920F931F93DF93CF9312
:1032B000CDB7DEB7C654D0400FB6F894DEBF0FBE10
:1032C000CDBF08E313E081E08093380394E1492EF9
:1032D00093E0592E5A824982C801BE016F5F7F4F29
:1032E0000E946B0D82E08093380389E092E09C831A
:1032F0008B83C801BE016D5F7F4F0E946B0D83E021
:10330000809338038BEC91E09E838D83C801BE01CE
:103310006B5F7F4F0E946B0D84E0282E2092380354
:1033200087E591E098878F83C801BE01695F7F4F71
:103330000E946B0D85E0809338038FE191E09A87BE
:103340008987C801BE01675F7F4F0E946B0D86E0D1
:1033500080933803E12CB2E0FB2EFC86EB86C8019B
:10336000BE01655F7F4F0E946B0DA7E03A2E309241
:103370003803FE86ED86C801BE01635F7F4F0E9461
:103380006B0D60EC7FEC8AE690E00E94E10081E04A
:1033900080933803588A4F86C801BE01615F7F4F12
:1033A0000E946B0D82E08093380384EF91E09A8B4A
:1033B000898BC801BE016F5E7F4F0E946B0D83E059
:1033C00080933803F8EBAF2EF1E0BF2EBC8AAB8AB6
:1033D000C801BE016D5E7F4F0E946B0D20923803C5
:1033E000E9ECCE2EE1E0DE2EDE8ACD8AC801BE01F8
:1033F0006B5E7F4F0E946B0D85E08093380384EBFA
:1034000090E0988F8F8BC801BE01695E7F4F0E944C
:103410006B0D86E080933803FA8EE98EC801BE01F9
:10342000675E7F4F0E946B0D30923803FC8EEB8EEF
:10343000C801BE01655E7F4F0E946B0D60E472E4BF
:103440008FE090E00E94E10081E0809338035E8E7F
:103450004D8EC801BE01635E7F4F0E946B0D82E0FE
:103460008093380372EC672E71E0772E78A26F8E0E
:10347000C801BE01615E7F4F0E946B0D83E08093A7
:103480003803BAA2A9A2C801BE016F5D7F4F0E9496
:103490006B0D20923803DCA2CBA2C801BE016D5D8A
:1034A0007F4F0E946B0D85E0809338036EEB862E74
:1034B000912C9EA28DA2C801BE016B5D7F4F0E9420
:1034C0006B0D86E080933803F8A6EFA2C801BE0119
:1034D000695D7F4F0E946B0D30923803FAA6E9A612
:1034E000C801BE01675D7F4F0E946B0D60E079E00F
:1034F0008DE390E00E94E10081E0809338035CA6B8
:103500004BA6C801BE01655D7F4F0E946B0D82E036
:10351000809338037EA66DA6C801BE01635D7F4F10
:103520000E946B0D83E080933803B8AAAFA6C80150
:10353000BE01615D7F4F0E946B0D20923803DAAAB5
:10354000C9AAC801BE016F5C7F4F0E946B0D85E068
:10355000809338039CAA8BAAC801BE016D5C7F4F83
:103560000E946B0D86E08093380356EEE52E51E005
:10357000F52EFEAAEDAAC801BE016B5C7F4F0E942A
:103580006B0D3092380344E2C42E42E0D42ED8AE04
:10359000CFAAC801BE01695C7F4F0E946B0D60E03D
:1035A00079E08DE390E00E94E10081E080933803B0
:1035B0005AAE49AEC801BE01675C7F4F0E946B0DD9
:1035C00082E08093380386E292E09CAF8BAFC80123
:1035D000BE01655C7F4F0E946B0D83E080933803D2
:1035E00085EC91E09EAF8DAFC801BE01635C7F4F5B
:1035F0000E946B0D20923803FE01FF9682EB91E052
:1036000091838083C801BF010E946B0D85E0809388
:103610003803FE01EF5BFF4F81EA90E091838083E6
:10362000C801BF010E946B0D86E080933803FE0144
:10363000ED5BFF4FF182E082C801BF010E946B0D7C
:1036400030923803FE01EB5BFF4FD182C082C8018C
:10365000BF010E946B0D60E079E08DE390E00E9475
:10366000E100CA5BDF4F0FB6F894DEBF0FBECDBFDF
:10367000CF91DF911F910F91FF90EF90DF90CF904E
:10368000BF90AF909F908F907F906F905F904F9082
:103690003F902F9008952F923F924F925F926F929A
:1036A0007F928F929F92AF92BF92CF92DF92EF92D2
:1036B000FF920F931F93DF93CF93CDB7DEB7C6541E
:1036C000D0400FB6F894DEBF0FBECDBF08E313E0C5
:1036D00081E080933803B6E44B2EB3E05B2E5A8230
:1036E0004982C801BE016F5F7F4F0E946B0D82E06F
:1036F0008093380389E092E09C838B83C801BE01EC
:103700006D5F7F4F0E946B0D83E0809338038BECDD
:1037100091E09E838D83C801BE016B5F7F4F0E9445
:103720006B0DA4E02A2E2092380387E591E098875C
:103730008F83C801BE01695F7F4F0E946B0D85E0DA
:10374000809338038FE191E09A878987C801BE0191
:10375000675F7F4F0E946B0D86E080933803E12CFA
:10376000F2E0FF2EFC86EB86C801BE01655F7F4F4D
:103770000E946B0DE7E03E2E30923803FE86ED8608
:10378000C801BE01635F7F4F0E946B0D60EC7FEC50
:103790008AE690E00E94E10081E080933803588A35
:1037A0004F86C801BE01615F7F4F0E946B0D82E0B2
:1037B0008093380384EF91E09A8B898BC801BE0116
:1037C0006F5E7F4F0E946B0D83E08093380378EB30
:1037D000A72E71E0B72EBC8AAB8AC801BE016D5E10
:1037E0007F4F0E946B0D2092380369ECC62E61E07A
:1037F000D62EDE8ACD8AC801BE016B5E7F4F0E9445
:103800006B0D85E08093380384EB90E0988F8F8B6D
:10381000C801BE01695E7F4F0E946B0D86E08093F8
:103820003803FA8EE98EC801BE01675E7F4F0E94A1
:103830006B0D30923803FC8EEB8EC801BE01655EC5
:103840007F4F0E946B0D60E472E48FE090E00E9475
:10385000E10081E0809338035E8E4D8EC801BE0189
:10386000635E7F4F0E946B0D82E08093380352ECC1
:10387000652E51E0752E78A26F8EC801BE01615E83
:103880007F4F0E946B0D83E080933803BAA2A9A2F8
:10389000C801BE016F5D7F4F0E946B0D20923803FF
:1038A000DCA2CBA2C801BE016D5D7F4F0E946B0DF3
:1038B00085E0809338034EEB842E912C9EA28DA23E
:1038C000C801BE016B5D7F4F0E946B0D86E0809347
:1038D0003803F8A6EFA2C801BE01695D7F4F0E94C0
:1038E0006B0D30923803FAA6E9A6C801BE01675DE8
:1038F0007F4F0E946B0D60E079E08DE390E00E94C5
:10390000E10081E0809338035CA64BA6C801BE01AC
:10391000655D7F4F0E946B0D82E0809338037EA629
:103920006DA6C801BE01635D7F4F0E946B0D83E0F1
:1039300080933803B8AAAFA6C801BE01615D7F4F6E
:103940000E946B0D20923803DAAAC9AAC801BE01F1
:103950006F5C7F4F0E946B0D85E0809338039CAABB
:103960008BAAC801BE016D5C7F4F0E946B0D86E083
:103970008093380336EEE32E31E0F32EFEAAEDAA53
:10398000C801BE016B5C7F4F0E946B0D3092380303
:1039900024E2C22E22E0D22ED8AECFAAC801BE01A8
:1039A000695C7F4F0E946B0D60E079E08DE390E0F1
:1039B0000E94E10081E0809338035AAE49AEC8010D
:1039C000BE01675C7F4F0E946B0D82E080933803DD
:1039D00086E292E09CAF8BAFC801BE01655C7F4F71
:1039E0000E946B0D83E08093380385EC91E09EAFDD
:1039F0008DAFC801BE01635C7F4F0E946B0D2092AA
:103A00003803FE01FF9682EB91E091838083C80129
:103A1000BF010E946B0D85E080933803FE01EF5BD0
:103A2000FF4F81EA90E091838083C801BF010E942B
:103A30006B0D86E080933803FE01ED5BFF4FF18252
:103A4000E082C801BF010E946B0D30923803FE0175
:103A5000EB5BFF4FD182C082C801BF010E946B0D9A
:103A600060E079E08DE390E00E94E100CA5BDF4F07
:103A70000FB6F894DEBF0FBECDBFCF91DF911F917F
:103A80000F91FF90EF90DF90CF90BF90AF909F90FD
:103A90008F907F906F905F904F903F902F90089500
:103AA000EF92FF920F931F93DF93CF93CDB7DEB7C3
:103AB0002E970FB6F894DEBF0FBECDBF08E313E01C
:103AC00081E080933803E12C82E0F82EFA82E982CB
:103AD000C801BE016F5F7F4F0E946B0D82E0809333
:103AE00038038DE592E09C838B83C801BE016D5F36
:103AF0007F4F0E946B0D83E08093380387E290E054
:103B00009E838D83C801BE016B5F7F4F0E946B0D4A
:103B100084E08093380381ED93E098878F83C80118
:103B2000BE01695F7F4F0E946B0D85E08093380373
:103B300080EB92E09A878987C801BE01675F7F4F5B
:103B40000E946B0D86E080933803FC86EB86C801EB
:103B5000BE01655F7F4F0E946B0D87E08093380345
:103B6000FE86ED86C801BE01635F7F4F0E946B0D2C
:103B70002E960FB6F894DEBF0FBECDBFCF91DF916A
:103B80001F910F91FF90EF9008950E94501D0E9489
:103B9000BC1308952F923F924F925F926F927F9243
:103BA0008F929F92AF92BF92CF92DF92EF92FF924D
:103BB0000F931F93DF93CF93CDB7DEB7E8970FB680
:103BC000F894DEBF0FBECDBF08E313E081E0809321
:103BD000380386EC90E09A838983C801BE016F5F49
:103BE0007F4F0E946B0D92E09093380384EF91E039
:103BF0009C838B83C801BE016D5F7F4F0E946B0D5C
:103C000083E0809338038CEB92E09E838D83C80120
:103C1000BE016B5F7F4F0E946B0D94E09093380361
:103C20008AE391E098878F83C801BE01695F7F4F67
:103C30000E946B0D85E08093380388EF90E09A87AF
:103C40008987C801BE01675F7F4F0E946B0D96E0B8
:103C500090933803F2E12F2EF2E03F2E3C862B8624
:103C6000C801BE01655F7F4F0E946B0D87E08093A6
:103C70003803EEEE4E2EE1E05E2E5E864D86C801E4
:103C8000BE01635F7F4F0E946B0D60E874E88EE1B8
:103C900090E00E94E10091E09093380375EC672E6C
:103CA000712C788A6F86C801BE01615F7F4F0E94C8
:103CB0006B0D82E0809338036AE3862E62E0962ED5
:103CC0009A8A898AC801BE016F5E7F4F0E946B0D80
:103CD00093E09093380354E4A52E51E0B52EBC8AAE
:103CE000AB8AC801BE016D5E7F4F0E946B0D84E000
:103CF0008093380340E5C42E41E0D42EDE8ACD8A7D
:103D0000C801BE016B5E7F4F0E946B0D95E09093E2
:103D100038033EE0E32E31E0F32EF88EEF8AC8013F
:103D2000BE01695E7F4F0E946B0D86E08093380371
:103D30003A8E298EC801BE01675E7F4F0E946B0DCF
:103D400097E0909338035C8E4B8EC801BE01655E90
:103D50007F4F0E946B0D60E47BE48CE490E00E9456
:103D6000E10081E0809338037E8E6D8EC801BE0134
:103D7000635E7F4F0E946B0D92E09093380398A290
:103D80008F8EC801BE01615E7F4F0E946B0D83E084
:103D900080933803BAA2A9A2C801BE016F5D7F4F0C
:103DA0000E946B0D94E090933803DCA2CBA2C80173
:103DB000BE016D5D7F4F0E946B0D85E080933803DF
:103DC000FEA2EDA2C801BE016B5D7F4F0E946B0D8C
:103DD00096E09093380326EEC22E21E0D22ED8A68C
:103DE000CFA2C801BE01695D7F4F0E946B0D87E0C5
:103DF000809338039CE0E92E92E0F92EFAA6E9A61A
:103E0000C801BE01675D7F4F0E946B0D60E874E8DA
:103E10008EE190E00E94E10091E09093380386ECFF
:103E200090E09CA78BA7C801BE01655D7F4F0E94F3
:103E30006B0D92E0909338038EEE92E09EA78DA7D3
:103E4000C801BE01635D7F4F0E946B0D83E08093CC
:103E5000380384E291E098AB8FA7C801BE01615D91
:103E60007F4F0E946B0D94E09093380385E791E0BB
:103E70009AAB89ABC801BE016F5C7F4F0E946B0D8E
:103E800085E08093380388EC90E09CAB8BABC80155
:103E9000BE016D5C7F4F0E946B0D96E090933803DE
:103EA000DEAACDAAC801BE016B5C7F4F0E946B0DDC
:103EB00087E080933803F8AEEFAAC801BE01695CC1
:103EC0007F4F0E946B0D60E874E88EE190E00E94E5
:103ED000E100E8960FB6F894DEBF0FBECDBFCF91DC
:103EE000DF911F910F91FF90EF90DF90CF90BF90E7
:103EF000AF909F908F907F906F905F904F903F908A
:103F00002F9008952F923F924F925F926F927F92DF
:103F10008F929F92AF92BF92CF92DF92EF92FF92D9
:103F20000F931F93DF93CF93CDB7DEB7EC970FB608
:103F3000F894DEBF0FBECDBF08E313E082E08093AC
:103F4000380384EF91E09A838983C801BE016F5FD3
:103F50007F4F0E946B0D83E0809338038CEB92E0DF
:103F60009C838B83C801BE016D5F7F4F0E946B0DE8
:103F700084E0809338038AE391E09E838D83C801B7
:103F8000BE016B5F7F4F0E946B0D85E0809338030D
:103F900088EF90E098878F83C801BE01695F7F4FEB
:103FA0000E946B0DE6E02E2E2092380372E1472E20
:103FB00072E0572E5A864986C801BE01675F7F4F5F
:103FC0000E946B0D67E0362E309238035EEE652E50
:103FD00051E0752E7C866B86C801BE01655F7F4F00
:103FE0000E946B0D60EC76EC8DE290E00E94E100A7
:103FF00082E0809338034AEEE42E41E0F42EFE8600
:10400000ED86C801BE01635F7F4F0E946B0D83E0A8
:104010008093380333EB832E31E0932E988A8F867A
:10402000C801BE01615F7F4F0E946B0D84E08093E9
:10403000380320E4A22E21E0B22EBA8AA98AC80150
:10404000BE016F5E7F4F0E946B0D85E08093380349
:1040500094E0C92E91E0D92EDC8ACB8AC801BE013A
:104060006D5E7F4F0E946B0D209238035E8A4D8AF1
:10407000C801BE016B5E7F4F0E946B0D309238030A
:10408000788E6F8AC801BE01695E7F4F0E946B0DFA
:1040900060EC76EC8DE290E00E94E10082E080939B
:1040A0003803FA8EE98EC801BE01675E7F4F0E9419
:1040B0006B0D83E0809338039C8E8B8EC801BE010C
:1040C000655E7F4F0E946B0D84E080933803BE8E47
:1040D000AD8EC801BE01635E7F4F0E946B0D85E00F
:1040E00080933803D8A2CF8EC801BE01615E7F4F96
:1040F0000E946B0D209238038EEFE82E81E0F82E9F
:10410000FAA2E9A2C801BE016F5D7F4F0E946B0D4C
:1041100030923803FCA2EBA2C801BE016D5D7F4F57
:104120000E946B0D60E673EE86E190E00E94E10074
:1041300082E08093380380EE91E09EA38DA3C801B6
:10414000BE016B5D7F4F0E946B0D83E0809338034F
:1041500098A68FA2C801BE01695D7F4F0E946B0DBA
:1041600084E080933803BAA6A9A6C801BE01675DA2
:104170007F4F0E946B0D85E080933803DCA6CBA6B1
:10418000C801BE01655D7F4F0E946B0D2092380310
:10419000B6EECB2EB1E0DB2EDEA6CDA6C801BE0169
:1041A000635D7F4F0E946B0D30923803A4E2EA2ECC
:1041B000A2E0FA2EF8AAEFA6C801BE01615D7F4F0A
:1041C0000E946B0D60EC76EC8DE290E00E94E100C5
:1041D00082E0809338038DE592E09AAB89ABC80109
:1041E000BE016F5C7F4F0E946B0D83E080933803AC
:1041F00087E290E09CAB8BABC801BE016D5C7F4F4A
:104200000E946B0D84E08093380381ED93E09EABB8
:104210008DABC801BE016B5C7F4F0E946B0D85E0CA
:104220008093380380EB92E098AF8FABC801BE015A
:10423000695C7F4F0E946B0D20923803DAAEC9AEE5
:10424000C801BE01675C7F4F0E946B0D309238033E
:10425000FCAEEBAEC801BE01655C7F4F0E946B0DEA
:1042600060E874E88EE190E00E94E100EC960FB601
:10427000F894DEBF0FBECDBFCF91DF911F910F919C
:10428000FF90EF90DF90CF90BF90AF909F908F9076
:104290007F906F905F904F903F902F900895DF93A5
:1042A000CF9300D0CDB7DEB781E0809338038EE0A6
:1042B00090E09A83898388E393E0BE016F5F7F4F2C
:1042C0000E946B0D0E94821F0F900F90CF91DF9183
:1042D0000895DF93CF9300D0CDB7DEB781E0809310
:1042E000380382E390E09A83898388E393E0BE01F8
:1042F0006F5F7F4F0E946B0D0E94821F0F900F9087
:10430000CF91DF910895DF93CF9300D0CDB7DEB783
:1043100081E08093380388E590E09A83898388E37D
:1043200093E0BE016F5F7F4F0E946B0D0E94821F62
:104330000F900F90CF91DF910895DF93CF9300D02E
:10434000CDB7DEB781E0809338038EE790E09A83A3
:10435000898388E393E0BE016F5F7F4F0E946B0DFE
:104360000E94821F0F900F90CF91DF910895DF93ED
:10437000CF9300D0CDB7DEB781E08093380388EAD1
:1043800090E09A83898388E393E0BE016F5F7F4F5B
:104390000E946B0D0E94821F0F900F90CF91DF91B2
:1043A0000895DF93CF9300D0CDB7DEB781E080933F
:1043B00038038AEC90E09A83898388E393E0BE0116
:1043C0006F5F7F4F0E946B0D0E94821F0F900F90B6
:1043D000CF91DF910895DF93CF9300D0CDB7DEB7B3
:1043E00081E0809338038FEE90E09A83898388E39D
:1043F00093E0BE016F5F7F4F0E946B0D0E94821F92
:104400000F900F90CF91DF910895DF93CF9300D05D
:10441000CDB7DEB781E0809338038BE191E09A83DA
:10442000898388E393E0BE016F5F7F4F0E946B0D2D
:104430000E94821F0F900F90CF91DF910895DF931C
:10444000CF9300D0CDB7DEB781E0809338038CE303
:1044500091E09A83898388E393E0BE016F5F7F4F89
:104460000E946B0D0E94821F0F900F90CF91DF91E1
:104470000895DF93CF9300D0CDB7DEB781E080936E
:10448000380380E691E09A83898388E393E0BE0154
:104490006F5F7F4F0E946B0D0E94821F0F900F90E5
:1044A000CF91DF910895DF93CF9300D0CDB7DEB7E2
:1044B00081E08093380388E891E09A83898388E3D8
:1044C00093E0BE016F5F7F4F0E946B0D0E94821FC1
:1044D0000F900F90CF91DF910895DF93CF9300D08D
:1044E000CDB7DEB781E08093380382EB91E09A8309
:1044F000898388E393E0BE016F5F7F4F0E946B0D5D
:104500000E94821F0F900F90CF91DF910895DF934B
:10451000CF9300D0CDB7DEB781E08093380386ED2E
:1045200091E09A83898388E393E0BE016F5F7F4FB8
:104530000E946B0D0E94821F0F900F90CF91DF9110
:104540000895DF93CF9300D0CDB7DEB781E080939D
:1045500038038EEF91E09A83898388E393E0BE016C
:104560006F5F7F4F0E946B0D0E94821F0F900F9014
:10457000CF91DF910895DF93CF9300D0CDB7DEB711
:1045800081E08093380384E292E09A83898388E310
:1045900093E0BE016F5F7F4F0E946B0D0E94821FF0
:1045A0000F900F90CF91DF910895DF93CF9300D0BC
:1045B000CDB7DEB781E0809338038DE492E09A8333
:1045C000898388E393E0BE016F5F7F4F0E946B0D8C
:1045D0000E94821F0F900F90CF91DF910895DF937B
:1045E000CF9300D0CDB7DEB781E08093380382E768
:1045F00092E09A83898388E393E0BE016F5F7F4FE7
:104600000E946B0D0E94821F0F900F90CF91DF913F
:104610000895DF93CF9300D0CDB7DEB781E08093CC
:10462000380383E992E09A83898388E393E0BE01AB
:104630006F5F7F4F0E946B0D0E94821F0F900F9043
:10464000CF91DF910895DF93CF9300D0CDB7DEB740
:1046500081E0809338038CEB92E09A83898388E32E
:1046600093E0BE016F5F7F4F0E946B0D0E94821F1F
:104670000F900F90CF91DF910895DF93CF9300D0EB
:10468000CDB7DEB781E08093380387EE92E09A835E
:10469000898388E393E0BE016F5F7F4F0E946B0DBB
:1046A0000E94821F0F900F90CF91DF910895DF93AA
:1046B000CF9300D0CDB7DEB781E0809338038CE094
:1046C00093E09A83898388E393E0BE016F5F7F4F15
:1046D0000E946B0D0E94821F0F900F90CF91DF916F
:1046E0000895DF93CF9300D0CDB7DEB781E08093FC
:1046F000380383E393E09A83898388E393E0BE01E0
:104700006F5F7F4F0E946B0D0E94821F0F900F9072
:10471000CF91DF910895DF93CF9300D0CDB7DEB76F
:1047200081E0809338038AE593E09A83898388E364
:1047300093E0BE016F5F7F4F0E946B0D0E94821F4E
:104740000F900F90CF91DF910895DF93CF9300D01A
:10475000CDB7DEB781E0809338038CE793E09A838E
:10476000898388E393E0BE016F5F7F4F0E946B0DEA
:104770000E94821F0F900F90CF91DF910895DF93D9
:10478000CF9300D0CDB7DEB781E08093380387EABE
:1047900093E09A83898388E393E0BE016F5F7F4F44
:1047A0000E946B0D0E94821F0F900F90CF91DF919E
:1047B0000895DF93CF9300D0CDB7DEB781E080932B
:1047C00038038CEC93E09A83898388E393E0BE01FD
:1047D0006F5F7F4F0E946B0D0E94821F0F900F90A2
:1047E000CF91DF910895DF93CF9300D0CDB7DEB79F
:1047F00081E08093380386EF93E09A83898388E38E
:1048000093E0BE016F5F7F4F0E946B0D0E94821F7D
:104810000F900F90CF91DF9108952F923F924F927A
:104820005F926F927F928F929F92AF92BF92CF9240
:10483000DF92EF92FF920F931F93DF93CF93CDB749
:10484000DEB7C854D0400FB6F894DEBF0FBECDBF60
:1048500008E313E082E0809338039DE5692E92E03F
:10486000792E7A826982C801BE016F5F7F4F0E94F4
:104870006B0D83E0382E30923803B7E28B2E912CEB
:104880009C828B82C801BE016D5F7F4F0E946B0DC1
:10489000A4E02A2E20923803F1EDAF2EF3E0BF2ED4
:1048A000BE82AD82C801BE016B5F7F4F0E946B0D5F
:1048B00085E080933803E0EBCE2EE2E0DE2ED88652
:1048C000CF82C801BE01695F7F4F0E946B0D76E009
:1048D000472E40923803E12C62E0F62EFA86E986F4
:1048E000C801BE01675F7F4F0E946B0D57E0552ED8
:1048F00050923803FC86EB86C801BE01655F7F4F8E
:104900000E946B0D60EE77E685E390E00E94E10087
:1049100082E0809338037E866D86C801BE01635FA6
:104920007F4F0E946B0D30923803988A8F86C801A2
:10493000BE01615F7F4F0E946B0D20923803BA8ADF
:10494000A98AC801BE016F5E7F4F0E946B0D85E092
:1049500080933803DC8ACB8AC801BE016D5E7F4F2D
:104960000E946B0D4092380346EEA42E41E0B42E17
:10497000BE8AAD8AC801BE016B5E7F4F0E946B0D7F
:104980005092380334E2C32E32E0D32ED88ECF8A31
:10499000C801BE01695E7F4F0E946B0D60E472E446
:1049A0008FE090E00E94E10082E0809338032CECDD
:1049B000E22E21E0F22EFA8EE98EC801BE01675E7A
:1049C0007F4F0E946B0D3092380390EC892E91E05E
:1049D000992E9C8E8B8EC801BE01655E7F4F0E9412
:1049E0006B0D2092380384E791E09E8F8D8FC80174
:1049F000BE01635E7F4F0E946B0D85E0809338039C
:104A00008AEA90E098A38F8FC801BE01615E7F4F54
:104A10000E946B0D40923803BAA2A9A2C801BE0140
:104A20006F5D7F4F0E946B0D50923803DCA2CBA2CA
:104A3000C801BE016D5D7F4F0E946B0D60EC76EC8E
:104A40008DE290E00E94E10082E080933803FEA2B4
:104A5000EDA2C801BE016B5D7F4F0E946B0D3092CD
:104A6000380398A68FA2C801BE01695D7F4F0E94DE
:104A70006B0D2092380380E4682E81E0782E7AA6B0
:104A800069A6C801BE01675D7F4F0E946B0D85E07E
:104A900080933803B8EF8B2E912C9CA68BA6C8016F
:104AA000BE01655D7F4F0E946B0D40923803BEA62C
:104AB000ADA6C801BE01635D7F4F0E946B0D509291
:104AC0003803D8AACFA6C801BE01615D7F4F0E94FE
:104AD0006B0D60EC76EC8DE290E00E94E10082E0EC
:104AE00080933803FAAAE9AAC801BE016F5C7F4F20
:104AF0000E946B0D3092380385EC91E09CAB8BAB40
:104B0000C801BE016D5C7F4F0E946B0D209238037F
:104B10007EAA6DAAC801BE016B5C7F4F0E946B0D1F
:104B200085E08093380398AE8FAAC801BE01695C06
:104B30007F4F0E946B0D40923803A2E1EA2EA2E063
:104B4000FA2EFAAEE9AEC801BE01675C7F4F0E9443
:104B50006B0D50923803FEEECF2EF1E0DF2EDCAE6F
:104B6000CBAEC801BE01655C7F4F0E946B0D60E457
:104B700072E48FE090E00E94E10082E080933803CD
:104B800084EF91E09EAF8DAFC801BE01635C7F4FA3
:104B90000E946B0D30923803FE01FF968CEB92E081
:104BA00091838083C801BF010E946B0D209238035E
:104BB000FE01EF5BFF4F8AE391E091838083C801A0
:104BC000BF010E946B0D85E080933803FE01ED5B11
:104BD000FF4F91828082C801BF010E946B0D4092FD
:104BE0003803FE01EB5BFF4FF182E082C801BF0199
:104BF0000E946B0D50923803FE01E95BFF4FD1829A
:104C0000C082C801BF010E946B0D60EC76EC8DE2A2
:104C100090E00E94E100C85BDF4F0FB6F894DEBF62
:104C20000FBECDBFCF91DF911F910F91FF90EF90FD
:104C3000DF90CF90BF90AF909F908F907F906F90BC
:104C40005F904F903F902F900895DF93CF9300D0C7
:104C5000CDB7DEB781E0809338038EE090E09A8391
:104C6000898388E393E0BE016F5F7F4F0E946B0DE5
:104C70000E940D240F900F90CF91DF910895DF9344
:104C8000CF9300D0CDB7DEB781E08093380382E3C5
:104C900090E09A83898388E393E0BE016F5F7F4F42
:104CA0000E946B0D0E940D240F900F90CF91DF9109
:104CB0000895DF93CF9300D0CDB7DEB781E0809326
:104CC000380388E590E09A83898388E393E0BE0106
:104CD0006F5F7F4F0E946B0D0E940D240F900F900D
:104CE000CF91DF910895DF93CF9300D0CDB7DEB79A
:104CF00081E0809338038EE790E09A83898388E38C
:104D000093E0BE016F5F7F4F0E946B0D0E940D24E8
:104D10000F900F90CF91DF910895DF93CF9300D044
:104D2000CDB7DEB781E08093380388EA90E09A83BC
:104D3000898388E393E0BE016F5F7F4F0E946B0D14
:104D40000E940D240F900F90CF91DF910895DF9373
:104D5000CF9300D0CDB7DEB781E0809338038AECE3
:104D600090E09A83898388E393E0BE016F5F7F4F71
:104D70000E946B0D0E940D240F900F90CF91DF9138
:104D80000895DF93CF9300D0CDB7DEB781E0809355
:104D900038038FEE90E09A83898388E393E0BE0125
:104DA0006F5F7F4F0E946B0D0E940D240F900F903C
:104DB000CF91DF910895DF93CF9300D0CDB7DEB7C9
:104DC00081E0809338038BE191E09A83898388E3C3
:104DD00093E0BE016F5F7F4F0E946B0D0E940D2418
:104DE0000F900F90CF91DF910895DF93CF9300D074
:104DF000CDB7DEB781E0809338038CE391E09A83EE
:104E0000898388E393E0BE016F5F7F4F0E946B0D43
:104E10000E940D240F900F90CF91DF910895DF93A2
:104E2000CF9300D0CDB7DEB781E08093380380E622
:104E300091E09A83898388E393E0BE016F5F7F4F9F
:104E40000E946B0D0E940D240F900F90CF91DF9167
:104E50000895DF93CF9300D0CDB7DEB781E0809384
:104E6000380388E891E09A83898388E393E0BE0160
:104E70006F5F7F4F0E946B0D0E940D240F900F906B
:104E8000CF91DF910895DF93CF9300D0CDB7DEB7F8
:104E900081E08093380382EB91E09A83898388E3F1
:104EA00093E0BE016F5F7F4F0E946B0D0E940D2447
:104EB0000F900F90CF91DF910895DF93CF9300D0A3
:104EC000CDB7DEB781E08093380386ED91E09A8319
:104ED000898388E393E0BE016F5F7F4F0E946B0D73
:104EE0000E940D240F900F90CF91DF9108950E94A2
:104EF0000F2760E874E88EE190E00E94E1000E94D4
:104F00004B1B60E874E88EE190E00E94E1000E9493
:104F10005D2760E874E88EE190E00E94E1000E9465
:104F200039220895DF93CF9300D0CDB7DEB781E06B
:104F3000809338038EEF91E09A83898388E393E02E
:104F4000BE016F5F7F4F0E946B0D0E940D240F907A
:104F50000F90CF91DF910895DF93CF9300D0CDB71D
:104F6000DEB781E08093380384E292E09A838983FC
:104F700088E393E0BE016F5F7F4F0E946B0D0E943C
:104F80000D240F900F90CF91DF910895DF93CF9371
:104F900000D0CDB7DEB781E0809338038DE492E096
:104FA0009A83898388E393E0BE016F5F7F4F0E94FD
:104FB0006B0D0E940D240F900F90CF91DF910895FB
:104FC000DF93CF9300D0CDB7DEB781E08093380375
:104FD00082E792E09A83898388E393E0BE016F5F62
:104FE0007F4F0E946B0D0E940D240F900F90CF9168
:104FF000DF910895DF93CF9300D0CDB7DEB781E086
:105000008093380383E992E09A83898388E393E06D
:10501000BE016F5F7F4F0E946B0D0E940D240F90A9
:105020000F90CF91DF910895DF93CF9300D0CDB74C
:10503000DEB781E0809338038CEB92E09A8389831A
:1050400088E393E0BE016F5F7F4F0E946B0D0E946B
:105050000D240F900F90CF91DF910895DF93CF93A0
:1050600000D0CDB7DEB781E08093380387EE92E0C1
:105070009A83898388E393E0BE016F5F7F4F0E942C
:105080006B0D0E940D240F900F90CF91DF9108952A
:10509000DF93CF9300D0CDB7DEB781E080933803A4
:1050A0008CE093E09A83898388E393E0BE016F5F8D
:1050B0007F4F0E946B0D0E940D240F900F90CF9197
:1050C000DF910895DF93CF9300D0CDB7DEB781E0B5
:1050D0008093380383E393E09A83898388E393E0A2
:1050E000BE016F5F7F4F0E946B0D0E940D240F90D9
:1050F0000F90CF91DF910895DF93CF9300D0CDB77C
:10510000DEB781E0809338038AE593E09A83898350
:1051100088E393E0BE016F5F7F4F0E946B0D0E949A
:105120000D240F900F90CF91DF910895DF93CF93CF
:1051300000D0CDB7DEB781E0809338038CE793E0F1
:105140009A83898388E393E0BE016F5F7F4F0E945B
:105150006B0D0E940D240F900F90CF91DF91089559
:10516000DF93CF9300D0CDB7DEB781E080933803D3
:1051700087EA93E09A83898388E393E0BE016F5FB7
:105180007F4F0E946B0D0E940D240F900F90CF91C6
:10519000DF910895DF93CF9300D0CDB7DEB781E0E4
:1051A000809338038CEC93E09A83898388E393E0BF
:1051B000BE016F5F7F4F0E946B0D0E940D240F9008
:1051C0000F90CF91DF910895DF93CF9300D0CDB7AB
:1051D000DEB781E08093380386EF93E09A8389837A
:1051E00088E393E0BE016F5F7F4F0E946B0D0E94CA
:1051F0000D240F900F90CF91DF9108952F923F9241
:105200004F925F926F927F928F929F92AF92BF92D6
:10521000CF92DF92EF92FF920F931F93DF93CF9382
:10522000CDB7DEB7E0970FB6F894DEBF0FBECDBFA7
:1052300008E313E082E08093380388E792E09A83E2
:105240008983C801BE016F5F7F4F0E946B0D83E0B1
:105250008093380382E791E09C838B83C801BE0171
:105260006D5F7F4F0E946B0D84E0809338038EEF5B
:1052700092E09E838D83C801BE016B5F7F4F0E94C9
:105280006B0D85E0809338038BE093E098878F83E4
:10529000C801BE01695F7F4F0E946B0DB6E02B2EE7
:1052A00020923803A8E04A2EA2E05A2E5A86498658
:1052B000C801BE01675F7F4F0E946B0DF7E03F2E74
:1052C00030923803E8EF6E2EE1E07E2E7C866B860E
:1052D000C801BE01655F7F4F0E946B0D60EC76ECEC
:1052E0008DE290E00E94E10082E08093380379E350
:1052F000872E72E0972E9E868D86C801BE01635F61
:105300007F4F0E946B0D83E0809338036AE3A62EE3
:1053100062E0B62EB88AAF86C801BE01615F7F4FDA
:105320000E946B0D84E0809338035CE7C52E52E049
:10533000D52EDA8AC98AC801BE016F5E7F4F0E94EE
:105340006B0D85E0809338034FE2E42E43E0F42EAA
:10535000FC8AEB8AC801BE016D5E7F4F0E946B0D17
:10536000209238035E8A4D8AC801BE016B5E7F4F72
:105370000E946B0D30923803788E6F8AC801BE018F
:10538000695E7F4F0E946B0D60EC76EC8DE290E0E1
:105390000E94E10082E0809338039A8E898EC801D2
:1053A000BE01675E7F4F0E946B0D83E080933803E0
:1053B000BC8EAB8EC801BE01655E7F4F0E946B0D37
:1053C00084E080933803DE8ECD8EC801BE01635E1B
:1053D0007F4F0E946B0D85E080933803F8A2EF8E1B
:1053E000C801BE01615E7F4F0E946B0D20923803A1
:1053F00036EEC32E31E0D32EDAA2C9A2C801BE0117
:105400006F5D7F4F0E946B0D3092380324E2E22ED5
:1054100022E0F22EFCA2EBA2C801BE016D5D7F4F1F
:105420000E946B0D60E472E48FE090E00E94E10066
:1054300082E08093380380E192E09EA38DA3C801AF
:10544000BE016B5D7F4F0E946B0D83E0809338033C
:1054500080E092E098A78FA3C801BE01695D7F4FED
:105460000E946B0D84E08093380389E193E09AA752
:1054700089A7C801BE01675D7F4F0E946B0D85E063
:105480008093380384EE92E09CA78BA7C801BE01ED
:10549000655D7F4F0E946B0D20923803DEA6CDA67E
:1054A000C801BE01635D7F4F0E946B0D30923803CF
:1054B000F8AAEFA6C801BE01615D7F4F0E946B0D87
:1054C00060E874E88EE190E00E94E100E0960FB69B
:1054D000F894DEBF0FBECDBFCF91DF911F910F912A
:1054E000FF90EF90DF90CF90BF90AF909F908F9004
:1054F0007F906F905F904F903F902F900895DF9333
:10550000CF9300D0CDB7DEB781E0809338038CEA2B
:1055100091E09A83898388E393E0BE016F5F7F4FB8
:105520000E946B0D0E94FE280F900F90CF91DF918B
:105530000895DF93CF9300D0CDB7DEB781E080939D
:10554000380384ED91E09A83898388E393E0BE0178
:105550006F5F7F4F0E946B0D0E94FE280F900F908F
:10556000CF91DF910895DF93CF9300D0CDB7DEB711
:1055700081E0809338038EEF91E09A83898388E3FA
:1055800093E0BE016F5F7F4F0E946B0D0E94FE286B
:105590000F900F90CF91DF910895DF93CF9300D0BC
:1055A000CDB7DEB781E0809338038AE292E09A8338
:1055B000898388E393E0BE016F5F7F4F0E946B0D8C
:1055C0000E94FE280F900F90CF91DF910895DF93F6
:1055D000CF9300D0CDB7DEB781E0809338038BE462
:1055E00092E09A83898388E393E0BE016F5F7F4FE7
:1055F0000E946B0D0E94FE280F900F90CF91DF91BB
:1056000008952F923F924F925F926F927F928F9266
:105610009F92AF92BF92CF92DF92EF92FF920F9341
:105620001F93DF93CF93CDB7DEB7EC970FB6F89407
:10563000DEBF0FBECDBF08E313E082E080933803E6
:105640008DE592E09A838983C801BE016F5F7F4F29
:105650000E946B0D93E09093380387E290E09C8367
:105660008B83C801BE016D5F7F4F0E946B0D84E08C
:105670008093380381ED93E09E838D83C801BE0142
:105680006B5F7F4F0E946B0D95E09093380380EB2A
:1056900092E098878F83C801BE01695F7F4F0E94A7
:1056A0006B0DF6E02F2E20923803E6EECE2EE1E0D1
:1056B000DE2EDA86C986C801BE01675F7F4F0E9471
:1056C0006B0D77E0372E3092380364E2E62E62E00D
:1056D000F62EFC86EB86C801BE01655F7F4F0E94F7
:1056E0006B0D60E472E48FE090E00E94E10082E0E4
:1056F0008093380382E692E09E878D87C801BE01C1
:10570000635F7F4F0E946B0D93E09093380382E1BB
:1057100092E0988B8F87C801BE01615F7F4F0E9426
:105720006B0D84E08093380381EB92E09A8B898B38
:10573000C801BE016F5E7F4F0E946B0D95E0909394
:10574000380388E193E09C8B8B8BC801BE016D5EB2
:105750007F4F0E946B0D20923803DE8ACD8AC801EC
:10576000BE016B5E7F4F0E946B0D30923803F88E46
:10577000EF8AC801BE01695E7F4F0E946B0D60EC2D
:1057800076EC8DE290E00E94E10082E080933803A5
:105790005CE1452E52E0552E5A8E498EC801BE015D
:1057A000675E7F4F0E946B0D93E0909338034DE648
:1057B000642E42E0742E7C8E6B8EC801BE01655E45
:1057C0007F4F0E946B0D84E0809338033FEA832E65
:1057D00032E0932E9E8E8D8EC801BE01635E7F4F98
:1057E0000E946B0D95E0909338032BECA22E22E0E3
:1057F000B22EB8A2AF8EC801BE01615E7F4F0E947B
:105800006B0D20923803DAA2C9A2C801BE016F5DF8
:105810007F4F0E946B0D30923803FCA2EBA2C801AF
:10582000BE016D5D7F4F0E946B0D60EC76EC8DE2EA
:1058300090E00E94E10082E0809338035EA24DA2D6
:10584000C801BE016B5D7F4F0E946B0D93E090938A
:10585000380378A66FA2C801BE01695D7F4F0E9420
:105860006B0D84E0809338039AA689A6C801BE0117
:10587000675D7F4F0E946B0D95E090933803BCA647
:10588000ABA6C801BE01655D7F4F0E946B0D2092E3
:10589000380398E0C92E92E0D92EDEA6CDA6C80125
:1058A000BE01635D7F4F0E946B0D3092380388EF1D
:1058B000E82E81E0F82EF8AAEFA6C801BE01615DCE
:1058C0007F4F0E946B0D60E472E48FE090E00E94D5
:1058D000E10082E08093380382E692E09AAB89ABE4
:1058E000C801BE016F5C7F4F0E946B0D93E09093E7
:1058F000380384E191E09CAB8BABC801BE016D5CC9
:105900007F4F0E946B0D84E0809338038FE992E013
:105910009EAB8DABC801BE016B5C7F4F0E946B0DCF
:1059200095E0909338038EE093E098AF8FABC80179
:10593000BE01695C7F4F0E946B0D20923803DAAE86
:10594000C9AEC801BE01675C7F4F0E946B0D3092EB
:105950003803FCAEEBAEC801BE01655C7F4F0E9410
:105960006B0D60EC76EC8DE290E00E94E100EC962D
:105970000FB6F894DEBF0FBECDBFCF91DF911F9160
:105980000F91FF90EF90DF90CF90BF90AF909F90DE
:105990008F907F906F905F904F903F902F900895E1
:1059A000DF93CF9300D0CDB7DEB781E0809338038B
:1059B0008CEA91E09A83898388E393E0BE016F5F6C
:1059C0007F4F0E946B0D0E94012B0F900F90CF9183
:1059D000DF910895DF93CF9300D0CDB7DEB781E09C
:1059E0008093380384ED91E09A83898388E393E080
:1059F000BE016F5F7F4F0E946B0D0E94012B0F90C5
:105A00000F90CF91DF910895DF93CF9300D0CDB762
:105A1000DEB781E0809338038EEF91E09A8389832B
:105A200088E393E0BE016F5F7F4F0E946B0D0E9481
:105A3000012B0F900F90CF91DF910895DF93CF93BB
:105A400000D0CDB7DEB781E0809338038AE292E0E0
:105A50009A83898388E393E0BE016F5F7F4F0E9442
:105A60006B0D0E94012B0F900F90CF91DF91089545
:105A7000DF93CF9300D0CDB7DEB781E080933803BA
:105A80008BE492E09A83898388E393E0BE016F5FA1
:105A90007F4F0E946B0D0E94012B0F900F90CF91B2
:105AA000DF9108958091070490910804892B21F4D7
:105AB0000E948D260E944B1B809107049091080440
:105AC000019721F40E9473260E944B1B80910704CA
:105AD00090910804029721F40E9459260E944B1BC2
